:0200000440209A
:1000000097E20200938202D517E3030013038329CA
:1000100063D6620023A002009102DDBF6FC0B12051
:10002000411106C622C4AA8873000000B2402244CF
:1000300041018280130605001305000093F61500A8
:10004000638406003305C50093D51500131616000A
:10005000E39605FE678000006340050663C605065B
:1000600013860500930505001305F0FF630C0602D7
:1000700093061000637AB6006358C000131616008A
:1000800093961600E36AB6FE1305000063E6C5000A
:10009000B385C5403365D50093D6160013561600B8
:1000A000E39606FE6780000093820000EFF05FFB9E
:1000B00013850500678002003305A04063D8050062
:1000C000B305B0406FF0DFF9B305B0409382000094
:1000D000EFF01FF93305A040678002009382000013
:1000E00063CA0500634C0500EFF09FF71385050018
:1000F00067800200B305B040E35805FE3305A04019
:10010000EFF01FF63305B040678002002320150092
:100110002322850023249500232625012328350149
:10012000232A4501232C5501232E65012320750325
:1001300023228503232495032326A5032328B5031F
:10014000232A250213050000678000008320050094
:1001500003244500832485000329C5008329050164
:10016000032A4501832A8501032BC501832B050240
:10017000032C4502832C8502032DC502832D050324
:100180000321450313B515003305B5006780000052
:10019000B7E72340938787F8984B18C188CB014570
:0201A00082805B
:1001A200B7E72340938787F8984B184398CB828010
:1001B20037E72340130787F81C4B411106C699E322
:1001C200EFC0D1279443C8C3854514CB138587005C
:0201D200AD3F3F
:1001D4004111814522C406C62A84A92109E501C426
:0E01E4002285EF902028B24022444101828003
:0401F200814515A985
:0201F600F9BF4F
:1001F8004111054622C406C62E84AD2509E501C471
:0E0208002285EF90E025B24022444101828021
:0202160099ADA0
:020218008DA3B4
:10021A00814837E62340130686F809480D43054E00
:10022A00930EF0039DA82328C61D7D17110531CF13
:10023A001C4193F6F700F5FA8326861CE3E7D7FEFE
:10024A008325C61CE3F3B7FE958F93DF4700998396
:10025A008326061CB69703CF070093F63F0086064F
:10026A00B355DF408D89E392C5FDB316D300B3E6DB
:10027A00E6012380D700E3E81EFB938748078A0735
:10028A00B29723A2F70185084DB763840804FD18C5
:10029A00938748078A07B297C8438325061C814675
:1002AA008506B307D50013D727002E970347070003
:1002BA008D8B8607B357F7408D8BE38307FF1205B3
:1002CA008327861C3E95920613D72600E362D3F64F
:0402DA006DBF8280F2
:1002DE00411106C622C426C24AC0AA8413F905FFDC
:1002EE00930510043305A940AD332A8637E4234025
:1002FE00130484F82322A41C2320941C9317650056
:10030E00B307F9402324F41C2326241D814526859A
:10031E00EFD0714E232C042C231204008547231A90
:0E032E00F42CB24022449244024941018280E4
:10033C00B7E72340938787F803D747000507239235
:04034C00E7008280C4
:10035000B7E72340938787F803D747007D17239299
:04036000E7008280B0
:0E036400B7E7234003D5C7F83335A0008280E9
:10037200D1C1011106CE22CC26CA4AC84EC652C4E9
:100382002A848A05B304B50037E92340130989F8A2
:1003920085490D4A21A01104630694041C4013F7F9
:1003A200F70075FB0327891CE3E7E7FE8326C91CD8
:1003B200E3F3D7FE998F13D5470099830327091CCE
:1003C200BA9703C60700137735000607B356E6400F
:1003D2008D8AE39236FD3317EA00518F2380E700BE
:1003E200253D55BFF2406244D2444249B249224AB5
:0603F2000561828082809B
:1003F800411106C6B7E72340938787F803D747001C
:1004080005072392E70023A8071C9305A00637E5F4
:0E0418002340130505F9913FB2404101828057
:10042600411106C622C426C24AC037E4234013043B
:1004360084F80D498327041DA9C32328041C832798
:10044600441C8A07E5DB814409A82685E133850437
:100456008327441C8A07E3FFF4FC93D72400032771
:10046600041CBA9783C7070013F734000607B3D7EF
:10047600E7408D8BE39D27FDC9BF37E72340032760
:10048600C7140A073DCBBE88014637E5234013054E
:1004960085F8894E0D4E0543BE8515A0638B080071
:1004A600B317FE0093C7F7FFB3F707012300F70062
:1004B6009A8805068327451C8A076370F604135736
:1004C60026008327051C3E970348070093773600CE
:1004D6008607B356F8408D8AE382D6FD6385C6014A
:1004E600E39966FC75BFB397FE0093C7F7FFB3F7B2
:1004F60007012300F700AE886DBFB7E72340938757
:1005060087F823AC072C03D747007D172392E70013
:0C051600B240224492440249410182801C
:10052200B7E72340938787F803A7C71C83A7871CD5
:10053200B307F7401CC1232205002324050023260C
:10054200050023280500232A0500232C0500014E5F
:100552008145014737E82340130888F88548094355
:100562002DA81445850614C5050EBE8589A85441DB
:10057200850654C1BE85A1A05441850654C1850596
:100582003DA86385150763876506104D6373B60042
:100592000CCD6385E606638F1707935727008326E2
:1005A200081CB69783C70700937637008606B3D731
:1005B200D7408D8BE38D17FBCDD7E38F67FA050705
:1005C2008326481C8A06E38EE6FA93572700032601
:1005D200081CB29703C60700937737008607335685
:1005E200F64093773600098A4DFA61BF1049050635
:1005F20010C961BF5049050650C941BF5C4563F44B
:10060200C7012326C5015C4192075CC11C459207C4
:100612001CC582805C4563E4C701014EBDBF232631
:06062200C501014E9DBF61
:10062800411106C622C426C24AC03D0513544500DE
:10063800630D0412B7E7234083D7C7F863990712FD
:10064800B7E7234083D7C72513B81700B7E423407B
:10065800938484F8054903A7842D03A5441C637675
:10066800A70E83A5041C014699A0014693F6C7006E
:1006780099E60506636686000A070507A1A00146F4
:1006880093F6070399E60506636686000A070907D5
:1006980015A8014693F7070C99E7050663668600D7
:1006A8000A070D0705A0014605076300A70AB387D7
:1006B800E50083C7070093F63700C5FA0506E36728
:1006C80086FA0A07B306C7401384160085476306EF
:1006D800F60893572400BE959377340013951700B6
:1006E8008547B397A70003C50500C98F2380F50088
:1006F80089066369D70237E82340130888F88948D0
:1007080093D726008325081CBE9593F736008607E5
:10071800B397F80003C50500C98F2380F500850647
:10072800E370D7FE9317440037E7234003240715E7
:100738003E94120681452285EFD0510C2285B240A5
:100748002244924402494101828063040800014422
:10075800F5B7EFC0C14B4A88FDBD930717008983E1
:1007680037E523402320F526ADB70144C1BF014436
:02077800F1B7D7
:10077A00B7E7234083D7C7F8BDEB35C9B7E72340AE
:10078A00938787F803A7871C198D1357450019818A
:10079A0083A7872D6376F500B7E7234023A0A72612
:1007AA0037E62340130686F80D4809459357270074
:1007BA008326061CBE96937737008607B317F80080
:1007CA0093C7F7FF83C50600ED8F2380F600050760
:1007DA00935627008327061CB69783C7070093768C
:1007EA0037008606B3D7D7408D8BE381A7FC82807A
:1007FA00AA871377F50025E737E72340032707156C
:10080A00014563EFE704B7E6234083A6461563F97B
:10081A00D704998F13D6470037E7234083268714D6
:10082A009983B69783C70700137736000607B3D7AD
:10083A00E7408D8B05476395E70289450505B307B0
:10084A00A60013D727003697034707008D8B860724
:10085A00B357F7408D8BE383B7FE120582800145BB
:02086A0082808A
:10086C00411106C622C426C24AC02A842E8541CC18
:10087C00D9CDB7E7234083D7C7F863990714B7E7F7
:10088C002340938787F803A7871C3307E440118321
:10089C009386F500918203A3471C0A039305170066
:1008AC0063F06508B7E7234083AE8714854481481D
:1008BC00094E93D72500F69783C7070013F8350028
:1008CC000608B3D707418D8B6387C70591E7850869
:1008DC00B387980063E2D7042289638A960E63E497
:1008EC009604A69863FDD80801496302060E81455B
:1008FC0035332A8969CD13964400A285EFD0A166C1
:10090C002285B535E9A08145113B2A89C9A02285EC
:10091C00B93D01496DA885048505E31CB3F86DBF8D
:10092C008544814855BF3306D7003305970032877D
:10093C0037E82340130888F88D48935727008326FF
:10094C00081CBE96937737008607B397F80093C7B9
:10095C00F7FF83C50600ED8F2380F6000507E31E25
:10096C00E5FC93562600B7E7234083A70726228988
:10097C0063FFF604B7E7234023A0D72689A83306E4
:10098C00970036976379E60237E82340130888F816
:10099C008948935726008325081CBE95937736000B
:1009AC008607B397F80003C50500C98F2380F500AF
:1009BC000506E310E6FE33869640139544001206B6
:1009CC0081452295EFD04163228911A001494A85C6
:0C09DC00B2402244924402494101828052
:1009E800797106D622D448000D3E3247A2461246F7
:1009F800B75522409385854E378422401305448895
:100A0800EF10C01BC2477247E2465246B755224014
:100A18009385C55013054488EF10401AB2502254EC
:040A28004561828022
:100A2C00011106CE22CC26CA4AC84EC652C456C2A2
:100A3C0037E42340130484F80326841CB755224062
:100A4C009385054A3785224013054588EF10C0165B
:100A5C00832A441C8A0A63800A1C0144B7E423409D
:100A6C00938484F837A9224013098974B7A92240CA
:100A7C0093898993379A2240130A0AAED1A06379DD
:100A8C00540703A6041C93572400B29783C707008E
:100A9C00137734000607B3D7E7408D8BB1EB228771
:100AAC000507630F570193572700B29783C70700B9
:100ABC00937637008606B3D7D7408D8BF5D3BA8A99
:100ACC0033868A409307F00763F4C7021982B7553F
:100ADC0022409385C54B3785224013054588EF107E
:100AEC00A00D13F40AFC83A7441C8A076375F41247
:100AFC0013164400B7071000C1177D8EB75522405E
:100B0C009385854D3785224013054588EF10C00A23
:100B1C001DA813B617003306C040398A1306060207
:100B2C00B75522409385054E3785224013054588DD
:100B3C00EF108008050483AA441C8A0A637D540DB7
:100B4C009377F4038DDF9357240003A7041CBA9703
:100B5C0083C70700137734000607B3D7E7408D8BA4
:100B6C0005476381E702E356F7FA09471306D003FA
:100B7C00E388E7FA0D471306D006E383E7FA13067A
:100B8C00000279BF83A7841C13174400BA979C43B7
:100B9C0013064005E38627F91306C004E38237F9F0
:100BAC0013064004E38E47F737A722401307C744C8
:100BBC0013063005E386E7F637A722401307471ADA
:100BCC00E380E7F637872240130787631306100488
:100BDC00E388E7F4378722401307075CE382E7F4E6
:100BEC00379722401307873B13066004E38AE7F22A
:100BFC00379722401307474013062004E382E7F29D
:100C0C0037A72240130787AE1306D004E38AE7F018
:100C1C001306800631B7B75522409385454E37856C
:100C2C00224013054588EF00E078F2406244D2443C
:0C0C3C004249B249224A924A0561828076
:100C4800B7E7234083A747FAD8436368E500198DBF
:0E0C580011050A053E95084182809C43F5B7C0
:100C66008567AA95938757506367B50013F5F70F05
:100C760011E10545828013975700BA97034705008F
:060C86000505B98FD5B78A
:100C8C00B7E7234037572240938787F81307C77F6E
:080C9C00D8CF23A8071A8280BB
:100CA400011126CA52C456C25AC006CE22CC4AC822
:100CB4004EC62A8B2E8A7537B7E7234083A447FA9A
:100CC400AA8A99E0014581A003A9C400938904017B
:100CD4004E840A094E99636424018440DDB70840B8
:100CE40083470500639B57038347150063974703B6
:100CF4005286DA850905EFD0E13405E13305344144
:100D0400C04009852295F2406244D2444249B24926
:0E0D1400224A924A024B0561828011046DBF93
:100D220001114AC852C406CE22CC26CA4EC62A8A0D
:100D32002E89853F631A05109307F00F63FC270184
:100D4200B765224037952240938545021305450930
:100D5200EF80005C37E42340930784F803A5071B68
:100D620093043900130484F815C58327841B832553
:100D7200441BA69763FFF5040146A695EFF08FC9C1
:100D820029E18325841B0325041B0146EFF08FC84C
:100D92002328041A93070008A68963F4F400930930
:100DA20000084E85EFF0CFC42328A41A55E5268506
:100DB200EFF00FC42328A41AA68959ED2685EF80E7
:100DC200806A8327441BA697232AF41A8327041BCD
:100DD200F1D38327841B8329041BCA85BE945285C1
:100DE200BE99232C941ABD3D2380A900A38029011A
:100DF2004A86D285138529004E99EFD061172301C7
:100E020009005C4C8447DC4763E397028604138540
:100E120044000A05EFF0CFBD55D1584C5C4318C1D0
:100E2200584704C523260500BA975CC148CC584CE4
:100E32005C4748439386170091078A0754C7BA97BD
:100E42007D1523A037013695F2406244D2444249CF
:100E5200B249224A05618280232A341B232C041AB8
:020E62008DBF42
:100E6400411122C406C62A84EFD08120AA85228596
:080E74002244B240410165B5C2
:100E7C00411106C6E133B2400345050041018280B1
:100E8C00411106C6653BB240034515004101828005
:0E0E9C00411106C66533B2400905410182804E
:100EAA00011106CE2EC6613B83471500B245F240BA
:080EBA0009059CC1056182805D
:100EC200011122CC26CA4AC806CE23200500B7E764
:100ED200234023A0050003A447FA23200600B754A9
:100EE20022402A8923A006009384C47F19C0631C70
:100EF20094009C421842F2406244BA979CC2D24487
:100F02004249056182808327090085072320F90071
:100F120058449C41BA979CC15C44130704018A0758
:100F2200BA97636FF700228536C632C42EC2E93003
:100F3200B246004022469C4292453E9588C27DB709
:100F42000843032806001107034515000D084295C2
:040F520008C2C1BF51
:100F56000111B7E7234022CC03A447FA4EC6B7597E
:100F6600224052C456C206CE26CA4AC89389C97FB1
:100F7600376A2240B78A224019C0631B3401F24007
:100F86006244D2444249B249224A924A0561828069
:100F96004444130904018A04CA9463649900004016
:100FA600E1BF032609009305CA0113854A8809068D
:080FB600EF00F0401109D5B76E
:100FBE0085050147054813060002B758224083C72E
:100FCE00050081E7230005008280E207E187930692
:100FDE00150063DD070401C72300C500368583C7EE
:100FEE0005001387485593F7F7079DE383470700DE
:100FFE009306150013938701135383416353030222
:10100E0093F7F7072300F50005478505368545BF9D
:10101E00830607000507E3DD06FEFD1793F7F70FBE
:10102E00E9B70507A38FF6FE3685C9B76315070125
:10103E002300C500368583C70500930615000947B2
:06104E002300F500D9B7F4
:10105400411122C440411C4106C626C22E9463F7A6
:1010640087028347C500AA84858B81CB37952240AC
:10107400814513054509EF8080294104619808459D
:101084002104A285EFF00F9788C480C0B2402244A7
:061094009244410182803C
:10109A0041114AC02E89B28506C622C426C22A84B4
:1010AA00B284653708445C402686CA853E95EFC0FF
:1010BA0091715040B2400249269650C0224492444F
:0410CA0041018280DE
:1010CE0041114AC00329450022C426C206C62A84FD
:1010DE00AE8463E32501CA8422858545AD371C4461
:1010EE001385140033069940B38597003E95EFC0E3
:1010FE00516D5C400844B24085075CC02244269581
:08110E00024992444101828074
:10111600411122C406C62A8491E185450CC02322CA
:1011260004002E85EFF0AF8A8347C40008C4B2409E
:0C113600F99B2306F40022444101828052
:10114200411122C42E84850526C206C6AA84D93737
:0C115200B240C0C022449244410182809F
:10115E008347C5000CC12322050093E7170010C575
:06116E002306F50082805B
:10117400011122CC06CE2A8432C6613F3246F240A7
:10118400B717204000C262449387A7095CC2056177
:02119400828057
:101196005C45411122C406C6858B2A8481E7084531
:1011A600EFF02F8723240400B240224441018280BD
:1011B60001112AC6414506CE22CCEFF04F81B24539
:0E11C6002A84B9372285F24062440561828096
:1011D4008347C500411106C622C426C2858B81CB34
:1011E40037952240814513054509EF804012AE84AE
:1011F4000C412A840845A695EFE0DFFF1C4008C493
:10120400B240BE9404C0224492443E95410182807F
:10121400411122C426C206C62A84AE84153D5C4010
:101224000844B240BE9444C0224492443E954101D5
:021234008280B6
:1012360018415C41411122C406C62A846314F70092
:10124600854571371C445840BA97238007000844E7
:08125600B240224441018280F4
:10125E00411122C42E84854506C6753723008500AC
:08126E00B240224441018280DC
:1012760001114EC606CE22CC26CA4AC89307F007ED
:1012860093F9F50F63EDB700854551372300350116
:10129600F2406244D2444249B2490561828013D485
:1012A600650093F9F9039307F07FAE841374F40F86
:1012B60093E9090863EBB7008945913F136404FC81
:1012C60023008500A3003501E1B713D9C5001374C7
:1012D600F403C1671379F90F1364040863FDF5007D
:1012E6008D453537136909FE23002501A3008500C6
:1012F6002301350171BF9145C9801379F903013F77
:1013060093E404FF136909F823009500A30025015F
:0A13160023018500A3013501A5BFE6
:10132000011122CC2A842E8506CE2EC6EFC0915400
:0E1330002A8622856244B245F2400561B9BBAF
:10133E00011106CE32C6693332462300C500F24093
:04134E000561828033
:10135200011106CE32C69D3B32462300C500F24043
:04136200056182801F
:10136600584181476364B700B307B7405CC18280C8
:10137600544163FFD5023387C5006364D7004CC16F
:101386008280411122C42A840845AE8726C2B3054D
:10139600E500B2843E953386E64006C6EFC0F142CC
:1013A6005040B240058E50C0224492444101828092
:0213B600828033
:0813B8002E85B2856FC091156E
:1013C000011126CAAA842E8522CC06CE2EC6EFC0D5
:1013D000714A2A8411C52A86DC40B245884082972A
:0C13E0002285F2406244D2440561828004
:1013EC0039714ED65AD062CC328B918F06DE22DC0C
:1013FC0026DA4AD852D456D25ECEA307E100137631
:10140C00F70DAA892E8C41CE13060003630FC70873
:10141C001309F100054A13F4060849CC13D4F7015B
:10142C003E940584B3848740635D8008A28AD28B86
:10143C0063D34A01D68B83A7490003A509005E86B6
:10144C00CA85B38A7A418297E34350FF630A0B0043
:10145C0083A7490003A509005A86E28582975A940E
:10146C00635290022694D28A63D34401A68A83A73E
:10147C00490003A509005686CA85B3845441829756
:10148C00E34390FE2285F2506254D2544259B25931
:10149C00225A925A025BF24B624C2161828037894C
:1014AC0022401309C985414ABDB737892240130927
:1014BC000987D5BF93F4160099E03E84B5B7BE8476
:0614CC0071B7014461B795
:1014D2005D71A6C2CAC04EDE52DC5ED662D486C63A
:1014E200A2C456DA5AD866D26AD0A3070100AA8BE0
:1014F200AE84368A3E89428CC68929CE63D60504DB
:101502009307D002A307F100B304B0400010A54C2A
:10151200930A67FF130D0101D2852685EFE0BFB85C
:101522002A8BD2852685EFE09FB393070B0363F4E2
:101532006C01B3876A017D142300F4006303A403E2
:1015420063E14403AA84C9BF898BA5C79307B0028C
:10155200A307F100C5FC93070003A30FF1001304D6
:10156200F101937409048347F100B1C8814499CB16
:1015720085476287CA8605469305F1005E85B535C3
:10158200AA84FD191010CE876287CA86018EA285B1
:101592005E85A13DB6402644269506499644F259F9
:1015A200625AD25A425BB25B225C925C025D61611A
:1015B200828093774900D9DF9307000251BFF9D3A4
:0E15C2001808E37187FCA30FF4FE7D1465BFCB
:1015D0001971A2DCA6DACAD8CED6D2D4D6D2DECE43
:1015E00086DEBE8BDAD0E2CCE6CAEAC8EEC693F756
:1015F0001500AA8AB28436843A89C289468A95E35C
:1016000093F7350081EB9841B79722409387877510
:101610006309F7002E85EF90E04C9315150093E5D4
:1016200015009377190889EB930700036396FB0075
:1016300063D34901D289014A2E852EC6130B0102BC
:10164000EFC0302DDA87B245634B05009377290050
:101650008DCB9307B0022300F10293071102137799
:1016600009011378F40F29C309476393E4021307B0
:1016700000032380E70013071800A380E700890711
:1016800025A013774900DA8779DB93070002E1B7D9
:1016900021476392E416130700032380E7001377C2
:1016A00009206317071485072380070033846741E7
:1016B00093770902814899C39308C002C147130C6C
:1016C00001033ED462D202D6854763D44701136931
:1016D0000904A30F0100937C090463880C1281475D
:1016E0002687AE8670102C104810EFC020748347F8
:1016F00005001307D002AA8D6399E700A30FF1003C
:10170000B257930D1500FD173ED6854763DC471190
:101710003257D2876353EA00BA8763870C000347C6
:10172000F10111C38507A29763DB370F1377190007
:10173000338DF940814419E3EA84014D1379E9FFBF
:10174000930B000389CCB7852240A68713070002BC
:10175000814601469385858456854939AA84638AE2
:101760000C028347F10199CB854701478146054625
:101770009305F10156859D39AA94FD1919C885472D
:10178000014781462286DA8556858D31AA94B38930
:101790008940854763D34701D2893256CE875E8719
:1017A000CA86EE8556859931AA94630E0D00B785D9
:1017B0002240EA871307000281460146938585840B
:1017C00056852D31AA94125563048501EFE0DFA4FC
:1017D000F650665426854659D654B659265A965A16
:1017E000065BF64B664CD64C464DB64D0961828081
:1017F0001307E80059B54147E398E4EA13070003EB
:101800002380E700130778018DBDAE86DA8726872F
:1018100070102C104810EFC06061AA8DFDB5014D0D
:0A182000814429BF014D81441DBF22
:10182A00397126DA4ED652D456D2B68406DE22DC76
:10183A004AD8898A2A8ABA8ABE892E854287930714
:10184A00B00291E693F74400B337F0009607B286E8
:10185A008A8513060002EF60704593F704102A8404
:10186A0095C3930715007D47636EF700181033047C
:10187A00A700130750022300E4FE18103E97230026
:10188A0007FE3E8413F904048A85630409020347A8
:10189A0001009307F002014963EDE700854701471C
:1018AA00814605465285353E2A89FD197D149305E0
:1018BA001100CE875687A686228652851D36F2509B
:1018CA0062544A95D2544259B259225A925A2161C3
:0218DA0082800A
:1018DC005D71A6C2CAC04EDE56DA5AD85ED662D444
:1018EC0066D286C6A2C452DC6AD0AA89B2840149E7
:1018FC00930A5002130BD002930BB002378C224088
:10190C00B78C22402E848347040099C363925705F9
:10191C0063FC850083A7490003A50900330AB44082
:10192C00528682975299A28583C705006387072642
:10193C001384150013070002814613060002930559
:10194C001002130500038347040089E7A545B9A0DD
:10195C00050455BF6396670193E616000504E5B7C9
:10196C006395770193E62600D5BF6395C70093E690
:10197C004600EDB76395B70093E68600C5B763964E
:10198C00A70693E6060413070003C9BF13962700A6
:10199C00B2978607C697938707FD05048348040012
:1019AC00138608FD1376F60FE3F2C5FE1306E0026C
:1019BC007D5D6397C804834514001306A0026388F9
:1019CC00C5020504014D254583450400138605FD1C
:1019DC001376F60F6366C50213182D00429D060D93
:1019EC002E9D130D0DFD0504C5B7814785B703ADBD
:1019FC00040009041386440063530D00014DB284A6
:101A0C00834504001306C0066393C5000504034612
:101A1C0004006304061893054006630EB61263E3D4
:101A2C00C50693050005630DB60663E3C502930571
:101A3C00B6FB93F5F50F0945637CB51283A74900F6
:101A4C0003A509000546A28582970509268A75A873
:101A5C00930520066301B60A63E1C50C9305800566
:101A6C00E31EB6FC137506FF05064515198ABE88DC
:101A7C00B687C1463A88138A44001377F50F918EC6
:101A8C000146DDA0930510076301B60A63E3C502A6
:101A9C009305700663FEC50C93050007E310B6FAB8
:101AAC00BE883A88B687138A440013071006C146CD
:101ABC00C1BF93055007E307B6FA93058007E3030C
:101ACC00B6FA93053007E31BB6F68C403EC63AC413
:101ADC002E8536C22EC0EFC021592A867D55138A19
:101AEC004400824592462247B247630DAD00637BAA
:101AFC00CD006A8601A89040138A440019CA114689
:101B0C009385CC844E85E9382A9993051400D284A8
:101B1C00D5BB154693054C85F5B79040138A440008
:101B2C006C08230EC1000546F1BF88406C083EC40A
:101B3C003AC236C0EFF0AFB67D56138A4400AA8580
:101B4C0082461247A2476306CD0072466373CD00EE
:101B5C006ACE724645BFBE883A88B687138A44005F
:101B6C0013071006A94605468C404E85A93A69BF55
:101B7C009D04E198CC4088403EC63AC436C232C07F
:101B8C00EF30C266B247224792460246AA856A885F
:101B9C004E85138A8400613185BFB64026444A8540
:101BAC0096440649F259625AD25A425BB25B225CA5
:081BBC00925C025D6161828010
:101BC400397132D4301006CE36D63AD83EDA42DCF9
:0C1BD40046DE32C61133F24021618280EF
:101BE000834705001397870161876352070293F7C4
:101BF000F70713070004B3F6E70081EE0505930627
:101C00000008034705001376070C6309D6003E85DC
:101C100082809346F7FFF58F0583F1BF9A0713770C
:081C2000F7030505D98FF1BFA0
:101C28000505130700088347050093F7070C63832E
:081C3800E70082800505C5BF2D
:101C40008147930600086364B5003E858280FD15D8
:101C500003C705001377070CE307D7FE8507E5B731
:101C6000AA87AA9593060008014563E3B70082801E
:101C700003C707001377070C6303D7000505850723
:021C8000EDB7BE
:101C82009307F00763ECA700B78722409387C788C2
:101C9200AA9703C5070005810589828001458280D4
:101CA2009307F00763ECA700B78722409387C788A2
:101CB200AA9703C507000D810589828001458280AC
:101CC2009307F00763ECA700B78722409387C78882
:101CD200AA9703C507000981058982800145828090
:101CE2009307F00763ECA700B78722409387C78862
:101CF200AA9703C507001981058982800145828060
:101D02009307F00763E2A702B78722409387C78849
:101D1200AA9703C707008547318B09E7130515FA10
:0C1D2200933715003E8582808147EDBF9D
:101D2E009307F00763ECA700B78722409387C78815
:101D3E00AA9703C50700118105898280014582801B
:101D4E009307F00763ECA700B78722409387C788F5
:101D5E00AA9703C5070015810589828001458280F7
:101D6E00411122C406C62A84653F19C11304040218
:0A1D7E002285B24022444101828018
:101D8800411122C406C62A847D3F11C1011422854F
:081D9800B240224441018280A7
:101DA000130505FDA54763F5A7001375F5FD65153A
:021DB00082802F
:101DB200AA9501479306F00B1306700F1308500EF5
:101DC200930800086365B5001335170082808347C6
:101DD200050019CB93F7070C639717039307F7FFD7
:101DE20013F7F70F0505F9BF63FBF600636DF60005
:101DF2008D83998BB357F84013F73700E5B7E207A5
:0A1E0200E187E3D107FE014582806D
:101E0C00F91563E5A50083D70500FDDB8905898DF0
:061E1C0013D51540828081
:101E220093D7460063F0C704139717001D8EBA9527
:101E320085483287BD8A83D705006307170103D817
:101E420025004208B367F800B3D7D700C207C183A1
:101E52002310F5007D170905890571FF91E37D16B1
:081E6200328582800146EDBFCC
:101E6A00198EBA8801488147639308020607B306A8
:101E7A00E500BA95368832870DEF0606369681C791
:101E8A002310F60009063305A640058582803383B0
:101E9A000501338E060103530300035E0E00FD188D
:101EAA0072939A97330305012310F3000908C1833B
:101EBA0065BF83D805007D170908C697231FF8FE5A
:061ECA008905C18355BF2C
:101ED000198E3A8381488147631D03000607B308C2
:101EE000E500B2862E97468885EA0606B385C800C7
:101EF00031BF33881501035808007D13C29733881A
:101F0000160103580800B387074133081501231051
:101F1000F8008908C187C9B783550700FD1609086D
:0C1F2000AE97231FF8FE0907C1877DBFA4
:101F2C00411122C426C206C68947AA84094463E328
:101F3C00F5002E84884409C59C40898363FC870086
:101F4C0093151400EFE08FAA9C400A0488C48D8B73
:0E1F5C005D8C80C0B2402244924441018280DC
:101F6A00411126C2AA84314506C622C4EFE0EFA574
:101F7A009C402A8413F717001C41F99BD98F13F749
:101F8A00D7FF18C18840858B098113172500D98F7F
:101F9A001CC0DC4006055CC0EFE02FA308C49040DB
:101FAA008C4409820606EFB0317C2285B240224475
:061FBA0092444101828007
:101FC000939715003E953E9699E1014582807915DB
:101FD00079168357050003570600998F63C50700DC
:0E1FE00089E7FD15D5B77D55828005458280C5
:101FEE0011CD411122C42A84084506C6EFE0EFA1A7
:0E1FFE0022852244B24041016FE02FA1828073
:10200C00411122C42E84894526C206C6AA84093FE2
:10201C0063510402B305804005479C4023A2040091
:10202C00F99BD98F9CC089E9B2402244924441016A
:10203C008280A2850147D5B7DC409844938617006F
:0E204C008607D4C0BA972390B700C181E9BFC0
:0E205A00232005002322050023240500828098
:1020680019C51C41898B81E708456FE06F9A82800A
:10207800411122C42E84CC4126C206C6AA845D35ED
:102088001C408844B24013F717009C40F99BD98F35
:102098009CC05C400C44DCC050402244924406067C
:0620A80041016FB0916CD4
:0A20AE0081E523220500828099BF1E
:1020B800011122CC06CE2A842EC6613F22856244B5
:0820C800B245F2400561C5B705
:1020D0001317260010410CC5232205000D8A598EC6
:1020E00010C1719A136626002300C500B685C1B7DA
:1020F000011122CC2E84914526CA32C636C406CEA2
:10210000AA842D35A246A2853246014799CA635A50
:102110000600B3058040B337B0003306C0401D8EC3
:1021200005479C4023A20400F99BD98F9CC0B3E7CC
:10213000C50091E7F2406244D24405618280DC40F0
:102140009844938617008607BA97D4C02390B700A7
:0C21500093170601C181DD8D4182D1BFD3
:10215C0001114EC606CE22CC26CA4AC852C41C4116
:10216C0013D7F501AA89F99BD98F1CC1B707807FBA
:10217C0033F7B70019EB23A20900F2406244D244B2
:10218C004249B249224A05618280E306F7FE13D424
:10219C0075011374F40F930714F8E3CE07FC91EB5D
:1021AC006244F240D2444249B249224A8545056113
:1021BC0081BD930614F913D7F6413D8B3697135A0C
:1021CC004740370780009304F7FFED8CD98C5947B3
:1021DC006342F706DD46B387F640B3D4F4000149F9
:1021EC000144D2854E852D3B23A2490101C803A58C
:1021FC008900131614008145EFB0116063010902C8
:10220C0083A7890013171400BA97339724012390DE
:10221C00E700C14733892741B3D424010504E30EF9
:10222C008AF483A7890013171400BA972390970098
:10223C00C180EDB7A50713F9F7009307A4F613D4E3
:0A224C00F7413D883E94118469BFFC
:102256005D714EDEB389C5000E065ED6AE8B935514
:1022660046008505CAC052DC2A8956DA6AD06ECE87
:1022760036C63A8A86C6A2C4A6C25AD862D466D2DE
:102286005D31B24613170A012322090093F716009F
:1022960083260900DE8AA54DF99ADD8E2320D90012
:1022A600654D418363E33A03B640264433857A415C
:1022B60096440649F259625AD25A425BB25B225C94
:1022C600925C025DF24D6161828083C70A0093844D
:1022D60007FD63FE9D009386F7FB938497FC637866
:1022E600DD009386F7F9E361DDFC938497FAE3FD5D
:1022F60044FB032C890003244900628BA28C639063
:102306000C020604B3078C0081C42390970089074A
:10231600B387874185872322F900850A61B78355EC
:102326000B003A853AC6EFD09FD0AA9423109B00A3
:0A233600FD1CC180090B3247D9B726
:10234000011122CC26CA06CE2A84854489C593076A
:10235000F6FFBE96FD5493153600BD05918122858A
:1023600036C632C4E1361C402246B246F99B1CC038
:102370002322040081473D4801EE4C400844860575
:10238000AA95693448C0F2406244D2440561828013
:102390000147634DF80083C506007D16A696B395E8
:1023A000F5004D8F42074183A10765F64C40084474
:1023B000C11793881500860523221401AA9523903E
:0423C000E5005DBF18
:1023C40054412A8781E6DC4101459DCF411122C455
:1023D4009C41004306C6858B137514003385A740C2
:1023E40005E1DC417D5563E9F600054563E6D70068
:1023F40090450847B685D936058819C03305A040ED
:0A240400B240224441018280828030
:10240E00411122C406C62A846303B500B9391C40A3
:0C241E00B240F99B1CC0224441018280A6
:10242A00411122C406C62A846303B50089311C40BF
:10243A00B24013C7F7FF058BF99BD98F1CC0224402
:04244A00410182804A
:10244E00011122CC06CE2A846303B50039395040DF
:10245E0019EE85452285E1341C4405472390E7009B
:10246E0085475CC01C4093E717001CC00DA01C40A4
:10247E0013F717000DC30C44F99B1CC00547854785
:10248E009306E1002E852317F100253C48C0F2404B
:10249E0062440561828093051600228549340C44FE
:1024AE005040854705479306E1002E852317F1001E
:0624BE00753248C045BF65
:1024C400DC4101114AC806CE22CC26CA4EC62A894E
:1024D40091C309EA6244F240D244B2494A8542496E
:1024E400056149BE9304F6009180AE89B3859700D7
:1024F40032841D3C1376F4008327890083A5890068
:1025040083A6490011E24146370700801347F7FFCD
:102514003384D4003305E40006053697AA970607EA
:102524004145BA953688BE8801473306C540631FC6
:1025340008048606958F3357C7002390E7003307B6
:10254400904006070907BA97139614003E8579163A
:102554008145EFB0F12AAA8719C4131714003E97D6
:102564000357E7FF21C32322890083A70900F24010
:10257400624413F7170083270900D244B249F99B38
:10258400D98F2320F90042490561828003D50500D3
:102594007D18F918498F3355C7002391A8004207C5
:0825A400F91571B77D144DBF5C
:1025AC0001114AC82E89CC4126CA06CE22CCAA8457
:1025BC0099C1328411EACA8526854D3CF2406244A9
:1025CC00D244424905618280A13A03264900832501
:1025DC0089008844A2868130C8C0832709002A86D6
:1025EC0013F717009C40F99BD98F9CC0858BF9D7AA
:1025FC008326490093574400231701000147638445
:10260C00E6006314F702E3FBD7FA03278900860779
:10261C003D88BA9783D707000547331487007D148C
:10262C007D8C1DC82317E10031A883258900131563
:10263C001700AA9583D5050091CD05472317E10016
:10264C00E3E5D7FC8C4409EE85472390F5008547DC
:10265C00DCC0ADB7050765B78357E100A5D3DDB77F
:10266C0005479306E1002E85EFF06FFFC8C0B9B7A0
:10267C00411122C45C422E84CC4126C24AC006C6FB
:10268C002A89B28463E9F50063EAB700104608446E
:10269C00153263550500A2872684BE841C409840E1
:1026AC004C40B98F858B8DEF85054A859538D84080
:1026BC00944450400C4403258900EFF04FFA232238
:1026CC00A9001C40B240224413F7170083270900CD
:1026DC009244F99BD98F2320F90002494101828051
:1026EC004A853D38D840944450400C440325890019
:0626FC00EFF04FFDE9B70D
:10270200011122CC5C422E84CC4126CA4AC806CE94
:102712004EC62A89B28463EAF500814963EBB700A9
:1027220010460844693863560500A2878549268405
:10273200BE841C4098404C40B98F858BB9C3850537
:102742004A85EFF08FFED840944450400C44032554
:102752008900EFF06FF12322A9001C4013F7170044
:10276200638409001347170083270900F24062447B
:10277200F99BD98F2320F900D2444249B24905611D
:1027820082804A85EFF06FFAD840944450400C445E
:0A27920003258900EFF0AFF37DBFCF
:10279C00D8415C42011122CC4AC806CE26CA2A89ED
:1027AC002E846374F70032842E8618404C40854783
:1027BC00058B19E31C42858BBE954A8532C6EFF01A
:1027CC002FF63246032384004C400442004003257C
:1027DC008900032E8600B3479400858B8322460024
:1027EC00814699E39376140005888588330FD04091
:1027FC00B30F8040B3089040420FC20FC208C163B0
:10280C002288A680135F0F0193DF0F0193D8080174
:10281C002E86AA8EB382B240FD130DEA8605AA95C8
:10282C0089C685472390F5008905EFF06FDD832776
:10283C000900658CF240F99B5D8C23208900624471
:10284C002322A900D24442490561828083570300A8
:10285C007D164687B3C7FF003E98B387C2006367F7
:10286C00F60003570E00090E33C7E8000697B3773E
:10287C00E800B3C7E701B3F77700B6972390FE00E3
:10288C00935007011358080193D60701890E0903C9
:02289C0069B71A
:10289E00D8415C42011122CC4AC806CE26CA2A89EA
:1028AE002E846374F70032842E8618404C40854780
:1028BE00058B19E31C42858BBE954A8532C6EFF017
:1028CE000FE6032384004C40004032460325890066
:1028DE0013771400032E8600832246000442854798
:1028EE0019E393F7140005888588330FF040B30F72
:1028FE008040B3089040420FC20FC208C163BE862B
:10290E002288A680135F0F0193DF0F0193D8080171
:10291E002E86AA8EB382B240FD1305E68605AA95D1
:10292E00EFF0EFCD83270900458CF240F99B5D8CCB
:10293E002320890062442322A900D2444249056122
:10294E008280835703007D164687B3C7FF003E98EB
:10295E00B387C2006367F60003570E00090E33C734
:10296E00E8000697B367E800B3C7E701B3F777004F
:10297E00B6972390FE00935007011358080193D683
:08298E000701890E090351BF86
:10299600D8415C42411122C426C24AC006C62A89D1
:1029A6002E84B2846374F7003284AE8418404C409F
:1029B6008547058B19E39C40858BBE954A85EFF0CC
:1029C6008FD61C4098404C400325890003AF440035
:1029D6000323840003AE840033C6E700C16693C7B1
:1029E600F7FF1347F7FF13781600858B058BAE8824
:1029F600AA8EFD16330FBF40639F08028605AA956F
:102A06006306080085472390F5008905EFF0AFBF00
:102A16002322A90018409C40B2402244B98F13F7E4
:102A26001700832709009244F99BD98F2320F900C8
:102A360002494101828003560300FD18B30F1F01AE
:102A46003696B297368663E6F80103560E00090EEF
:102A56003696329733C6E700758E42962390CE009F
:0E2A66004183C18313580601890E090371B71D
:102A7400DC415D71A2C486C6A6C2CAC04EDE52DC69
:102A840056DA5AD85ED662D466D26AD06ECE2A841A
:102A940081C75C42B28495E323220400B6402644F5
:102AA40096440649F259625AD25A425BB25B225C9E
:102AB400925C025DF24D616182802E896394A50867
:102AC400EFF06FCA2A89AA8A63938400AA84DC403F
:102AD400832549002285BE95EFF00FC510400844B8
:102AE400814509820606EFB0A15103274900032C52
:102AF40084000326890083AC840083AB4400131A4A
:102B04001700629A628D8147639F0B085CC09840EE
:102B140083270900B6409644B98F13F717001C4069
:102B24000649F259F99BD98F1CC02644625A425B6C
:102B3400B25B225C925C025DF24D5685D25A6161B1
:102B44006FF0AFCA814AE314A6F8EFF0CFC1AA84AC
:102B5400AA8AB5BF03550B0083D50C003AC6AA99BF
:102B640003D5070032C43EC2EFD08FCC9247224631
:102B74003247AA9923103B01FD1D93D90901890706
:102B8400090BE3990DFCD28793062A00638509009B
:102B940023103A01B687B38787418587FD1B090D4A
:102BA400890C368A95B7B287BA8D6A8B8149D1BFB1
:102BB400DC41411126C206C622C44AC0AA8481C788
:102BC4001C42858B89CBB240224423A204000249D3
:102BD4009244410182805C4289EB2244B240924497
:102BE4000249854541016FF02FC22E853284EFF0F2
:102BF4008FB72A892285EFF00FB72A848545268569
:102C0400EFF08FC05C4095C31C4483D70700858BCD
:102C140089C74A86A6852685A13D0C445040854631
:102C24002E85EFF0CF9F48C001ED4A85EFF0EFBB52
:102C340022852244B2409244024941016FF0EFBA26
:0A2C44004A86CA854A852D3575BF02
:102C4E001971DAD02E8B4C4286DEA2DC8505CAD8ED
:102C5E00CED62A89B289D2D4D6D2368AA6DADECE9A
:102C6E00E2CCE6CAEAC8EEC6EFF06FAB03A64900A7
:102C7E0003258900814505060606EFB0C1372322DC
:102C8E00090083A549005A858505EFF04FA9CE8529
:102C9E005A85EFF08FBD832A4A0003244B006367E9
:102CAE00540983278900832D8B00032C8A003EC68E
:102CBE0063E18A086286A2856E85EFF08FAF2DE5FF
:102CCE00324723220B0085472310F7008547232226
:102CDE00F90083A7090003270A00B98F858B95C7D2
:102CEE008327090093E717002320F90083274B0061
:102CFE0089CFFD554818EFF04FBB5018CA854A854D
:102D0E00BD325286DA855A859D32F6506654D654B7
:102D1E004659B659265A965A065BF64B664CD64C11
:102D2E00464DB64D09618280635505002322090088
:102D3E004DB7139D1A00791DB305AC0183D705005D
:102D4E00814B93960701C18663D4060A931714002C
:102D5E00B38CFD0023900C00050489074145232206
:102D6E008B00EE97EE8681483305754163EAF608CF
:102D7E0003D6050085473316760163FA570183D7CC
:102D8E00E5FFC146B3867641B3D7D7005D8E3304D7
:102D9E005441B24723228900060479143E94C16639
:102DAE0093072D003EC8138DF6FF83244B0063E975
:102DBE009A0693971400F917C146EE978145B3868C
:102DCE00764163FCB713B706008093C6F6FF032760
:102DDE00490011CB3246B307D7008607B29783D787
:102DEE000700638A0712B706008093C6F6FF1DAA76
:102DFE008607850BC207C20BC18393DB0B0191B70C
:102E0E0003D606008906331876013356A6003368BA
:102E1E00180193180601239F06FF93D80801B9B72E
:102E2E0083D70C0003D5ECFFB285C2075D8D32CA85
:102E3E00EFD02FA2C24752462A88B388FC40468E56
:102E4E00628F0143814E636F9E0183D70C003E93C8
:102E5E006310030A23100401FD147914F91C2322B4
:102E6E009B00A1B783570F0093DE0E01C285B39767
:102E7E007701B3EED70133F5AE0146D672D41AD22E
:102E8E0032D07ACE42CC76CAEFD0EF99225E125370
:102E9E00724F83550E00B377A30113530341AE97C0
:102EAE00B375A5018D8F41812310FE003303A3401E
:102EBE00C1873E93090E090FB25802566248D24E90
:102ECE0059B7835E0E00C1810905B39E7E01B3E53D
:102EDE00BE00835EE5FF090EBE9EB3F7A501F69711
:102EEE00231FF5FEC183E36E95FD3E937D188DB7CE
:102EFE004685628E81478145FDB703D70700F917D6
:102F0E00335677413317D7004D8E93150701239112
:102F1E00C700C1817DB57D172322E9004DBD7D1708
:102F2E002322EB0003274B00E30507DAB307D70094
:0C2F3E008607EE9783D70700FDD361BB28
:102F4A005C41144501478607B69763E9F6001C41C0
:102F5A00858B99C33307E0403A85828003D6E7FF21
:082F6A004207F917518FD5B79A
:102F720058411445814706073697216663EAE60001
:102F82001841058B19C3B307F0409CC105458280E7
:102F9200791763F8C70003580700C207B367F80040
:062FA200F1BF0145828031
:102FA800368799C13387C600832E8500032E4500D6
:102FB800054F014881489D4FB382C600631F0E002C
:102FC800BDCD3306D74036871C419305F00F858B5E
:102FD80091E381453A856FB0610283D70E004208BC
:102FE800C10833E80701032305001373130063C501
:102FF8001F01890E7D1ED9B793170801C183630B82
:10300800030093C7F7FF93F7F70FFA97C207C18337
:1030180013DF870093F7F70F81C91303F7FFA30F97
:10302800F7FE639966008280130317002300F700F8
:10303800630B5300E118135888001A876DB7B296CE
:083048003386E64051B7828097
:10305000797122D440414AD0B787224003298500A4
:103060004ECE83A9C790060426D206D6AA844A94D7
:1030700013050000636F89009C40858B81C7B707EB
:1030800000803D8DB250225492540259F24945615C
:103090008280CE85EF1082532AC60355E4FF79144F
:0C30A000EF101262B245EF00322BE9B7CE
:1030AC00397122DC404126DA4ED606DE4AD852D49B
:1030BC0056D25AD05ECE62CC66CA6AC86EC6B28987
:1030CC00BE8421E43E8505EE930700032300F50042
:1030DC00A30005000505058DF2506254D2544259E7
:1030EC00B259225A925A025BF24B624CD24C424D6C
:1030FC00B24D216182808509A30FF7FE3A8583C703
:10310C00090013071500E5FBC1B70604AA8A22853E
:10311C00368DBA8C2E8BEFD02F8B83A58A0022860E
:10312C00AA8BEFA05164A68D268A33898B001307D6
:10313C009003130D6DFC8D464A8401457914637B15
:10314C007407130505036373A7006A9513041A002B
:10315C002300AA00DE8763E22709638D0C008547F4
:10316C003306B4416317D60013042A00A3009A0156
:10317C00A28D9DCF5E85EFD06F89638809004E8547
:10318C00EFA0916E4E9563EFA90483A70A00858B7F
:10319C0091C79307D0022300F40005049307F4FFB2
:1031AC0026876368F70423000400330594402DB789
:1031BC00228A59B7035C04004205DA85336CAC00F3
:1031CC006285EFC03FE92310A400DA856285EFC069
:1031DC00FFEC8D461307900395B703D607000DE659
:1031EC00890795BF7D15834705000504A30FF4FEE1
:1031FC0059BF03C6070083460700FD172300C7000D
:10320C00A380D700050771BFE3840CFA814789BFFF
:10321C001C45584563F8E7001387170018C503C50C
:08322C00070082807D558280BD
:103234001C41411122C406C62A8481C74841EFC0FB
:0E3244007FFD22852244B24041016FC0BFFCD5
:10325200011122CC2A84414506CE2EC632C436C282
:10326200EFC03FF7B245224692464CC10CC5B73774
:103272002040B29514C14CC59387C7215CC0B737B3
:1032820020409387472308C01CC4F2406244056172
:02329200828038
:10329400184993077002630BF706930620028547CB
:1032A400630FD702930750076308F7009377F7FE7D
:1032B400930620066397D702544913067002854784
:1032C400638FC60013062002638BC6009307200792
:1032D4006319F70093072006638FF60081473E8544
:1032E4008280930620068147E31BD7FE54491307C7
:1032F4002007E396E6FE084D130770028547E300B6
:10330400E5FE1305E5FD93371500D1BF8547C1BF21
:103314001849411122C406C6A9472A84631AF7042E
:103324005C4D85075CCD85471CD05C4848401CC873
:103334001C4C5CC81C448297584808CCB547631A97
:10334400F700A9475CC86316F5001C4448408297FF
:1033540008CC1C4C7D576399E70058486306F70076
:10336400A9476303F7001CCCB24022444101828088
:10337400A5461C516314D7009D07E19B85076DB7D3
:10338400011122CC26CA4AC84EC652C456C25AC0DB
:1033940006CE2A842E8A0149FD59A944930A300293
:1033A400130BC0050848631D3501F24062444A8589
:1033B400D2444249B249224A924A024B0561828070
:1033C400631A950063040A001C54E5D322858937E7
:1033D4000549C9BFEFE0BF8A01C52285153FD9B7AA
:1033E4001C48639A5701228525371C48E38C37FB18
:1033F400E39B97FE45BFE39A67FB5C48E39797FA24
:0634040022853937D9BF13
:10340A005D71A2C46ECE86C6A6C2CAC04EDE52DCAA
:10341A0056DA5AD85ED662D466D26AD02324050414
:10342A008145AA8D993F03A7CD0103A40D0223ACC0
:10343A00ED0203A74D0223AE8D026357070099469A
:10344A0023A0DD04050731A015C7954623A0DD0496
:10345A007D1723A2ED02B640264496440649F25946
:10346A00625AD25A425BB25B225C925C025DF24DB6
:10347A006161828045C103A78D0249EF114703A606
:10348A000D0323A0ED043707008003A54D0313475E
:10349A00F7FFB306E6008606AA9683D606007D14D1
:1034AA00E30BD4FA63F8860483A5CD02636DB600F4
:1034BA00A1058605EFC0BFD303A7CD0223AAAD029B
:1034CA00210723A6ED0203A70D0383A64D031306C6
:1034DA0017000607369723A8CD022310870003A7F3
:1034EA004D028DB783A64D027D1623A8CD02FD1687
:1034FA0023A2DD0203A60D03B306E6008606AA96FA
:10350A0083D60600E360D4FE0947E306D4F423A079
:10351A00ED0491B703A40D017D576315E40023A0C0
:10352A000D0415BF6E859533AA89630A052823A061
:10353A000D04054BA94B930CC00513844D0403A736
:10354A000D0193065007630CD70A93062006631DE4
:10355A00D70083A64D0113072007CE846380E602B5
:10356A0005492D47814429A81306200701496319F3
:10357A00C70803A74D01CE846316D70809492D470A
:10358A0083A60D04D9E223A0ED04630909006E8520
:10359A00AD3B09476314E9006E85853B83A60D019F
:1035AA0013072002130970026394E600130920022C
:1035BA006E85A13B03A70D01054A631B270103A7DB
:1035CA004D016317E9006E8589336E853D3B0D4ACF
:1035DA00014CFD5A83A50D01638D551D63146A01C3
:1035EA006389751D63664C03E2852285EFD01FD778
:1035FA0085456E8559336E85493931F1A9BD05492D
:10360A0029478DB705492947A5BFE380E6F8A1B543
:10361A00631AB900CA852285050CEFD03FC56E85AD
:10362A00ED314DBF639E95176E85C53103AD0D0112
:10363A0081C89305C0052285EFD05FC3EA85F5A04E
:10364A0093062006630DDD1263E2A6079306E004E3
:10365A00630DDD0E63E5A603930620026306DD040F
:10366A00930670026302DD04014CE30A7DFB9305B5
:10367A000DFD9D46E3EFB6FA0D4C1D4DFDA0630509
:10368A009D03930610069D456308DD0A93065005BF
:10369A00E31FDDFC83A60D04AD47639AF604930588
:1036AA00C0052285EFD09FBCEA8579A09306400722
:1036BA006309DD0C63E0A6039306E0066305DD0CEF
:1036CA00930620076303DD0C93066006E311DDFA17
:1036DA00B1459DA093066007630BDD0AE36CDDFA32
:1036EA0013068007094CE314CDF8814525A8130673
:1036FA005007114CE30BCDFE214CC5BF6E852EC67B
:10370A00293103A70D013A853AC4EFE0EFDC6301E2
:10371A0005362247B2453A85139D4500EFE0AFE7EB
:10372A00B305AD007D1CE31B5CFD014CE38955EF3D
:10373A00B707110063FCF50603A70D04631B7705A1
:10374A002285EFD0BFB2014CD9BD3785224013057F
:10375A008595EF60F02E6E852EC4453EA24583A660
:10376A000D018E05938606FDB69583A64D019386B7
:10377A0006FDE36CDDFA7D1CE31F0CFC7DB7A14559
:10378A0065BFA54555BFA94545BFB54575B7AD4503
:10379A0065B79307F00F63EBB700AD476318F700FF
:1037AA0093F5F50F2285EFD0FFAA71BF23A06D050F
:1037BA0059BFE37B4CE30D4723A0ED0435B52285C1
:1037CA00EFE08FCD2A8403A50D0109E81307F00560
:1037DA006306E5001307F0076371A70A1D47138400
:1037EA004D049375F50F23A0ED042285EFD09FA613
:1037FA006E85213EFD541309F0059309F00703A5D0
:10380A000D01631195042285EFD05FA2B78422408F
:10381A00AA89938484990144130940028C404E85F5
:10382A00EFA0F10521E5350423A08D044147E314F7
:10383A00E4C237E72340832647143D47E38906CC91
:10384A003547F1B1EFE04FC511E903A50D01630753
:10385A00250163E5A900EFE02FC655D583C50D0103
:10386A002285EFD03F9F6E854D3451BFE34505BE9B
:10387A0005049104E31424FBF9BEEFE0EFC32DC95C
:10388A0083A50D011307E0026395E508254723A0E8
:10389A00ED0493844D042685EFD05F9D6E85B53483
:1038AA007D5A1309E002930AF005A549130BA004F7
:1038BA00930B500403A50D01E30F45B959E01377A3
:1038CA00F5FD6310770993055006268523A03D056B
:1038DA00EFD0DF996E85153C83A50D01138755FD41
:1038EA00759B69FB2685EFD07F986E85393CD9B7E1
:1038FA0083A60D011307E0026397E60003A54D01B5
:10390A00EFE08FBB35FD378422400149130404914F
:10391A00A5A8214723A0ED0413070003E39BE5F6BE
:10392A0003A44D01D946136404021307E4F90144C0
:10393A00E3E1E6F63724400005043354E400058841
:10394A0089BFEFE06FB501C983A50D016391250316
:10395A0023A03D0541BF03A50D01EFE0EFB56DF5CD
:10396A0003A70D01E30227FFE30157F9EDB413F7AB
:10397A00F5FDE31967F7E9BF9384D4F993F4D40FFB
:10398A0091E00504050905048344040089C403A7DA
:10399A000D01E31397FE6E858D3A99E0054785BEC2
:1039AA0013071002639DE40083A60D011307D003D9
:1039BA00E396E6FE6E85913A1307800389BE1307E4
:1039CA00E0026393E40203A70D016316970003A7BD
:1039DA004D01630597001307B00515BE6E85353294
:1039EA006E852532314725B60504CA869309300605
:1039FA00130A5006834404001387D4F91377D70FA8
:103A0A000DE30347140003A60D0105096319E60037
:103A1A006E85E538CA86638644010904E1BFE39EE0
:103A2A0034FF378722401307C796369703470700A4
:103A3A009306300523A0ED041376B70F6306D6006C
:103A4A00930650056318D70003A78D02050723A420
:103A5A00ED0211B49376D70F130640056386C600AC
:103A6A0093068005E319D79E03A78D027D17C5B774
:083A7A0023A06D058145C9B1CF
:103A8200011126CAAA841305400506CE22CC2EC6F1
:103A9200EFC02FF4B2452A84314604C11105EFA0CC
:103AA200214DF95785441CD0A9475CD444CC23222C
:103AB20004022324040204D85145EFC08FF1930578
:103AC200000248D813054404EFD0CFE45C582285A5
:103AD20023900700232C0400232A04002328040037
:103AE2000D3822853D3022852D302285313A5C5CAD
:103AF2006384970095473CC02285F2406244D244D9
:043B02000561828057
:103B0600797122D42A84480806D6EFF02FF44C089F
:103B160031460A85EFA081458A8522858537B250D0
:063B26002254456182807B
:103B2C00797122D4AA852A84480806D6EF804147A9
:103B3C002285EFD06FB22A844C0831460A85EFA05B
:103B4C0081428A852285053FB2502254456182808C
:103B5C000DC5411122C45C452A84484106C6829792
:103B6C0013054404EFD06FE24858EFC02FEA2285CA
:0C3B7C002244B24041016FC06FE982801A
:103B88001C495849FD171CC98A07BA97884382807F
:103B9800B7070040FD17B385B7401C49BE955C497F
:083BA8008A05BE958841828068
:103BB000011122CC405126CA4AC806CE4EC62A89D7
:103BC000AE8415C85C401840AE97637AF704A1052F
:103BD0000146BA952285EFC00FE41DED4C40014629
:103BE0002285A105EFC02FE35C401CC0832709029A
:103BF0005CC023208902C147A68963F3F400C14950
:103C000013858900EFC00FDD232035012322050035
:103C10002A842322A90221A01C40A6971CC0484048
:103C20002104F240AA94232E94FE22956244D244A9
:083C30004249B249056182809E
:103C3800411126C21C49AE844C4522C406C62A84BA
:103C480063EBB7004849C1058A05EFC06FDA5C44E9
:103C580048C8C1075CC41C485848B240938617003E
:103C680014C88A072244BA9784C3924441018280C7
:103C7800011126CA5C41AE840C4122CC06CE2A84AE
:103C880063EFB7000845C1058E0536C632C4EFC0DC
:103C98002FD61C40B2462246C10708C41CC0584053
:103CA8001C44370500FF930517000E074CC0BA9750
:103CB8008C43139784002183E98DD98D8CC3F240FE
:0E3CC8006244A381C700D4C3D2440561828048
:0C3CD6001C4D13F6F50F81468C5F61BF9A
:103CE200411122C4004D26C206C62C404AC09D473F
:103CF200AA846391F5022C446844EFD06F821205C6
:103D0200136525002244B2400249AA8526859244C1
:103D1200410115B7A1476399F5022C446844A28674
:103D22000146EF40905D937715002A8913651500CF
:103D3200F1FB005CB14526859D3D9307A01300C1B0
:103D42005CC1232425017DBFA547639BF5002C445C
:103D52006844228781460546EF40506E2A89D1BFCA
:103D6200938765FF05476366F7042C44A9476844B7
:103D720063EEB700EFC0DFFA3C40294719C9994505
:103D82006383E700A94512054D8DADBFEFC07FF1FA
:103D9200E5B7638BE70037A522401305451A304487
:103DA2006C44EFC030055DBF37A522401305C54402
:0A3DB200FDB7920513E5E500B1B777
:103DBC009307E00D630BF50013771500814701C7DE
:0E3DCC000585933715003E8582808547EDBF43
:103DDA009307E00F630BF50013771500814701C7BE
:0E3DEA000585B337A0003E8582808547EDBF7A
:103DF80013771500AA8711C7936715009CC105455D
:103E08008280014595CB13F737001DE783C647002D
:103E18001307A0036392E6029C479CC113F51700A1
:103E280001ED13F7370009EB8843B79722409387D2
:0A3E380087751D8D1335150082807B
:103E42005D71A2C4A6C2CAC056DA86C64EDE52DC74
:103E52005AD85ED662D49307D0022A84AE8A3289B7
:103E6200B684631AF60281453D3331C99377350032
:103E720099E703474500930720096302F704B64018
:103E8200264496440649F259625AD25A425BB25BC0
:103E9200225C6161828093072009631CF6048145DC
:103EA200DD39AA8909CD9377350091EB8347450027
:103EB200130750096390E7022285F131FD1493073D
:103EC20029FE93F7F70F05476364F710A689268A40
:103ED200794C3DA813076009E393E7FE228565311B
:103EE20083A7490093F707F093E7270923A2F90074
:103EF20079B793076009E314F6FC93841600C1B7FF
:103F0200631F890BD13D1DE55E85453D11E15A8A4E
:103F1200130BFAFF63800902FD19CE852285A539AC
:103F22001C485848AA8BB38747418A07BA9788C367
:103F3200E39809FC814963996909B384344185474F
:103F4200E38FF4F29307D9FD93F7F70F094A6376EB
:103F5200FA009307A0026313F9109385F4FF2285F8
:103F62001D394C08493D6303050C93073002D949BA
:103F7200630EF90093074002DD496309F9009307D4
:103F82005002E1496304F90093092002138AE4FF15
:103F9200130B200263570A06639D041ED24493F753
:103FA200140093E51400A1EBB14522850931930772
:103FB200A013AA85232005005CC104C52DA8F53BEA
:103FC20035F95E85113D99B72285753E8509A5B7FC
:103FD20093070002E318F9F6814522856D3EAA890E
:103FE200E93B09ED4E85CD3B9305E00D21DD2285B0
:103FF2002EC6513EB24522853D3951B59305E00F9B
:10400200FDB7D2852285413E2C08F53305C1638A6E
:1040120069016246D2454E857D1AEF5090702ACAD8
:1040220095BF6245EFA0C00EE35505FE93852400BF
:104032008A052285AD3E93978400B3E72701AA89BA
:10404200232055015CC1639A041493076009631528
:10405200F900CE852285C536CE8571BF9307A9FDAD
:1040620093F7F70F6365FA069385F4FF22852536E9
:104072004C08513345DD138AE4FF130B1004E94B5E
:10408200794CE35B40F19305FAFF228529362C082F
:104092009D3349DDD2852285FD3C11819377D5FF81
:1040A200E38667F99309D5FD6245EFA0600663ECEC
:1040B2003B01E34D05F66246D2454E85791AEF5033
:1040C20050662ACA7DBFE3783CFF75F585B7930732
:1040D20090026319F90281452285753C4C08213B07
:1040E20031D585452285453C93574500130720036A
:1040F20009456384E700138527FCD245EF50803BD6
:104102002ACA59BD9307C002E312F9F285452285F6
:1041120059349377F500AA89E39A47F181452285BC
:104122009D3CE30505F093773500E39107F00347E3
:10413200450093072003E31BF7EE93D54900032ABA
:1041420085008E0537852240014693E5250013053B
:1041520085A2EF60A034E30B05EC4841300893558B
:104162004A00EF50E007E247E38207EC13F717003B
:1041720001EF13F73700E31B07EA94433797224016
:1041820013078775E394E6EA7247E31107EA3ECA2A
:1041920021B52285CD3AFD1401B52285ED32FD14FB
:0A41A20093972400CE9788C779BDDB
:1041AC00184109E7232006000145828093773700E8
:1041BC0081C708C2054582805C4393F6F70FE39AEA
:0C41CC00B6FE210718C213D587008280C0
:1041D80075719307000426C3AA841305002006C737
:1041E800DAD83ED42E8B22C54AC1CEDED2DCD6DA4E
:1041F800DED6E2D4E6D2EAD0EECE02D6EFB01FFD8C
:104208002AD893070002130500083EDA02DCEFB053
:10421800FFFB2ADEA6C082C482C61306D003630849
:104228000B0089471306F0036303FB0001468C5C0F
:1042380081462810353CB7070001FD173EC6B787F1
:104248002240938787A6B78B22403EC8378C2240EE
:1042580093870BEA3ECA93078CB1014D3ECCB25707
:10426800638D072A4257FD173ED68E073E97032ACD
:104278000700B247834B3700032C4700337AFA0014
:10428800C24733877701D2478349070033877701CD
:10429800034907001307300663747701136909108F
:1042A800E247060913F70903C1463E9913F4F900DA
:1042B8006305D704930600026302D70A631C0D1E28
:1042C800FD7C856A33778401058B93161700CA969F
:1042D80083DD0600050CB3F59D016395552393878F
:1042E800FAFFB3FDFD00BC406396B71D19E3281023
:1042F800ED322685EFF0EF90F1B7631B0C00131732
:104308001C003A99FD75856663688C00054D81BF70
:10431800E3170DFE014DA1B7035709003375B70028
:10432800631FD5001385F6FF698FA8400909631537
:10433800E50228105D322685EFF0AF8CE1BF9306C9
:104348001C0063F686005E86D285281015328355D8
:1043580009002810AD3A7DBF050C7DB7630F0D002D
:1043680013171C004A970357E7FFFD76758F8D6674
:104378006319D704814528106538931A1C00CA9A16
:104388007D7D856C9D4D63688C0663060B029547A1
:104398006393FB0281452810EFF08FFF09ED8545F7
:1043A8002810EFF0EFFE937735006389071E3D89EB
:1043B8008947631DF51E814A814CFD7D056D1D4CA5
:1043C80071A80547E37487F5BC4015473795224027
:1043D8006395E71AB7852240938545A41305C5E37D
:1043E800EF80502B905C8C4081462A84EF80B0414E
:1043F8002285EFB09FDB03D70A00B376A701639548
:1044080096039386FCFF758FB440639CE600639423
:10441800B6012810D9302685EFE0BFFE050C890AC1
:104428009DB7E3050CEE4DB7D28593061C005E865A
:1044380028103D3883D50A0029BF7D14931714002E
:10444800CA9783D70700B3F6B7016392A60393060A
:10445800FDFFF58F63948701850A850C79FC8547F4
:10446800639DFC0293F709048DCB81450DA0D68589
:104478002810EFF0EFF111C1850C850AC5B7281097
:104488002ECEEFF0EFEFF24511C1AA850504E3182F
:1044980054FF2810EFF0CFF9B5BDE20993D989414F
:1044A80063D7090081452810EFF08FF8850AD68672
:1044B8005E8629A20947631CE4020547E308ECE489
:1044C800014793F919009306FCFF638B0900835594
:1044D80029007D75E98D05656394A50093561C0038
:1044E8008547E397F6FCE30707E28546D1B705471A
:1044F800E30EECE013771C0061D70D47E316E4ECFC
:104508000547C1B7D2852810E2865E86EFF04FF6E0
:10451800EE852810EFF0AFFB99B3364501CD4C413D
:104528000146A105EFB0BFCEB647D84398C326478A
:10453800D8C3BEC4BC40E39907E8E257E38607E85E
:10454800F25742559C43BEC2EFB09FCC7255EFB0B4
:104558003FCC2685EFF00FE0BA402A441645A64521
:104568009A440A49F659665AD65A465BB65B265C9F
:10457800965C065DF64D4961828009476397E700BE
:10458800B7852240938585A491BDB785224037958C
:104598002240938545A61305851499B5E30D05E0DA
:1045A800034745009307A003E317F7E02810EFF04F
:1045B8002FDD2810EFF0CFDC81462146D285281068
:0445C800AD3889BBC6
:1045CC00484111E18280411106C622C44041EFB03E
:0E45DC00FFC3228565FCB2402244410182806B
:1045EA00011126CAAA841305000322CC4AC82EC682
:1045FA0032C406CE3689EFB07FBFB245224604C127
:10460A004CC5231AC5009D472A846385F400854753
:10461A00639CF4029C459183C207C183231BF40067
:10462A00EF40F016914708C8231D24012314F40211
:10463A0013050002EFB07FB948D4F24022856244E4
:10464A00D24442490561828037852240130505F527
:08465A00269583470500D9B73E
:10466200411122C42A84485506C6EFB0DFBA22851A
:0A4672002244B24041016FB01FBAAC
:10467C000356A502814663E5C60081473E858280CC
:10468C00585593973600BA97D843E309B7FE850679
:02469C00DDB788
:10469E00411122C426C24AC006C62A84AE8432897B
:1046AE00F93731E1835584028357A40263EDB700D5
:1046BE00485499058E05EFB05FB38357840248D4F2
:1046CE0099072314F4028357A40248541387170042
:1046DE008E072315E4023E9523002501A300050055
:1046EE002311050044C1B2402244924402494101C3
:0246FE008280B8
:0A4700005C4191E3A5BF3E85E5BFD3
:10470A00011122CC404106CE26CA4AC84EC619EC2F
:10471A00F2406244D2444249B249056182800D475F
:10472A00E398E7FE91472300F500DDB72E89A287BB
:10473A00C443F9DC832949003E85CE851D3FA687FF
:10474A0065D9834705000947F51793F7F70FE36122
:10475A00F7FC95472300F90095440146CE8522854A
:10476A00153F83470500C5FF230095004040F5B774
:10477A00A9C993F73500A1E7DC4113F7F70F6310D6
:10478A00C704011122CC26CA4AC84EC652C406CE54
:10479A00B6842A8993D9870013848500014A634A1B
:1047AA003A01F2406244D2444249B249224A05617E
:1047BA0082800C404A85050A82941104CDB736835B
:0447CA000283828064
:1047CE008C45B75620409386E6691306D00979BF0B
:1047DE008C45B7762040938686621306B00679B76D
:1047EE00411122C42A842E85B285104006C6FD339F
:1047FE005C50232405005CC11C5099E708D0B240E0
:10480E00224441018280BA87984775FF88C7C5BF89
:0C481E008C450855014691816F307017E1
:08482A008C4508556F30F00FBA
:10483200397122DC26DA5AD006DE4AD84ED652D454
:1048420056D25ECE62CCAA842E84328B368799C62B
:1048520083D7850193E78700239CF500DC50231062
:1048620064039C43DDE3A28562548854F250D2541F
:104872004259B259225A925AF24B624C5A86025B00
:10488200BA8621616F30F035DC5713193A003E9930
:1048920083470900F11793F7F70F63EFFB02814A91
:1048A20005A8545493973A00B69783C607006390BD
:1048B200860383254900DC43639BF50003562900E8
:1048C200885481463AC6EF30C05132478509850A7D
:1048D2008357A402E3C7FAFC050ADC5083D6A70279
:1048E200E344DAFAE38109F8A28562548854F2506B
:1048F200D2544259225A925AF24B624CDA864E866E
:10490200025BB25921616F30702F014A8149854B98
:04491200154CE1B7A8
:10491600011122CC4AC84EC606CE26CAAE89B28539
:104926003686B76620408344650003294501230384
:104936000500232A05009386E6F82A84253D1C44B3
:104946009DEB8355640199C98357440181EB085453
:104956000146EF3050220854EF30C07F83564401A1
:1049660003566401CE852285B3349000C1352303F6
:104976009400232A2401F2406244D2444249B249B7
:0449860005618280C5
:10498A00411122C426C206C6034755008547AA8498
:10499A002E846319F7005C512E86894583D6A701B8
:1049AA00913508C810440C482244B24026859244E6
:0849BA009306C004410199BFFE
:1049C200411122C44AC006C626C203475500854784
:1049D2002A892E846317F700B2862E869D453935C3
:1049E20008CC044C50444A85A685930660041D37C2
:1049F200B240224403D564010249924441018280BB
:104A0200411122C42A84085506C6EF30300A835762
:104A1200C40158508507C20783566702C183231E0B
:104A2200F40063F4F6002313F702B240224441017A
:024A3200828080
:104A34008357C501FD17231EF50008556F30100B71
:104A440081C9184193F73500D98F99E39C411CC162
:024A540082805E
:104A56001C459DE7411122C42A843795224026C26F
:104A660013058514AE84B28506C6EF80C04208C41D
:104A76001305C4002244B240A68592444101C1B741
:024A860082802C
:0A4A8800378622401306C610D9B786
:104A920003C74500411122C406C626C2A5472A847F
:104AA200631BF70283548501C167FD176398F40005
:104AB20037862240130606FA2285693F0356C4014F
:104AC2008357E40108542244B240A68592441D8EC5
:0C4AD20041016F3080758354A501F9B7D5
:104ADE005851035887019377280085C337862240A3
:104AEE001306C60F11A8378622401306C60F22449E
:104AFE00B24092440249410181BF411106C622C40F
:104B0E0026C24AC093F7F50089486394170593D7D8
:104B1E0045008346650099C68356E7018506231F27
:104B2E00D70031A08356C7018506231ED70005493D
:104B3E00A5CF2E84AA84BE8501463A85913E834731
:104B4E000500B1CF3786224013060610A2852685B2
:104B5E0079BF83C745006395C7009C45918355BFB8
:104B6E006397D70283476500BDFF85472303F50092
:104B7E009C459DCB1368480093F6F700231C070154
:104B8E006395160191830D4965B79C47E5BF9C451A
:104B9E0013682800231C07019183154951BF8D47C7
:104BAE002300F500A3002501B2402244924402499D
:044BBE0041018280AF
:0A4BC2009306F0041306E00411BF8F
:0A4BCC00930690041306800429B735
:104BD600411122C42A840841814506C6EF3060711E
:104BE6000840B945EF30604408402244B24085454C
:064BF60041016F30B00820
:104BFC00411122C42A840855014606C6EF30A0553F
:104C0C000854814601468145EF3050031305840258
:084C1C002244B240410155BFE2
:104C2400AA8703C657000547AE8648516314E600B9
:104C34000546A5B42A868857B7852240938505166C
:044C44006F2050513C
:104C4800AA875051034555000547AE866315E50010
:104C580032856F20304D8857B78522409385851659
:044C68006F20104F5A
:104C6C005C51411122C403D6A70106C62A84A13384
:0C4C7C00AA8522852244B2404101C9B73C
:104C8800AA875051034555000547AE866315E500D0
:104C980032856F2030498857B7852240938585151E
:044CA8006F20104B1E
:104CAC00D5C9011122CC26CA06CE93F71500AA84C9
:104CBC002E8491CB08558585EF30E03AF240624462
:104CCC00D2440561828093F73500BDC313F4F5001F
:104CDC00194793D74500630BE4002947630DE400A3
:104CEC000947631FE402BE85053FC9BF0855BE8551
:104CFC00EF308042E1B78346550011476387E600E9
:104D0C0008559945EF30C04155BF6C003E85EFC04A
:104D1C000F99B2458054EFB0906BAA852285DDB710
:104D2C001147E38DE7F80855BE85EF30A02F79B712
:104D3C008C410855EF30801B83474400A2852685A3
:104D4C0013972700B7872240938787FDBA979C4318
:064D5C008297ADB78280D2
:104D6200011122CC5AC006CE26CA4AC84EC652C427
:104D720056C213F735002A84328B1DCF13F7F50084
:104D82008946631BD704918119C2631DE6002285FF
:104D92006244F240D2444249B249224A924A024B08
:104DA200056155B56244F240D2444249B249224AB1
:104DB200924A024B0561B5B5D4411308D00213F7EC
:104DC200F60F63040715636EE80019466303C70212
:104DD2009306C0026307D70237862240130686F580
:104DE20011AA1308E002630A07151306D009E31596
:104DF200C7FEE3130BFE1386850093D5860022853A
:104E020091A289472E8A6304FB008C45793D0329D0
:104E1200CA00630C090C93773900E1EB8324490043
:104E22009307E008CA8913F7F40F6310F702A18011
:104E32008947FD146307FB00930A8900814963CF08
:104E420099028A04CA9483A9840003C7490093077C
:104E520010036319F70489476319FB020854EF3002
:104E6200C036854508546244F240D2444249B249B0
:104E7200224A924A024B05616F30A03583A50A008F
:104E8200228585091D35910A5DBF83A5890022858A
:104E9200293D854708548545E317FBFCEF30602E1A
:104EA2008145C9B7930720036311F7048547085466
:104EB2006314FB02EF30602C83A58900014608547D
:104EC2006244F240D2444249B249224A924A024BD7
:104ED200918105616F30602C89476314FB00EF30CC
:104EE200402B83A589000546D9BF37862240130689
:104EF20086F5D28522856244F240D2444249B249C3
:104F0200224A924A024B0561B1B69045E30606EC8D
:104F1200E3140BEC5C420947A183639DE70058460A
:104F220011CB9376370099E6834647001307C00AF0
:104F3200E384E6EA2106BE85D9B5E31F06E89C456F
:104F420089EF81456244F240D2444249B249224A41
:104F5200924A024B05616F00000213F7370001EB22
:104F620003C747003E8693072009E305F7FA138635
:064F72008500854569B5CC
:104F7800797122D426D24AD04ECE52CC56CA5AC8BB
:104F88005EC606D6AA842E89328A0144FD59930A40
:104F980020027D5B938BF5FF63172403FD5763960F
:104FA800F9008854CA85EF30C041014463142407CE
:104FB800B250225492540259F249624AD24A424BA0
:104FC800B24B4561828093172400D2978C438DC1E0
:104FD80093F7350091EF83C74500639B5701639BA7
:104FE8006901885433868B40A285EF30203EA28920
:104FF80005045DB72254B2500259F249624AD24AB6
:10500800424BB24B2685925437862240130646F609
:10501800456135BC93172400D2978C4301466393AE
:0C50280089008C452685153B050449B71E
:10503400797122D426D24ECE52CC56CA5AC85EC6F4
:1050440006D64AD062C4AA892E84B284368AF94A22
:105054007D4B930B00022285EFE01FD619C1B9E402
:1050640031A02285EFE03FD715C1A9C0225403A582
:105074008902B25092540259F249D24A424BB24B7D
:10508400224CD285624A45616F30601769C09377BC
:105094003400D5EF5C4013D9870093F7F70F63937F
:1050A4005705A1C40A09229963172403B250225454
:1050B40092540259F249624AD24A424BB24B224CB0
:1050C4004561828083A50B00D68662864E858D3726
:1050D400050B910B3DA00C44D28626864E85893F54
:1050E4001104D9B763986705D5DC83AA0901930B2A
:1050F4008400014B93871A0023A8F9007D1913CC6F
:105104001400E3412BFD0A094A940C444E85D286CF
:105114002686393F225403A58902B250925402597B
:10512400F249624A424BB24B224CD685D24A45617F
:105134006F20106A6396770193C41400004421BF62
:105144001307D0026395E7001C4485F309BFA285C9
:105154004E85993E225403A58902B2500259F24960
:10516400D24A424BB24B224C5286A685624A925492
:0651740045616F30600987
:10517A0001114AC80329050106CE22CC930729004A
:10518A0026CA4EC652C456C25AC01CC92A840855D9
:10519A00AE84CA85328AB689EF2030630854130B6D
:1051AA001900DA85EF3080158C44014622856D3668
:1051BA008448930AD00AB1E8D2852285DD345C504E
:1051CA0008548C439947639CF5028145EF30C02A05
:1051DA000854EF20107B0854CA85EF30E0010854C8
:1051EA00DA85EF20905E08546244F240D244424984
:1051FA00B249224A924A024B05616F30C010139697
:10520A0029001506EF300019F9B783C744006399DE
:10521A0057018C44CA8601462285013DC44461BFB8
:10522A00CC442285BD3C08548545EF30400C93861A
:0C523A0019005286A6852285253F71BF11
:10524600011122CC4AC84EC606CE26CA52C42E89A1
:10525600A302C5002A842322250323280500085516
:10526600B2854A86EF20D00483495400854763946B
:10527600F900232209028324C9008DC093F7340064
:1052860091EF03C744009307F0036319F7008C44BA
:105296002285113C0854EF30A01BA9A083270900E2
:1052A60089EBA685228501340854B945EF20F057CD
:1052B600D5B71D476392E7048547639EF90023032C
:1052C6000400CC44B75620409386C6BC130660043F
:1052D6002285EFF02FCACC482285F1320854EF2000
:1052E600102479D108546244F240D2444249B2496A
:1052F600224A05616F20301709476392E7048C4004
:105306000854EF20103F034754008547631EF700FB
:10531600230304008C44B7562040938626BC13060C
:10532600C0042285EFF00FC5CC442285AD3A8357E1
:105336008901858BA5D30854EF20F064B5B7F5171E
:105346000D476368F708854703AAC4006399F90007
:1053560048500D468545EFF02FB4231E39018C4089
:105366000854EF201039832709000D470546638A44
:10537600E700114709466386E70015476397E7008C
:105386000D4608548145EF20107F032709009947F1
:105396006319F7020854EF20F05B854522854130FA
:1053A6000854EF20305B0854EF20D05A90448146D1
:1053B600D2852285C133032709009947E31CF7EC00
:1053C600E5B522858545A13808548545EF207072DC
:1053D600F1BF85476397F9000D46A9454A85EFF069
:1053E600AFABDD4522852538D945228599388C44D1
:1053F60008549181EF20B052E945228599308C48B6
:1054060022855530A9454A85EFF0EFA6834605006B
:105416000D47AA8708546394E600B94541BD03D6F3
:0C54260027008146A945EF20901BADB582
:10543200411122C426C24AC006C613F7F5008947A5
:105442002A842E89B2846308F70037862240130625
:1054520086F5EFF02FE0A685228581380854EF20EB
:10546200D05144500D479C40F5176364F700DC406F
:105472005CD0935549002285EFF0EFFCB24044D056
:0A5482002244924402494101828055
:06548C00D0458C454DB730
:10549200411122C42E84CC4526C206C6AA843130CC
:1054A2000C442244B2402685924441016FF0EFFF42
:1054B20003C74500411122C426C206C69307400312
:1054C2002A84AE84631FF7008C45EFF00FFEC444BC
:1054D200844489EC0854B945EF207035114689455A
:1054E20015A80855B945EF209034DDB793F734007D
:1054F200A1E783C744001307A0096394E702085495
:10550200B945EF20D0328C44F1D92285EFF0EFF982
:1055120011468D4508542244B240924441016F2005
:10552200D0651307B0096399E7008C442285EFF038
:10553200CFF7DC448C47C9BFA6852285EFF0EFF692
:0255420071BF37
:105544008C45411122C406C62A84EFF0EFF50854B5
:0C5554002244B240814541016F20904785
:1055600001114AC80329050122CC26CA52C456C2D9
:105570005AC006CE4EC6930729001CC98357C501E1
:10558000130A1900032B8501835AE5012A84231C81
:105590002501231D4501231FF5008845AE84EFE05A
:1055A000FF811DED83290401938719001CC88844DD
:1055B000EFE0BF8209E50854D285EF2090440854FB
:1055C000CE85EF203021CC442285EFF02FEE085419
:1055D000D285EF2030208C44CE8605462285993C2A
:1055E0008C48232C6401231F54012285EFF00FEC1B
:1055F00008546244F240D244B249224A924A024BD1
:0A560000CA85424905616F20F01CC5
:10560A008C45411122C406C62A84EFF08FE908545A
:0A561A002244B24041016F20D03657
:10562400011126CA844522CC06CE4AC84EC62A8415
:1056340091EC0855B945EF20701F08546244F240BC
:10564400D2444249B24905616F20B06093F73400F7
:10565400B9E303C74400ED47631FF70203290501BB
:1056640083A9C4000146930719001CC983A58900B6
:10567400CA867D3A8C442285EFF00FE30854EF206C
:10568400505D0854CA85EF20B01483A5C900228553
:0A569400EFF08FE15DB7A685DDBFE2
:10569E00011122CC06CE26CA4AC84EC652C456C2E4
:1056AE0093F7F50009472E84639DE7006244F240AC
:1056BE00D2444249B249224A924A918105616FF021
:1056CE00CFDBAA896380051093F73500639C070E24
:1056DE0083C745009306C0026391D70A8C45EFF04D
:1056EE000FDC0329C400630F090C93773900F9EB23
:1056FE00832449001307E008CA8793F6F40F639CCE
:10570E00E600A180930A8900014AFD14634C9A02B7
:10571E008A04CA949C4403C7470093061003631B74
:10572E00D7028C474E85EFF08FD7624403A58902CE
:10573E00F240D2444249B249224A924A8945056111
:10574E006F20702883A50A004E85050AEFF02FD52D
:10575E00910A6DBF930620036316D7068C476244E9
:10576E0003A58902F240D2444249B249224A924AE2
:10577E000946918105616F2090219306D0026393B3
:10578E00D704804521C05C40A1836382E7021309E0
:10579E00840081445C40A18363E6F404F2406244D9
:1057AE00D2444249B249224A924A056182805C44FF
:1057BE00F9DF13F7370061FF03C747009307C00AED
:1057CE00E317F7FCA2856244F240D2444249224AD2
:1057DE00924A4E85B249378622401306C6F60561B7
:1057EE006FF08FA6832509004E8585045535110966
:0257FE0055B79D
:10580000011126CAC4414AC822CCA18013992400A0
:105810004EC606CEAA892E842E99631E24016244A8
:1058200003A58902F2404249B249A685D244014605
:1058300005616F20B0340C444E851104EFF00FC7A2
:02584000E9BFBE
:1058420001114AC803A9450022CC26CA4EC652C439
:1058520006CE2A8AAE8413598900938985000144B1
:10586200634A2401F2406244D2444249B249224A84
:105872000561828083A5090052859109EFF0EFC28C
:1058820083278A0099CF0A0426940C446244F2408A
:10589200D2444249B2491305CA00224A05616FF057
:0658A2004F9A050475BFDA
:1058A800411122C406C62A84493F08542244B24002
:0A58B8009305200241016F20D02665
:1058C20079714AD00329050122D426D206D64ECEBA
:1058D20052CC56CA5AC8930719001CC92A84884553
:1058E200AE84EFE08FCD21E58329040101462285B4
:1058F200938719001CC88C44CE86EFF08FF3CC44FA
:105902002285EFF08FBA8844EFE00FCD21E19C4869
:1059120099E3DC4889CB0854EF20A04009E50854FC
:10592200CA85EF20F00D0854CE85EF20806A700002
:105932009305100713850401EFE03F872A8B814905
:1059420063946903CC482285EFF02FB60854CA85C8
:10595200EF202068B250225492540259F249624A0E
:10596200D24A424B45618280324793972900BA97C7
:1059720003AA070003258A00EFE02FC439E1832A36
