:0200000440209A
:1000000097E20200938202B417E303001303C307CD
:1000100063D6620023A002009102DDBF6FC0B1026F
:10002000411106C622C4AA8873000000B2402244CF
:1000300041018280130605001305000093F61500A8
:10004000638406003305C50093D51500131616000A
:10005000E39605FE678000006340050663C605065B
:1000600013860500930505001305F0FF630C0602D7
:1000700093061000637AB6006358C000131616008A
:1000800093961600E36AB6FE1305000063E6C5000A
:10009000B385C5403365D50093D6160013561600B8
:1000A000E39606FE6780000093820000EFF05FFB9E
:1000B00013850500678002003305A04063D8050062
:1000C000B305B0406FF0DFF9B305B0409382000094
:1000D000EFF01FF93305A040678002009382000013
:1000E00063CA0500634C0500EFF09FF71385050018
:1000F00067800200B305B040E35805FE3305A04019
:10010000EFF01FF63305B040678002002320150092
:100110002322850023249500232625012328350149
:10012000232A4501232C5501232E65012320750325
:1001300023228503232495032326A5032328B5031F
:10014000232A250213050000678000008320050094
:1001500003244500832485000329C5008329050164
:10016000032A4501832A8501032BC501832B050240
:10017000032C4502832C8502032DC502832D050324
:100180000321450313B515003305B5006780000052
:10019000B7E72340938747D7D84718C1C8C7014559
:0201A00082805B
:1001A200B7E72340938747D7D8471843D8C78280F9
:1001B20037E72340130747D75C47411106C699E347
:1001C200EFC0D1099443C8C3854554C7138587003E
:0201D200AD3F3F
:1001D4004111814522C406C62A84A92109E501C426
:0E01E4002285EF904028B240224441018280E3
:0401F200814515A985
:0201F600F9BF4F
:1001F8004111054622C406C62E84AD2509E501C471
:0E0208002285EF900026B24022444101828000
:0202160099ADA0
:020218008DA3B4
:10021A00814837E62340130646D709480D43054E61
:10022A00930EF0039DA82324C61D7D17110531CF17
:10023A001C4193F6F700F5FA8326061CE3E7D7FE7E
:10024A008325461CE3F3B7FE958F93DF4700998316
:10025A008326861BB69703CF070093F63F008606D0
:10026A00B355DF408D89E392C5FDB316D300B3E6DB
:10027A00E6012380D700E3E81EFB938708078A0775
:10028A00B29723A6F70185084DB763840804FD18C1
:10029A00938708078A07B297C8478325861B814632
:1002AA008506B307D50013D727002E970347070003
:1002BA008D8B8607B357F7408D8BE38307FF1205B3
:1002CA008327061C3E95920613D72600E362D3F6CF
:0402DA006DBF8280F2
:1002DE00411106C622C426C24AC0AA8413F905FFDC
:1002EE00930510043305A940AD332A8637E4234025
:1002FE00130444D7232EA41A232C941A93176500A3
:10030E00B307F9402320F41C2322241D81452685A2
:10031E00EFC0D1792328042C2316042C85472317EC
:0E032E00F42CB24022449244024941018280E4
:10033C00B7E72340938747D703D7C72C05072396E6
:04034C00E72C828098
:10035000B7E72340938747D703D7C72C7D1723964A
:04036000E72C828084
:0E036400B7E7234003D507043335A00082809D
:10037200D1C1011106CE22CC26CA4AC84EC652C4E9
:100382002A848A05B304B50037E92340130949D703
:1003920085490D4A21A01104630694041C4013F7F9
:1003A200F70075FB0327091CE3E7E7FE8326491CD8
:1003B200E3F3D7FE998F13D5470099830327891B4F
:1003C200BA9703C60700137735000607B356E6400F
:1003D2008D8AE39236FD3317EA00518F2380E700BE
:1003E200253D55BFF2406244D2444249B249224AB5
:0603F2000561828082809B
:1003F800411106C6B7E72340938747D703D7C72CD1
:1004080005072396E72C23A4071C9305900637E5D8
:0E0418002340130585D7913FB24041018280F9
:10042600411106C622C426C24AC037E4234013043B
:1004360044D70D498327841CA9C32324041C83277E
:10044600C41B8A07E5DB814409A82685E1338504B8
:100456008327C41B8A07E3FFF4FC93D724000327F2
:10046600841BBA9783C7070013F734000607B3D770
:10047600E7408D8BE39D27FDC9BF37E72340032760
:1004860007F30A073DCBBE88014637E5234013052F
:1004960045D7894E0D4E0543BE8515A0638B0800D2
:1004A600B317FE0093C7F7FFB3F707012300F70062
:1004B6009A8805068327C51B8A076370F6041357B7
:1004C60026008327851B3E9703480700937736004F
:1004D6008607B356F8408D8AE382D6FD6385C6014A
:1004E600E39966FC75BFB397FE0093C7F7FFB3F7B2
:1004F60007012300F700AE886DBFB7E72340938757
:1005060047D723A8072C03D7C72C7D172396E72C9C
:0C051600B240224492440249410182801C
:10052200B7E72340938747D703A7471C83A7071C36
:10053200B307F7401CC1232205002324050023260C
:10054200050023280500232A0500232C0500014E5F
:100552008145014737E82340130848D785480943B6
:100562002DA81445850614C5050EBE8589A85441DB
:10057200850654C1BE85A1A05441850654C1850596
:100582003DA86385150763876506104D6373B60042
:100592000CCD6385E606638F1707935727008326E2
:1005A200881BB69783C70700937637008606B3D7B2
:1005B200D7408D8BE38D17FBCDD7E38F67FA050705
:1005C2008326C81B8A06E38EE6FA93572700032682
:1005D200881BB29703C60700937737008607335606
:1005E200F64093773600098A4DFA61BF1049050635
:1005F20010C961BF5049050650C941BF5C4563F44B
:10060200C7012326C5015C4192075CC11C459207C4
:100612001CC582805C4563E4C701014EBDBF232631
:06062200C501014E9DBF61
:10062800411106C622C426C24AC03D0513544500DE
:10063800630D0412B7E7234083D7070463990712B1
:10064800B7E7234083D7270413B81700B7E423403C
:10065800938444D7054903A7042D03A5C41B6376D7
:10066800A70E83A5841B014699A0014693F6C700EF
:1006780099E60506636686000A070507A1A00146F4
:1006880093F6070399E60506636686000A070907D5
:1006980015A8014693F7070C99E7050663668600D7
:1006A8000A070D0705A0014605076300A70AB387D7
:1006B800E50083C7070093F63700C5FA0506E36728
:1006C80086FA0A07B306C7401384160085476306EF
:1006D800F60893572400BE959377340013951700B6
:1006E8008547B397A70003C50500C98F2380F50088
:1006F80089066369D70237E82340130848D7894831
:1007080093D726008325881BBE9593F73600860766
:10071800B397F80003C50500C98F2380F500850647
:10072800E370D7FE9317440037E72340032447F3C9
:100738003E94120681452285EFC0B1372285B2402A
:100748002244924402494101828063040800014422
:10075800F5B7EFC0C12D4A88FDBD930717008983FF
:1007680037E523402322F504ADB70144C1BF014456
:02077800F1B7D7
:10077A00B7E7234083D70704BDEB35C9B7E7234062
:10078A00938747D703A7071C198D1357450019816B
:10079A0083A7072D6376F500B7E7234023A2A704B2
:1007AA0037E62340130646D70D48094593572700D5
:1007BA008326861BBE96937737008607B317F80001
:1007CA0093C7F7FF83C50600ED8F2380F600050760
:1007DA00935627008327861BB69783C7070093760D
:1007EA0037008606B3D7D7408D8BE381A7FC82807A
:1007FA00AA871377F50025E737E72340032747F34E
:10080A00014563EFE704B7E6234083A686F363F95D
:10081A00D704998F13D6470037E723408326C7F2B8
:10082A009983B69783C70700137736000607B3D7AD
:10083A00E7408D8B05476395E70289450505B307B0
:10084A00A60013D727003697034707008D8B860724
:10085A00B357F7408D8BE383B7FE120582800145BB
:02086A0082808A
:10086C00411106C622C426C24AC02A842E8541CC18
:10087C00D9CDB7E7234083D7070463990714B7E7AB
:10088C002340938747D703A7071C3307E440118302
:10089C009386F500918203A3C71B0A0393051700E7
:1008AC0063F06508B7E7234083AEC7F285448148FF
:1008BC00094E93D72500F69783C7070013F8350028
:1008CC000608B3D707418D8B6387C70591E7850869
:1008DC00B387980063E2D7042289638A960E63E497
:1008EC009604A69863FDD80801496302060E81455B
:1008FC0035332A8969CD13964400A285EFC01112B5
:10090C002285B535E9A08145113B2A89C9A02285EC
:10091C00B93D01496DA885048505E31CB3F86DBF8D
:10092C008544814855BF3306D7003305970032877D
:10093C0037E82340130848D78D4893572700832660
:10094C00881BBE96937737008607B397F80093C73A
:10095C00F7FF83C50600ED8F2380F6000507E31E25
:10096C00E5FC93562600B7E7234083A7470422896A
:10097C0063FFF604B7E7234023A2D70489A8330604
:10098C00970036976379E60237E82340130848D777
:10099C008948935726008325881BBE95937736008C
:1009AC008607B397F80003C50500C98F2380F500AF
:1009BC000506E310E6FE33869640139544001206B6
:1009CC0081452295EFC0B10E228911A001494A85BB
:0C09DC00B2402244924402494101828052
:1009E800797106D622D448000D3E3247A2461246F7
:1009F800B75522409385C513377422401305C4495F
:100A0800EF10601BC2477247E2465246B755224074
:100A1800938505161305C449EF10E019B250225406
:040A28004561828022
:100A2C00011106CE22CC26CA4AC84EC652C456C2A2
:100A3C0037E42340130444D70326041CB755224043
:100A4C009385450F377522401305C549EF10601685
:100A5C00832AC41B8A0A63800A1C0144B7E423401E
:100A6C00938444D737A922401309C933B79922403C
:100A7C0093898952378A2240130A8A74D1A06379E8
:100A8C00540703A6841B93572400B29783C707000F
:100A9C00137734000607B3D7E7408D8BB1EB228771
:100AAC000507630F570193572700B29783C70700B9
:100ABC00937637008606B3D7D7408D8BF5D3BA8A99
:100ACC0033868A409307F00763F4C7021982B7553F
:100ADC00224093850511377522401305C549EF1047
:100AEC00400D13F40AFC83A7C41B8A076375F41228
:100AFC0013164400B7071000C1177D8EB75522405E
:100B0C009385C512377522401305C549EF10600A4D
:100B1C001DA813B617003306C040398A1306060207
:100B2C00B755224093854513377522401305C549A7
:100B3C00EF102008050483AAC41B8A0A637D540D98
:100B4C009377F4038DDF9357240003A7841BBA9784
:100B5C0083C70700137734000607B3D7E7408D8BA4
:100B6C0005476381E702E356F7FA09471306D003FA
:100B7C00E388E7FA0D471306D006E383E7FA13067A
:100B8C00000279BF83A7041C13174400BA979C4337
:100B9C0013064005E38627F91306C004E38237F9F0
:100BAC0013064004E38E47F737A7224013070704C8
:100BBC0013063005E386E7F637A72240130707D95B
:100BCC00E380E7F6378722401307872313061004C8
:100BDC00E388E7F4378722401307C71FE382E7F463
:100BEC0037972240130787FA13066004E38AE7F26B
:100BFC0037972240130747FF13062004E382E7F2DE
:100C0C00379722401307876D1306D004E38AE7F069
:100C1C001306800631B7B755224093858513377577
:100C2C0022401305C549EF00E078F2406244D244FB
:0C0C3C004249B249224A924A0561828076
:100C4800B7E7234083A747D8D8436368E500198DE1
:0E0C580011050A053E95084182809C43F5B7C0
:100C66008567AA95938757506367B50013F5F70F05
:100C760011E10545828013975700BA97034705008F
:060C86000505B98FD5B78A
:100C8C00B7E7234037572240938747D71307474589
:080C9C0098CB23A4071A828003
:100CA400011126CA52C456C25AC006CE22CC4AC822
:100CB4004EC62A8B2E8A7537B7E7234083A447D8BC
:100CC400AA8A99E0014581A003A9C400938904017B
:100CD4004E840A094E99636424018440DDB70840B8
:100CE40083470500639B57038347150063974703B6
:100CF4005286DA850905EFC0416005E133053441C8
:100D0400C04009852295F2406244D2444249B24926
:0E0D1400224A924A024B0561828011046DBF93
:100D220001114AC852C406CE22CC26CA4EC62A8A0D
:100D32002E89853F631A05109307F00F63FC270184
:100D4200B7652240379522409385C5C6130545C82D
:100D5200EF80205C37E42340930744D703A5871A2A
:100D620093043900130444D715C58327041B832534
:100D7200C41AA69763FFF5040146A695EFF08FC942
:100D820029E18325041B0325841A0146EFF08FC84D
:100D92002324041A93070008A68963F4F400930934
:100DA20000084E85EFF0CFC42324A41A55E526850A
:100DB200EFF00FC42324A41AA68959ED2685EF80EB
:100DC200A06A8327C41AA6972326F41A8327841AB3
:100DD200F1D38327041B8329841ACA85BE945285C2
:100DE200BE992328941ABD3D2380A900A38029011E
:100DF2004A86D285138529004E99EFC0C14223014C
:100E020009001C488447DC4763E397028604138584
:100E120044000A05EFF0CFBD55D118485C4318C114
:100E2200584704C523260500BA975CC108C818486C
:100E32005C4748439386170091078A0754C7BA97BD
:100E42007D1523A037013695F2406244D2444249CF
:100E5200B249224A056182802326341B2328041AC0
:020E62008DBF42
:100E6400411122C406C62A84EFC0E14BAA8522851B
:080E74002244B240410165B5C2
:100E7C00411106C6E133B2400345050041018280B1
:100E8C00411106C6653BB240034515004101828005
:0E0E9C00411106C66533B2400905410182804E
:100EAA00011106CE2EC6613B83471500B245F240BA
:080EBA0009059CC1056182805D
:100EC200011122CC26CA4AC806CE23200500B7E764
:100ED200234023A0050003A447D823200600B754CB
:100EE20022402A8923A006009384444519C0631C2A
:100EF20094009C421842F2406244BA979CC2D24487
:100F02004249056182808327090085072320F90071
:100F120058449C41BA979CC15C44130704018A0758
:100F2200BA97636FF700228536C632C42EC2E93003
:100F3200B246004022469C4292453E9588C27DB709
:100F42000843032806001107034515000D084295C2
:040F520008C2C1BF51
:100F56000111B7E7234022CC03A447D84EC6B759A0
:100F6600224052C456C206CE26CA4AC8938949456B
:100F7600376A2240B77A224019C0631B3401F24017
:100F86006244D2444249B249224A924A0561828069
:100F96004444130904018A04CA9463649900004016
:100FA600E1BF0326090093054AC61385CA49090607
:080FB600EF0090401109D5B7CE
:100FBE0085050147054813060002B758224083C72E
:100FCE00050081E7230005008280E207E187930692
:100FDE00150063DD070401C72300C500368583C7EE
:100FEE0005001387881A93F7F7079DE383470700D9
:100FFE009306150013938701135383416353030222
:10100E0093F7F7072300F50005478505368545BF9D
:10101E00830607000507E3DD06FEFD1793F7F70FBE
:10102E00E9B70507A38FF6FE3685C9B76315070125
:10103E002300C500368583C70500930615000947B2
:06104E002300F500D9B7F4
:10105400411122C440411C4106C626C22E9463F7A6
:1010640087028347C500AA84858B81CB37952240AC
:101074008145130545C8EF80A029410461980845BE
:101084002104A285EFF00F9788C480C0B2402244A7
:061094009244410182803C
:10109A0041114AC02E89B28506C622C426C22A84B4
:1010AA00B284653708445C402686CA853E95EFC0FF
:1010BA00E11C5040B2400249269650C02244924454
:0410CA0041018280DE
:1010CE0041114AC00329450022C426C206C62A84FD
:1010DE00AE8463E32501CA8422858545AD371C4461
:1010EE001385140033069940B38597003E95EFC0E3
:1010FE00A1185C400844B24085075CC02244269586
:08110E00024992444101828074
:10111600411122C406C62A8491E185450CC02322CA
:1011260004002E85EFF0AF8A8347C40008C4B2409E
:0C113600F99B2306F40022444101828052
:10114200411122C42E84850526C206C6AA84D93737
:0C115200B240C0C022449244410182809F
:10115E008347C5000CC12322050093E7170010C575
:06116E002306F50082805B
:10117400011122CC06CE2A8432C6613F3246F240A7
:10118400B717204000C262449387A7095CC2056177
:02119400828057
:101196005C45411122C406C6858B2A8481E7084531
:1011A600EFF02F8723240400B240224441018280BD
:1011B60001112AC6414506CE22CCEFF04F81B24539
:0E11C6002A84B9372285F24062440561828096
:1011D4008347C500411106C622C426C2858B81CB34
:1011E400379522408145130545C8EF806012AE84CF
:1011F4000C412A840845A695EFE0DFFF1C4008C493
:10120400B240BE9404C0224492443E95410182807F
:10121400411122C426C206C62A84AE84153D5C4010
:101224000844B240BE9444C0224492443E954101D5
:021234008280B6
:1012360018415C41411122C406C62A846314F70092
:10124600854571371C445840BA97238007000844E7
:08125600B240224441018280F4
:10125E00411122C42E84854506C6753723008500AC
:08126E00B240224441018280DC
:1012760001114EC606CE22CC26CA4AC89307F007ED
:1012860093F9F50F63EDB700854551372300350116
:10129600F2406244D2444249B2490561828013D485
:1012A600650093F9F9039307F07FAE841374F40F86
:1012B60093E9090863EBB7008945913F136404FC81
:1012C60023008500A3003501E1B713D9C5001374C7
:1012D600F403C1671379F90F1364040863FDF5007D
:1012E6008D453537136909FE23002501A3008500C6
:1012F6002301350171BF9145C9801379F903013F77
:1013060093E404FF136909F823009500A30025015F
:0A13160023018500A3013501A5BFE6
:10132000011122CC2A842E8506CE2EC6EFB0F17F85
:0E1330002A8622856244B245F2400561B9BBAF
:10133E00011106CE32C6693332462300C500F24093
:04134E000561828033
:10135200011106CE32C69D3B32462300C500F24043
:04136200056182801F
:10136600584181476364B700B307B7405CC18280C8
:10137600544163FFD5023387C5006364D7004CC16F
:101386008280411122C42A840845AE8726C2B3054D
:10139600E500B2843E953386E64006C6EFB0516E50
:1013A6005040B240058E50C0224492444101828092
:0213B600828033
:0813B8002E85B2856FE071760D
:1013C000011126CAAA842E8522CC06CE2EC6EFB0E5
:1013D000D1752A8411C52A86DC40B245884082979F
:0C13E0002285F2406244D2440561828004
:1013EC0039714ED65AD062CC328B918F06DE22DC0C
:1013FC0026DA4AD852D456D25ECEA307E100137631
:10140C00F70DAA892E8C41CE13060003630FC70873
:10141C001309F100054A13F4060849CC13D4F7015B
:10142C003E940584B3848740635D8008A28AD28B86
:10143C0063D34A01D68B83A7490003A509005E86B6
:10144C00CA85B38A7A418297E34350FF630A0B0043
:10145C0083A7490003A509005A86E28582975A940E
:10146C00635290022694D28A63D34401A68A83A73E
:10147C00490003A509005686CA85B3845441829756
:10148C00E34390FE2285F2506254D2544259B25931
:10149C00225A925A025BF24B624C2161828037795C
:1014AC00224013094947414ABDB7377922401309F5
:1014BC008948D5BF93F4160099E03E84B5B7BE8435
:0614CC0071B7014461B795
:1014D2005D71A6C2CAC04EDE52DC5ED662D486C63A
:1014E200A2C456DA5AD866D26AD0A3070100AA8BE0
:1014F200AE84368A3E89428CC68929CE63D60504DB
:101502009307D002A307F100B304B0400010A54C2A
:10151200930A67FF130D0101D2852685EFE0BFB85C
:101522002A8BD2852685EFE09FB393070B0363F4E2
:101532006C01B3876A017D142300F4006303A403E2
:1015420063E14403AA84C9BF898BA5C79307B0028C
:10155200A307F100C5FC93070003A30FF1001304D6
:10156200F101937409048347F100B1C8814499CB16
:1015720085476287CA8605469305F1005E85B535C3
:10158200AA84FD191010CE876287CA86018EA285B1
:101592005E85A13DB6402644269506499644F259F9
:1015A200625AD25A425BB25B225C925C025D61611A
:1015B200828093774900D9DF9307000251BFF9D3A4
:0E15C2001808E37187FCA30FF4FE7D1465BFCB
:1015D0001971A2DCA6DACAD8CED6D2D4D6D2DECE43
:1015E00086DEBE8BDAD0E2CCE6CAEAC8EEC693F756
:1015F0001500AA8AB28436843A89C289468A95E35C
:1016000093F7350081EB9841B79722409387873451
:101610006309F7002E85EF90A0469315150093E51A
:1016200015009377190889EB930700036396FB0075
:1016300063D34901D289014A2E852EC6130B0102BC
:10164000EFC03020DA87B245634B0500937729005D
:101650008DCB9307B0022300F10293071102137799
:1016600009011378F40F29C309476393E4021307B0
:1016700000032380E70013071800A380E700890711
:1016800025A013774900DA8779DB93070002E1B7D9
:1016900021476392E416130700032380E7001377C2
:1016A00009206317071485072380070033846741E7
:1016B00093770902814899C39308C002C147130C6C
:1016C00001033ED462D202D6854763D44701136931
:1016D0000904A30F0100937C090463880C1281475D
:1016E0002687AE8670102C104810EFC080648347A8
:1016F00005001307D002AA8D6399E700A30FF1003C
:10170000B257930D1500FD173ED6854763DC471190
:101710003257D2876353EA00BA8763870C000347C6
:10172000F10111C38507A29763DB370F1377190007
:10173000338DF940814419E3EA84014D1379E9FFBF
:10174000930B000389CCB7752240A68713070002CC
:10175000814601469385054656854939AA84638AA0
:101760000C028347F10199CB854701478146054625
:101770009305F10156859D39AA94FD1919C885472D
:10178000014781462286DA8556858D31AA94B38930
:101790008940854763D34701D2893256CE875E8719
:1017A000CA86EE8556859931AA94630E0D00B775E9
:1017B0002240EA87130700028146014693850546C9
:1017C00056852D31AA94125563048501EFE0DFA4FC
:1017D000F650665426854659D654B659265A965A16
:1017E000065BF64B664CD64C464DB64D0961828081
:1017F0001307E80059B54147E398E4EA13070003EB
:101800002380E700130778018DBDAE86DA8726872F
:1018100070102C104810EFC0C051AA8DFDB5014DBD
:0A182000814429BF014D81441DBF22
:10182A00397126DA4ED652D456D2B68406DE22DC76
:10183A004AD8898A2A8ABA8ABE892E854287930714
:10184A00B00291E693F74400B337F0009607B286E8
:10185A008A8513060002EF60704193F704102A8408
:10186A0095C3930715007D47636EF700181033047C
:10187A00A700130750022300E4FE18103E97230026
:10188A0007FE3E8413F904048A85630409020347A8
:10189A0001009307F002014963EDE700854701471C
:1018AA00814605465285353E2A89FD197D149305E0
:1018BA001100CE875687A686228652851D36F2509B
:1018CA0062544A95D2544259B259225A925A2161C3
:0218DA0082800A
:1018DC005D71A6C2CAC052DC5AD85ED662D466D23A
:1018EC006AD086C6A2C44EDE56DA2A8AB284014970
:1018FC00130B5002930BD002130CB002B77C224096
:10190C00377D22402E848347040099C36392670578
:10191C0063FC850083274A0003250A00B309B44001
:10192C004E8682974E99A28583C70500638407264D
:10193C001384150013070002814613060002930559
:10194C001002130500038347040089E7A545B9A0DD
:10195C00050455BF6396770193E616000504E5B7B9
:10196C006395870193E62600D5BF6395C70093E680
:10197C004600EDB76395B70093E68600C5B763964E
:10198C00A70693E6060413070003C9BF13962700A6
:10199C00B2978607C697938707FD05048348040012
:1019AC00138608FD1376F60FE3F2C5FE9305E002ED
:1019BC007D566396B804834514001306A002638811
:1019CC00C50205040146A54803480400130508FD9B
:1019DC001375F50F63E5A802931526002E960606DF
:1019EC004296130606FD0504C5B7814785B790409E
:1019FC00090493854400635306000146AE840345F5
:101A0C0004009305C0066313B50005048349040064
:101A1C006382091893054006638BB91263E5350799
:101A2C0093050005638FB90663E335039385B9FB12
:101A3C0093F5F50F09456379B51283274A00032501
:101A4C000A000546A28582970509A68A6DA8130689
:101A5C0020066380C90A6360360D13068005E39E79
:101A6C00C9FC13F609FF8509451693F96900BE8870
:101A7C00B687C1463A88938A44001377F60FB3862B
:101A8C0036410146F1A893051007638EB90863E34C
:101A9C0035039305700663F9350D13060007E39EB5
:101AAC00C9F8BE883A88B687938A44001307100693
:101ABC00C146C1BF93055007E385B9FA930580076A
:101ACC00E381B9FA93053007E399B9F67D55938A0A
:101ADC0044008C406316A6022E853EC63AC436C21C
:101AEC002EC0EFB0D1032A86B247224792468245D8
:101AFC0001A89040938A440019CA114693054D469B
:101B0C005285F9382A9993051400D684E5BB1546FD
:101B1C009385CC46F5B79040938A44006C08230E0D
:101B2C00C1000546F1BF88406C0832C63EC43AC2BB
:101B3C0036C0EFF0CFB63246AA857D55938A440065
:101B4C0082461247A247E31DA6FA724655BFBE88CD
:101B5C003A88B687938A440013071006A9460546AF
:101B6C008C4052858D3279BF9D04E198CC408840E1
:101B7C0032C63EC43AC236C0EF30C22C3246A247FF
:101B8C00124782463288AA854E865285938A8400F3
:101B9C0079318DBFB64026444A8596440649F259A0
:101BAC00625AD25A425BB25B225C925C025D61610A
:021BBC00828025
:101BBE00397132D4301006CE36D63AD83EDA42DCFF
:0C1BCE0046DE32C62933F24021618280DD
:101BDA00834705001397870161876352070293F7CA
:101BEA00F70713070004B3F6E70081EE050593062D
:101BFA000008034705001376070C6309D6003E85E3
:101C0A0082809346F7FFF58F0583F1BF9A07137712
:081C1A00F7030505D98FF1BFA6
:101C22000505130700088347050093F7070C638334
:081C3200E70082800505C5BF33
:101C3A008147930600086364B5003E858280FD15DE
:101C4A0003C705001377070CE307D7FE8507E5B737
:101C5A00AA87AA9593060008014563E3B700828024
:101C6A0003C707001377070C6303D7000505850729
:021C7A00EDB7C4
:101C7C009307F00763ECA700B77722409387474A96
:101C8C00AA9703C5070005810589828001458280DA
:101C9C009307F00763ECA700B77722409387474A76
:101CAC00AA9703C507000D810589828001458280B2
:101CBC009307F00763ECA700B77722409387474A56
:101CCC00AA9703C507000981058982800145828096
:101CDC009307F00763ECA700B77722409387474A36
:101CEC00AA9703C507001981058982800145828066
:101CFC009307F00763E2A702B77722409387474A1E
:101D0C00AA9703C707008547318B09E7130515FA16
:0C1D1C00933715003E8582808147EDBFA3
:101D28009307F00763ECA700B77722409387474AE9
:101D3800AA9703C507001181058982800145828021
:101D48009307F00763ECA700B77722409387474AC9
:101D5800AA9703C5070015810589828001458280FD
:101D6800411122C406C62A84653F19C1130404021E
:0A1D78002285B2402244410182801E
:101D8200411122C406C62A847D3F11C10114228555
:081D9200B240224441018280AD
:101D9A00130505FDA54763F5A7001375F5FD651540
:021DAA00828035
:101DAC00AA9501479306F00B1306700F1308500EFB
:101DBC00930800086365B5001335170082808347CC
:101DCC00050019CB93F7070C639717039307F7FFDD
:101DDC0013F7F70F0505F9BF63FBF600636DF6000B
:101DEC008D83998BB357F84013F73700E5B7E207AB
:0A1DFC00E187E3D107FE0145828074
:101E0600F91563E5A50083D70500FDDB8905898DF6
:061E160013D51540828087
:101E1C0093D7460063F0C704139717001D8EBA952D
:101E2C0085483287BD8A83D705006307170103D81D
:101E3C0025004208B367F800B3D7D700C207C183A7
:101E4C002310F5007D170905890571FF91E37D16B7
:081E5C00328582800146EDBFD2
:101E6400198EBA8801488147639308020607B306AE
:101E7400E500BA95368832870DEF0606369681C797
:101E84002310F60009063305A640058582803383B6
:101E94000501338E060103530300035E0E00FD1893
:101EA40072939A97330305012310F3000908C18341
:101EB40065BF83D805007D170908C697231FF8FE60
:061EC4008905C18355BF32
:101ECA00198E3A8381488147631D03000607B308C8
:101EDA00E500B2862E97468885EA0606B385C800CD
:101EEA0031BF33881501035808007D13C297338820
:101EFA00160103580800B387074133081501231058
:101F0A00F8008908C187C9B783550700FD16090873
:0C1F1A00AE97231FF8FE0907C1877DBFAA
:101F2600411122C426C206C68947AA84094463E32E
:101F3600F5002E84884409C59C40898363FC87008C
:101F460093151400EFE0EFAA9C400A0488C48D8B19
:0E1F56005D8C80C0B2402244924441018280E2
:101F6400411126C2AA84314506C622C4EFE04FA619
:101F74009C402A8413F717001C41F99BD98F13F74F
:101F8400D7FF18C18840858B098113172500D98F85
:101F94001CC0DC4006055CC0EFE08FA308C4904081
:101FA4008C4409820606EFB0E1272285B240224420
:061FB4009244410182800D
:101FBA00939715003E953E9699E1014582807915E1
:101FCA0079168357050003570600998F63C50700E2
:0E1FDA0089E7FD15D5B77D55828005458280CB
:101FE80011CD411122C42A84084506C6EFE04FA24C
:0E1FF80022852244B24041016FE08FA1828019
:10200600411122C42E84894526C206C6AA84093FE8
:1020160063510402B305804005479C4023A2040097
:10202600F99BD98F9CC089E9B24022449244410170
:102036008280A2850147D5B7DC4098449386170075
:0E2046008607D4C0BA972390B700C181E9BFC6
:0E20540023200500232205002324050082809E
:1020620019C51C41898B81E708456FE0CF9A8280B0
:10207200411122C42E84CC4126C206C6AA845D35F3
:102082001C408844B24013F717009C40F99BD98F3B
:102092009CC05C400C44DCC0504022449244060682
:0620A20041016FB041187E
:0A20A80081E523220500828099BF24
:1020B200011122CC06CE2A842EC6613F22856244BB
:0820C200B245F2400561C5B70B
:1020CA001317260010410CC5232205000D8A598ECC
:1020DA0010C1719A136626002300C500B685C1B7E0
:1020EA00011122CC2E84914526CA32C636C406CEA8
:1020FA00AA842D35A24632468DCA63580602B30514
:10210A008040B337B0003306C0401D8E05479C405F
:10211A0023A20400F99BD98F9CC0B3E7C50089EBC1
:10212A00F2406244D24405618280A2850147C5B764
:10213A00DC409844938617008607BA97D4C0239048
:0E214A00B70093170601C181DD8D4182F9B700
:1021580001114EC606CE22CC26CA4AC852C41C411A
:1021680013D7F501AA89F99BD98F1CC1B707807FBE
:1021780033F7B70019EB23A20900F2406244D244B6
:102188004249B249224A05618280E306F7FE13D428
:1021980075011374F40F930714F8E3CE07FC91EB61
:1021A8006244F240D2444249B249224A8545056117
:1021B800B9B5930614F913D7F6413D8B3697135AE0
:1021C8004740370780009304F7FFED8CD98C5947B7
:1021D8006342F706DD46B387F640B3D4F4000149FD
:1021E8000144D2854E85253B23A2490101C803A598
:1021F8008900131614008145EFB0A10B6301090291
:1022080083A7890013171400BA97339724012390E2
:10221800E700C14733892741B3D424010504E30EFD
:102228008AF483A7890013171400BA97239097009C
:10223800C180EDB7A50713F9F7009307A4F613D4E7
:0A224800F7413D883E94118469BF00
:102252005D714EDEB389C5000E065ED6AE8B935518
:1022620046008505CAC052DC2A8956DA6AD06ECE8B
:1022720036C63A8A86C6A2C4A6C25AD862D466D2E2
:102282005531B24613170A012322090093F71600AB
:1022920083260900DE8AA54DF99ADD8E2320D90016
:1022A200654D418363E33A03B640264433857A4160
:1022B20096440649F259625AD25A425BB25B225C98
:1022C200925C025DF24D6161828083C70A00938451
:1022D20007FD63FE9D009386F7FB938497FC63786A
:1022E200DD009386F7F9E361DDFC938497FAE3FD61
:1022F20044FB032C890003244900628BA28C639067
:102302000C020604B3078C0081C42390970089074E
:10231200B387874185872322F900850A61B78355F0
:102322000B003A853AC6EFD0DFD0AA9423109B0067
:0A233200FD1CC180090B3247D9B72A
:10233C00011122CC26CA06CE2A84854489C593076E
:10234C00F6FFBE96FD5493153600BD05918122858E
:10235C0036C632C4D9361C402246B246F99B1CC044
:10236C002322040081473D4801EE4C400844860579
:10237C00AA95613448C0F2406244D244056182801F
:10238C000147634DF80083C506007D16A696B395EC
:10239C00F5004D8F42074183A10765F64C40084478
:1023AC00C11793881500860523221401AA95239042
:0423BC00E5005DBF1C
:1023C00054412A8781E6DC4101459DCF411122C459
:1023D0009C41004306C6858B137514003385A740C6
:1023E00005E1DC417D5563E9F600054563E6D7006C
:1023F00090450847B685D136058819C03305A040F9
:0A240000B240224441018280828034
:10240A00411122C406C62A846303B500B1391C40AF
:0C241A00B240F99B1CC0224441018280AA
:10242600411122C406C62A846303B50081311C40CB
:10243600B24013C7F7FF058BF99BD98F1CC0224406
:04244600410182804E
:10244A00011122CC06CE2A846303B50031395040EB
:10245A0019EE85452285D9341C4405472390E700A7
:10246A0085475CC01C4093E717001CC00DA01C40A8
:10247A0013F717000DC30C44F99B1CC00547854789
:10248A009306E1002E852317F1001D3C48C0F24057
:10249A0062440561828093051600228541340C440A
:1024AA005040854705479306E1002E852317F10022
:0624BA006D3248C045BF71
:1024C000DC4101114AC806CE22CC26CA4EC62A8952
:1024D00091C309EA6244F240D244B2494A85424972
:1024E000056141BE9304F6009180AE89B3859700E3
:1024F0003284153C1376F4008327890083A5890074
:1025000083A6490011E24146370700801347F7FFD1
:102510003384D4003305E40006053697AA970607EE
:102520004145BA953688BE8801473306C540631FCA
:1025300008048606958F3357C7002390E7003307BA
:10254000904006070907BA97139614003E8579163E
:102550008145EFA09156AA8719C4131714003E971E
:102560000357E7FF21C32322890083A70900F24014
:10257000624413F7170083270900D244B249F99B3C
:10258000D98F2320F90042490561828003D50500D7
:102590007D18F918498F3355C7002391A8004207C9
:0825A000F91571B77D144DBF60
:1025A80001114AC82E89CC4126CA06CE22CCAA845B
:1025B80099C1328411EACA852685453CF2406244B5
:1025C800D244424905618280993A0326490083250D
:1025D80089008844A2863D38C8C0832709002A8616
:1025E80013F717009C40F99BD98F9CC0858BF9D7AE
:1025F8008326490093574400231701000147638449
:10260800E6006314F702E3FBD7FA0327890086077D
:102618003D88BA9783D707000547331487007D1490
:102628007D8C1DC82317E10031A883258900131567
:102638001700AA9583D5050091CD05472317E1001A
:10264800E3E5D7FC8C4409EE85472390F5008547E0
:10265800DCC0ADB7050765B78357E100A5D3DDB783
:1026680005479306E1002E85EFF04FFFC8C0B9B7C4
:10267800411122C45C422E84CC4126C24AC006C6FF
:102688002A89B28463E9F50063EAB7001046084472
:102698000D3263550500A2872684BE841C409840ED
:1026A8004C40B98F858B8DEF85054A858D38D8408C
:1026B800944450400C4403258900EFF02FFA23225C
:1026C800A9001C40B240224413F7170083270900D1
:1026D8009244F99BD98F2320F90002494101828055
:1026E8004A853538D840944450400C440325890025
:0626F800EFF02FFDE9B731
:1026FE00011122CC5C422E84CC4126CA4AC806CE99
:10270E004EC62A89B28463EAF500814963EBB700AD
:10271E0010460844613863560500A2878549268411
:10272E00BE841C4098404C40B98F858BB9C385053B
:10273E004A85EFF06FFED840944450400C44032578
:10274E008900EFF04FF12322A9001C4013F7170068
:10275E00638409001347170083270900F24062447F
:10276E00F99BD98F2320F900D2444249B249056121
:10277E0082804A85EFF04FFAD840944450400C4482
:0A278E0003258900EFF08FF37DBFF3
:10279800D8415C42011122CC4AC806CE26CA2A89F1
:1027A8002E846374F70032842E8618404C40854787
:1027B800058B19E31C42858BBE954A8532C6EFF01E
:1027C8000FF63246032384004C40044200400325A0
:1027D8008900032E8600B3479400858B8322460028
:1027E800814699E39376140005888588330FD04095
:1027F800B30F8040B3089040420FC20FC208C163B4
:102808002288A680135F0F0193DF0F0193D8080178
:102818002E86AA8EB382B240FD130DEA8605AA95CC
:1028280089C685472390F5008905EFF04FDD83279A
:102838000900658CF240F99B5D8C23208900624475
:102848002322A900D24442490561828083570300AC
:102858007D164687B3C7FF003E98B387C2006367FB
:10286800F60003570E00090E33C7E8000697B37742
:10287800E800B3C7E701B3F77700B6972390FE00E7
:10288800935007011358080193D60701890E0903CD
:0228980069B71E
:10289A00D8415C42011122CC4AC806CE26CA2A89EE
:1028AA002E846374F70032842E8618404C40854784
:1028BA00058B19E31C42858BBE954A8532C6EFF01B
:1028CA00EFE5032384004C4000403246032589008B
:1028DA0013771400032E860083224600044285479C
:1028EA0019E393F7140005888588330FF040B30F76
:1028FA008040B3089040420FC20FC208C163BE862F
:10290A002288A680135F0F0193DF0F0193D8080175
:10291A002E86AA8EB382B240FD1305E68605AA95D5
:10292A00EFF0CFCD83270900458CF240F99B5D8CEF
:10293A002320890062442322A900D2444249056126
:10294A008280835703007D164687B3C7FF003E98EF
:10295A00B387C2006367F60003570E00090E33C738
:10296A00E8000697B367E800B3C7E701B3F7770053
:10297A00B6972390FE00935007011358080193D687
:08298A000701890E090351BF8A
:10299200D8415C42411122C426C24AC006C62A89D5
:1029A2002E84B2846374F7003284AE8418404C40A3
:1029B2008547058B19E39C40858BBE954A85EFF0D0
:1029C2006FD61C4098404C400325890003AF440059
:1029D2000323840003AE840033C6E700C16693C7B5
:1029E200F7FF1347F7FF13781600858B058BAE8828
:1029F200AA8EFD16330FBF40639F08028605AA9573
:102A02006306080085472390F5008905EFF08FBF24
:102A12002322A90018409C40B2402244B98F13F7E8
:102A22001700832709009244F99BD98F2320F900CC
:102A320002494101828003560300FD18B30F1F01B2
:102A42003696B297368663E6F80103560E00090EF3
:102A52003696329733C6E700758E42962390CE00A3
:0E2A62004183C18313580601890E090371B721
:102A7000DC415D71A2C486C6A6C2CAC04EDE52DC6D
:102A800056DA5AD85ED662D466D26AD06ECE2A841E
:102A900081C75C42B28495E323220400B6402644F9
:102AA00096440649F259625AD25A425BB25B225CA2
:102AB000925C025DF24D616182802E896394A5086B
:102AC000EFF04FCA2A89AA8A63938400AA84DC4063
:102AD000832549002285BE95EFF0EFC410400844DD
:102AE000814509820606EFA0417D03274900032C9A
:102AF00084000326890083AC840083AB4400131A4E
:102B00001700629A628D8147639F0B085CC09840F2
:102B100083270900B6409644B98F13F717001C406D
:102B20000649F259F99BD98F1CC02644625A425B70
:102B3000B25B225C925C025DF24D5685D25A6161B5
:102B40006FF08FCA814AE314A6F8EFF0AFC1AA84F0
:102B5000AA8AB5BF03550B0083D50C003AC6AA99C3
:102B600003D5070032C43EC2EFD0CFCC92472246F5
:102B70003247AA9923103B01FD1D93D9090189070A
:102B8000090BE3990DFCD28793062A00638509009F
:102B900023103A01B687B38787418587FD1B090D4E
:102BA000890C368A95B7B287BA8D6A8B8149D1BFB5
:102BB000DC41411126C206C622C44AC0AA8481C78C
:102BC0001C42858B89CBB240224423A204000249D7
:102BD0009244410182805C4289EB2244B24092449B
:102BE0000249854541016FF00FC22E853284EFF016
:102BF0006FB72A892285EFF0EFB62A8485452685AE
:102C0000EFF06FC05C4095C31C4483D70700858BF1
:102C100089C74A86A6852685A13D0C445040854635
:102C20002E85EFF0AF9F48C001ED4A85EFF0CFBB96
:102C300022852244B2409244024941016FF0CFBA4A
:0A2C40004A86CA854A852D3575BF06
:102C4A001971E2CC2E8C4C4286DEA2DC8505CAD8EC
:102C5A00D2D42A89328AD6D2DECEB68AA6DACED69D
:102C6A00DAD0E6CAEAC8EEC6EFF04FAB03264A004E
:102C7A0003258900814505060606EFA06163232224
:102C8A00090083254A0062858505EFF02FA9D285C0
:102C9A006285EFF06FBD83AB4A0003244C00636783
:102CAA00740983278900832D8C0003AB8A003EC6F2
:102CBA0063E18B085A86A2856E85EFF06FAF2DE52A
:102CCA00324723220C0085472310F7008547232229
:102CDA00F90083270A0003A70A00B98F858B95C7D5
:102CEA008327090093E717002320F90083274C0064
:102CFA0089CFFD554818EFF02FBB5018CA854A8571
:102D0A00BD325686E28562859D32F6506654D654A7
:102D1A004659B659265A965A065BF64B664CD64C15
:102D2A00464DB64D0961828063550500232209008C
:102D3A004DB793991B00F919B3053B0183D70500D9
:102D4A00814C1397070141876353070A93171400AD
:102D5A00338DFD0023100D00050489074145232208
:102D6A008C00EE976E878148330595416369F708B1
:102D7A0003D6050085473316960163FA770183D790
:102D8A00E5FF414733079741B3D7E7005D8E330428
:102D9A007441B24723228900060479143E9441689B
:102DAA00938729003EC89309F8FF83244C0063E8FF
:102DBA009B068604F9144147EE940146330797416E
:102DCA0063FCB415B706008093C6F6FF03274900D3
:102DDA0011CB3246B307D7008607B29783D70700CD
:102DEA00638A0714B706008093C6F6FF99AA860776
:102DFA00850CC207C20CC18393DC0C0199B7035638
:102E0A0007000907331896013356A60033681801DC
:102E1A0093180601231F07FF93D8080181BF835720
:102E2A000D000355EDFFB285C2075D8D32CAEFD0A2
:102E3A008FA2C24752462A8E330FFD40FA88DA8E95
:102E4A00814F014363EFA80183570D00B387FF4009
:102E5A00DDEF2310C401FD147914791D23229C008F
:102E6A00A9B783D70E0013530301F285B3979701CD
:102E7A0033E36700337533017AD67ED446D232D033
:102E8A0076CE72CC1ACAEFD04F9A92585243624EFB
:102E9A0083D70800F24E0256A25F325F6376F500CE
:102EAA003387A74063E5EF02B387FF40AA9733074A
:102EBA00F04093DF0701B3F737014207B337F00059
:102ECA004183BE9F2390E800890E8908A5BFB38776
:102EDA00F741898F139707014183814FE5B7035360
:102EEA00050093D80801090733139301B368130146
:102EFA000353E7FF09052E93B3F538019A95231F6B
:102F0A00B7FEC181E36DA7FD8D8F7D1E91B77A87CC
:102F1A005A8581458148FDB783D70400F914B3D691
:102F2A009741B397E700D18E139607012391D400F6
:102F3A00418279B57D172322E90049BD7D172322F5
:102F4A00EC0003274C00E30607D8B307D70086072F
:0A2F5A00EE9783D70700FDD3ADBB4F
:102F64005C41144501478607B69763E9F6001C41A6
:102F7400858B99C33307E0403A85828003D6E7FF07
:082F84004207F917518FD5B780
:102F8C0058411445814706073697216663EAE600E7
:102F9C001841058B19C3B307F0409CC105458280CD
:102FAC00791763F8C70003580700C207B367F80026
:062FBC00F1BF0145828017
:102FC200368899C13388C600832E8500032E4500BA
:102FD200054F014781489D4F369663130E0082804C
:102FE20083D70E004207C1085D8F63C51F01890E9A
:102FF2007D1EE5B70323050093170701C1831373F1
:103002001300630B030093C7F7FF93F7F70FFA97C9
:10301200C207C18313DF870093F7F70F81C9130338
:10302200F8FFA30FF8FE639966008280130318006D
:103032002300F800E305C3FAE11821831A8875B763
:10304200797122D440414AD0B777224003298500C2
:103052004ECE83A94752060426D206D6AA844A94A3
:1030620013050000636F89009C40858B81C7B707F9
:1030720000803D8DB250225492540259F24945616A
:103082008280CE85EF10E2192AC60355E4FF791437
:0C309200EF107228B245EF008271E9B720
:10309E00397122DC404126DA4ED606DE4AD852D4A9
:1030AE0056D25AD05ECE62CC66CA6AC86EC6B28995
:1030BE00BE8421E43E8505EE930700032300F50050
:1030CE00A30005000505058DF2506254D2544259F5
:1030DE00B259225A925A025BF24B624CD24C424D7A
:1030EE00B24D216182808509A30FF7FE3A8583C711
:1030FE00090013071500E5FBC1B70604AA8A22854D
:10310E00368DBA8C2E8BEFD00F8C83A58A0022863B
:10311E00AA8BEFA08110A68D268A33898B00130708
:10312E009003130D6DFC8D464A8401457914637B23
:10313E007407130505036373A7006A9513041A0039
:10314E002300AA00DE8763E22709638D0C00854702
:10315E003306B4416317D60013042A00A3009A0164
:10316E00A28D9DCF5E85EFD04F8A638809004E8574
:10317E00EFA0C11A4E9563EFA90483A70A00858BB1
:10318E0091C79307D0022300F40005049307F4FFC0
:10319E0026876368F70423000400330594402DB797
:1031AE00228A59B7035C04004205DA85336CAC0001
:1031BE006285EFC01FEA2310A400DA856285EFC096
:1031CE00DFED8D461307900395B703D607000DE686
:1031DE00890795BF7D15834705000504A30FF4FEEF
:1031EE0059BF03C6070083460700FD172300C7001B
:1031FE00A380D700050771BFE3840CFA814789BF0E
:10320E001C45584563F8E7001387170018C503C51A
:08321E00070082807D558280CB
:103226001C41411122C406C62A8481C74841EFC009
:0E3236005FFE22852244B24041016FC09FFD21
:10324400011122CC2A84414506CE2EC632C436C290
:10325400EFC01FF8B245224692464CC10CC5B737A1
:103264002040B29514C14CC59387E7205CC0B737A2
:1032740020409387672208C01CC4F2406244056161
:02328400828046
:10328600184993077002630BF706930620028547D9
:10329600630FD702930750076308F7009377F7FE8B
:1032A600930620066397D702544913067002854792
:1032B600638FC60013062002638BC60093072007A0
:1032C6006319F70093072006638FF60081473E8552
:1032D6008280930620068147E31BD7FE54491307D5
:1032E6002007E396E6FE084D130770028547E300C4
:1032F600E5FE1305E5FD93371500D1BF8547C1BF30
:103306001849411122C406C6A9472A84631AF7043C
:103316005C4D85075CCD85471CD05C4848401CC881
:103326001C4C5CC81C448297584808CCB547631AA5
:10333600F700A9475CC86316F5001C44484082970D
:1033460008CC1C4C7D576399E70058486306F70084
:10335600A9476303F7001CCCB24022444101828096
:10336600A5461C516314D7009D07E19B85076DB7E1
:10337600011122CC26CA4AC84EC652C456C25AC0E9
:1033860006CE2A842E8A0149FD59A944930A3002A1
:10339600130BC0050848631D3501F24062444A8597
:1033A600D2444249B249224A924A024B056182807E
:1033B600631A950063040A001C54E5D322858937F5
:1033C6000549C9BFEFE03F8B01C52285153FD9B737
:1033D6001C48639A5701228525371C48E38C37FB26
:1033E600E39B97FE45BFE39A67FB5C48E39797FA32
:0633F60022853937D9BF22
:1033FC005D71A2C46ECE86C6A6C2CAC04EDE52DCB9
:10340C0056DA5AD85ED662D466D26AD02324050422
:10341C008145AA8D993F03A7CD0103A40D0223ACCE
:10342C00ED0203A74D0223AE8D02635707009946A8
:10343C0023A0DD04050731A015C7954623A0DD04A4
:10344C007D1723A2ED02B640264496440649F25954
:10345C00625AD25A425BB25B225C925C025DF24DC4
:10346C006161828045C103A78D0249EF114703A614
:10347C000D0323A0ED043707008003A54D0313476C
:10348C00F7FFB306E6008606AA9683D606007D14DF
:10349C00E30BD4FA63F8860483A5CD02636DB60002
:1034AC00A1058605EFC09FD403A7CD0223AAAD02C8
:1034BC00210723A6ED0203A70D0383A64D031306D4
:1034CC0017000607369723A8CD022310870003A701
:1034DC004D028DB783A64D027D1623A8CD02FD1695
:1034EC0023A2DD0203A60D03B306E6008606AA9608
:1034FC0083D60600E360D4FE0947E306D4F423A088
:10350C00ED0491B703A40D017D576315E40023A0CE
:10351C000D0415BF6E859533AA89630A052823A06F
:10352C000D04054BA94B930CC00513844D0403A744
:10353C000D0193065007630CD70A93062006631DF2
:10354C00D70083A64D0113072007CE846380E602C3
:10355C0005492D47814429A8130620070149631901
:10356C00C70803A74D01CE846316D70809492D4718
:10357C0083A60D04D9E223A0ED04630909006E852E
:10358C00AD3B09476314E9006E85853B83A60D01AD
:10359C0013072002130970026394E600130920023A
:1035AC006E85A13B03A70D01054A631B270103A7E9
:1035BC004D016317E9006E8589336E853D3B0D4ADD
:1035CC00014CFD5A83A50D01638D551D63146A01D1
:1035DC006389751D63664C03E2852285EFD0FFD7A6
:1035EC0085456E8559336E85493931F1A9BD05493B
:1035FC0029478DB705492947A5BFE380E6F8A1B552
:10360C00631AB900CA852285050CEFD01FC66E85DA
:10361C00ED314DBF639E95176E85C53103AD0D0120
:10362C0081C89305C0052285EFD03FC4EA85F5A07B
:10363C0093062006630DDD1263E2A6079306E004F1
:10364C00630DDD0E63E5A603930620026306DD041D
:10365C00930670026302DD04014CE30A7DFB9305C3
:10366C000DFD9D46E3EFB6FA0D4C1D4DFDA0630517
:10367C009D03930610069D456308DD0A93065005CD
:10368C00E31FDDFC83A60D04AD47639AF604930596
:10369C00C0052285EFD07FBDEA8579A0930640074F
:1036AC006309DD0C63E0A6039306E0066305DD0CFD
:1036BC00930620076303DD0C93066006E311DDFA25
:1036CC00B1459DA093066007630BDD0AE36CDDFA40
:1036DC0013068007094CE314CDF8814525A8130681
:1036EC005007114CE30BCDFE214CC5BF6E852EC689
:1036FC00293103A70D013A853AC4EFE06FDD630F62
:10370C0005342247B2453A85139D4500EFE02FE87A
:10371C00B305AD007D1CE31B5CFD014CE38955EF4B
:10372C00B707110063FCF50603A70D04631B7705AF
:10373C002285EFD09FB3014CD9BD377522401305BC
:10374C00C556EF60302D6E852EC4453EA24583A62E
:10375C000D018E05938606FDB69583A64D019386C5
:10376C0006FDE36CDDFA7D1CE31F0CFC7DB7A14567
:10377C0065BFA54555BFA94545BFB54575B7AD4511
:10378C0065B79307F00F63EBB700AD476318F7000D
:10379C0093F5F50F2285EFD0DFAB71BF23A06D053C
:1037AC0059BFE37B4CE30D4723A0ED0435B52285CF
:1037BC00EFE00FCE2A8403A50D0109E81307F005ED
:1037CC006306E5001307F0076371A70A1D4713840E
:1037DC004D049375F50F23A0ED042285EFD07FA740
:1037EC006E85213EFD541309F0059309F00703A5DE
:1037FC000D01631195042285EFD03FA3B7742240CD
:10380C00AA899384C45A0144130940028C404E8502
:10381C00EF90313221E5350423A08D044147E314A8
:10382C00E4C237E72340832687F23D47E38906CC81
:10383C003547F1B1EFE0CFC511E903A50D016307E1
:10384C00250163E5A900EFE0AFC655D583C50D0191
:10385C002285EFD01FA06E854D3451BFE34505BEC8
:10386C0005049104E31424FBF9BEEFE06FC42DC9E9
:10387C0083A50D011307E0026395E508254723A0F6
:10388C00ED0493844D042685EFD03F9E6E85B534B0
:10389C007D5A1309E002930AF005A549130BA00405
:1038AC00930B500403A50D01E30F45B959E01377B1
:1038BC00F5FD6310770993055006268523A03D0579
:1038CC00EFD0BF9A6E85153C83A50D01138755FD6E
:1038DC00759B69FB2685EFD05F996E85393CD9B70E
:1038EC0083A60D011307E0026397E60003A54D01C3
:1038FC00EFE00FBC35FD37742240014913048452AC
:10390C00A5A8214723A0ED0413070003E39BE5F6CC
:10391C0003A44D01D946136404021307E4F90144CE
:10392C00E3E1E6F63724400005043354E40005884F
:10393C0089BFEFE0EFB501C983A50D0163912503A4
:10394C0023A03D0541BF03A50D01EFE06FB66DF55A
:10395C0003A70D01E30227FFE30157F9EDB413F7B9
:10396C00F5FDE31967F7E9BF9384D4F993F4D40F09
:10397C0091E00504050905048344040089C403A7E8
:10398C000D01E31397FE6E858D3A99E0054785BED0
:10399C0013071002639DE40083A60D011307D003E7
:1039AC00E396E6FE6E85913A1307700389BE130702
:1039BC00E0026393E40203A70D016316970003A7CB
:1039CC004D01630597001307A00515BE6E853532B2
:1039DC006E852532314725B60504CA869309300613
:1039EC00130A5006834404001387D4F91377D70FB6
:1039FC000DE30347140003A60D0105096319E60046
:103A0C006E85E538CA86638644010904E1BFE39EEE
:103A1C0034FF3777224013070758369703470700C0
:103A2C001306200523A0ED049376B70F6386C6001A
:103A3C00130640056318C70003A78D02050723A4CE
:103A4C00ED0211B4130630056386C60093065005CB
:103A5C00E31BD79E03A78D027D17D5B723A06D0559
:043A6C008145D9B106
:103A7000011126CAAA841305400506CE22CC2EC603
:103A8000EFC04FF5B2452A84314604C11105EF90CD
:103A9000A179F95785441CD0A9475CD444CC232292
:103AA00004022324040204D85145EFC0AFF2930569
:103AB000000248D813054404EFD0EFE55C58228596
:103AC00023900700232C0400232A04002328040049
:103AD0001D3822850D3822853D30228505325C5CFB
:103AE0006384970095473CC02285F2406244D244EB
:043AF000056182806A
:103AF400797122D42A84480806D6EFF06FF44C0872
:103B040031460A85EF9001728A8522858537B25045
:063B14002254456182808D
:103B1A00797122D4AA852A84480806D6EF80612BB7
:103B2A002285EFD08FB32A844C0831460A85EF905C
:103B3A00016F8A852285053FB250225445618280F1
:103B4A000DC5411122C45C452A84484106C68297A4
:103B5A0013054404EFD08FE34858EFC04FEB22859A
:0C3B6A002244B24041016FC08FEA82800B
:103B76001C495849FD171CC98A07BA978843828091
:103B8600B7070040FD17B385B7401C49BE955C4991
:083B96008A05BE95884182807A
:103B9E00011122CC405126CA4AC806CE4EC62A89E9
:103BAE00AE8415C85C401840AE97637AF704A10541
:103BBE000146BA952285EFC02FE51DED4C4001461A
:103BCE002285A105EFC04FE45C401CC0832709028B
:103BDE005CC023208902C147A68963F3F400C14962
:103BEE0013858900EFC02FDE232035012322050027
:103BFE002A842322A90221A01C40A6971CC048405B
:103C0E002104F240AA94232E94FE22956244D244BB
:083C1E004249B24905618280B0
:103C2600411126C21C49AE844C4522C406C62A84CC
:103C360063EBB7004849C1058A05EFC08FDB5C44DA
:103C460048C8C1075CC41C485848B2409386170050
:103C560014C88A072244BA9784C3924441018280D9
:103C6600011126CA5C41AE840C4122CC06CE2A84C0
:103C760063EFB7000845C1058E0536C632C4EFC0EE
:103C86004FD71C40B2462246C10708C41CC0584044
:103C96001C44370500FF930517000E074CC0BA9762
:103CA6008C43139784002183E98DD98D8CC3F24010
:0E3CB6006244A381C700D4C3D244056182805A
:0C3CC4001C4D13F6F50F81468C5F61BFAC
:103CD000411122C4004D26C206C62C404AC09D4751
:103CE000AA846391F5022C446844EFD08F831205B7
:103CF000136525002244B2400249AA8526859244D4
:103D0000410115B7A1476399F5022C446844A28686
:103D10000146EF40B05A937715002A8913651500C4
:103D2000F1FB005CB14526859D3D9307901300C1D2
:103D30005CC1232425017DBFA547639BF5002C446E
:103D40006844228781460546EF40706B2A89D1BFBF
:103D5000938765FF05476366F7042C44A9476844C9
:103D600063EEB700EFC0FFFB3C40294719C99945F6
:103D70006383E700A94512054D8DADBFEFC09FF2EB
:103D8000E5B7638BE70037A52240130505D930441A
:103D90006C44EFC0C0795DBF37A522401305050410
:0A3DA000FDB7920513E5E500B1B789
:103DAA009307E00D630BF50013771500814701C7F0
:0E3DBA000585933715003E8582808547EDBF55
:103DC8009307E00F630BF50013771500814701C7D0
:0E3DD8000585B337A0003E8582808547EDBF8C
:103DE60013771500AA8711C7936715009CC105456F
:103DF6008280014595CB13F737001DE783C6470040
:103E0600130790036392E6029C479CC113F51700C3
:103E160001ED13F7370009EB8843B79722409387E4
:0A3E260087341D8D133515008280CE
:103E30005D71A2C4A6C2CAC056DA86C64EDE52DC86
:103E40005AD85ED662D49307C0022A84AE8A3289D9
:103E5000B684631AF60281453D3359C19377350024
:103E600099E70347450093070009630BF706B6403F
:103E7000264496440649F259625AD25A425BB25BD2
:103E8000225C61618280930736FE93F7F70F054746
:103E9000636EF70CB689368A754C09A8631F890BC7
:103EA00025371DE55E85113711E15A8A130BFAFF9C
:103EB00063800902FD19CE852285F1311C485848DE
:103EC000AA8BB38747418A07BA9788C3E39809FC4E
:103ED000814963996909B38434418547E389F4F8DA
:103EE0009307E9FD93F7F70F094A6376FA00930702
:103EF00090026312F9109385F4FF228569314C0812
:103F0000DD356301050C93072002D949630EF900E2
:103F100093073002DD496309F90093074002E14944
:103F20006304F90093092002138AE4FF130B2002B3
:103F300063550A06639C041ED24493F7140093E56C
:103F40001400B1E7B1452285993993079013AA85EA
:103F5000232005005CC104C51DA8813D35F95E859F
:103F6000A53599B7228501398509A5B7FD47E3191C
:103F7000F6F681450939AA890D3D09ED4E85A93529
:103F80009305E00D31DD22852EC6F536B24522853A
:103F90005939F1BD9305E00FFDB7D2852285E5368D
:103FA0002C08913505C1638A69016246D2454E8568
:103FB0007D1AEF50D0722ACAA5BF6245EFA06008F3
:103FC000E35505FE938524008A052285C93E939713
:103FD000840033E92701AA852320550123222501E6
:103FE000DDD422852EC6413EB245FD1493972400B0
:103FF000AE9788C7F5B79307B9FD93F7F70F6365D9
:10400000FA069385F4FF2285BD3E4C08E93B5DD955
:10401000138AE4FF130B0004E94B794CE35C40F195
:104020009305FAFF228585362C08753B41DDD28544
:104030002285913E11819377D5FFE38567F9930936
:10404000E5FD6245EF90F07F63EC3B01E34C05F644
:104050006246D2454E85791AEF5070682ACA7DBFF4
:10406000E3783CFF75F5B9BF930780026319F90245
:1040700081452285093E4C08BD3329D585452285D9
:104080001936935745001307100309456384E70069
:10409000138537FCD245EF5020422ACA61BD9307F1
:1040A000B002E311F9F285452285F13C9377F500E2
:1040B000AA89E39947F181452285F134E30405F0AB
:1040C00093773500E39007F003474500930710030B
:1040D000E31AF7EE93D54900032A85008E0537755C
:1040E0002240014693E525001305C563EF60E034E7
:1040F000E30A05EC4841300893554A00EF50800E22
:10410000E247E38107EC13F7170001EF13F73700DD
:10411000E31A07EA94433797224013078734E3935F
:10412000E6EA7247E31007EA3ECA29B52285A134C0
:04413000FD1409B5BC
:10413400184109E723200600014582809377370060
:1041440081C708C2054582805C4393F6F70FE39A62
:0C415400B6FE210718C213D58700828038
:1041600075719307000426C3AA841305002006C7AF
:10417000DAD83ED42E8B22C54AC1CEDED2DCD6DAC6
:10418000DED6E2D4E6D2EAD0EECE02D6EFC08F84FD
:104190002AD893070002130500083EDA02DCEFC0BC
:1041A0006F832ADEA6C082C482C61306A0036308FA
:1041B0000B0089471306C0036303FB0001468C5CB8
:1041C000814628104D34B7070001FD173EC6B7776A
:1041D00022409387C767B78B22403EC8377C224076
:1041E0009387CBAA3ECA9307CC72014D3ECCB257FF
:1041F0006389072A4257FD173ED68E073E97032A4A
:104200000700B247834B3700032C4700337AFA008C
:10421000C24733877701D247834907003387770145
:1042200003490700130740066374770113690910F7
:10423000E247060913F70903C1463E9913F4F90052
:104240006305D704930600026302D70A63190D1EA3
:10425000FD7C856A33778401058B93161700CA9617
:1042600083DD0600050CB3F59D016392552393870A
:10427000FAFFB3FDFD00BC406393B71D19E328109E
:10428000813C2685EFF08F97F1B7631B0C00131765
:104290001C003A99FD75856663688C00054D81BFE9
:1042A000E3170DFE014DA1B7035709003375B700A1
:1042B000631FD5001385F6FF698FA84009096315B0
:1042C000E502281031342685EFF04F93E1BF9306C5
:1042D0001C0063F686005E86D285281069328355FD
:1042E00009002810C5327DBF050C7DB7630F0D0096
:1042F00013171C004A970357E7FFFD76758F8D66ED
:104300006317D70481452810393A931A1C00CA9ABA
:104310007D7D856C9D4D63668C0663040B0295471D
:104320006391FB0281452810B93801ED85452810BD
:104330009938937735006387071E3D898947631B4A
:10434000F51E814A814CFD7D056D1D4C71A8054708
:10435000E37687F5BC401547379522406393E71A0B
:10436000B7752240938585651305C5A2EF80D01FE0
:10437000905C8C4081462A84EF8030362285EFB0F5
:104380005FE303D70A00B376A7016395960393868C
:10439000FCFF758FB440639CE6006394B60128105F
:1043A000053A2685EFF08F85050C890AADB7E3073E
:1043B0000CEE4DB7D28593061C005E862810653042
:1043C00083D50A0039BF7D1493171400CA9783D789
:1043D0000700B3F6B7016392A6039306FDFFF58FBE
:1043E00063948701850A850C79FC8547639CFC02F0
:1043F00093F7090485CB81450DA0D6852810EFF0F1
:104400008FF811C1850C850AC5B728102ECEEFF0A4
:104410008FF6F24511C1AA850504E31854FF281050
:10442000193049B5E20993D9894163D7090081451B
:104430002810EFF04FFF850AD6865E8621A2094735
:10444000631CE4020547E30BECE4014793F9190010
:104450009306FCFF638B0900835529007D75E98D68
:1044600005656394A50093561C008547E397F6FC09
:10447000E30A07E28546D1B70547E301ECE213778B
:104480001C0061D70D47E317E4EC0547C1B7D2859F
:104490002810E2865E86EFF00FFDEE8528101D30B5
:1044A000B9B3364501CD4C410146A105EFB0BFD6A9
:1044B000B647D84398C32647D8C3BEC4BC40E39B85
:1044C00007E8E257E38807E8F25742559C43BEC22B
:1044D000EFB09FD47255EFB03FD42685EFF0EFE6F2
:1044E000BA402A441645A6459A440A49F659665ADE
:1044F000D65A465BB65B265C965C065DF64D496116
:10450000828009476397E700B77522409385C565A8
:10451000A1BDB77522403795224093858567130565
:1045200085D3A9B5E30F05E0034745009307900342
:10453000E319F7E02810EFF00FE42810EFF0AFE3F5
:0C45400081462146D2852810E530A9BB39
:10454C00484111E18280411106C622C44041EFB0BE
:0E455C00FFCB228565FCB240224441018280E3
:10456A00011126CAAA841305000322CC4AC82EC602
:10457A0032C406CE3689EFB07FC7B245224604C19F
:10458A004CC5231AC5009D472A846385F4008547D4
:10459A00639CF4029C459183C207C183231BF400E8
:1045AA00EF40F01A914708C8231D24012314F4028E
:1045BA0013050002EFB07FC148D4F240228562445D
:1045CA00D244424905618280378522401305C5B528
:0845DA00269583470500D9B7BF
:1045E200411122C42A84485506C6EFB0DFC2228593
:0A45F2002244B24041016FB01FC225
:1045FC000356A502814663E5C60081473E8582804D
:10460C00585593973600BA97D843E309B7FE8506F9
:02461C00DDB708
:10461E00411122C426C24AC006C62A84AE843289FB
:10462E00F93731E1835584028357A40263EDB70055
:10463E00485499058E05EFB05FBB8357840248D46A
:10464E0099072314F4028357A402485413871700C2
:10465E008E072315E4023E9523002501A3000500D5
:10466E002311050044C1B240224492440249410143
:02467E00828038
:0A4680005C4191E3A5BF3E85E5BF54
:10468A00011122CC404106CE26CA4AC84EC619ECB0
:10469A00F2406244D2444249B249056182800D47E0
:1046AA00E398E7FE91472300F500DDB72E89A2873C
:1046BA00C443F9DC832949003E85CE851D3FA68780
:1046CA0065D9834705000947F51793F7F70FE361A3
:1046DA00F7FC95472300F90095440146CE852285CB
:1046EA00153F83470500C5FF230095004040F5B7F5
:1046FA00A9C993F73500A1E7DC4113F7F70F631057
:10470A00C704011122CC26CA4AC84EC652C406CED4
:10471A00B6842A8993D9870013848500014A634A9B
:10472A003A01F2406244D2444249B249224A0561FE
:10473A0082800C404A85050A82941104CDB73683DB
:04474A0002838280E4
:10474E008C45B7562040938646691306B00979BF4B
:10475E008C45B77620409386865E1306A00679B701
:10476E00411122C42A842E85B285104006C6FD331F
:10477E005C50232405005CC11C5099E708D0B24060
:10478E00224441018280BA87984775FF88C7C5BF0A
:0C479E008C450855014691816F30701B5E
:0847AA008C4508556F30F01337
:1047B200397122DC26DA5AD006DE4AD84ED652D4D5
:1047C20056D25ECE62CCAA842E84328B368799C6AC
:1047D20083D7850193E78700239CF500DC502310E3
:1047E20064039C43DDE3A28562548854F250D254A0
:1047F2004259B259225A925AF24B624C5A86025B81
:10480200BA8621616F30F039DC5713193A003E99AC
:1048120083470900F11793F7F70F63EFFB02814A11
:1048220005A8545493973A00B69783C6070063903D
:10483200860383254900DC43639BF5000356290068
:10484200885481463AC6EF30C05532478509850AF9
:104852008357A402E3C7FAFC050ADC5083D6A702F9
:10486200E344DAFAE38109F8A28562548854F250EB
:10487200D2544259225A925AF24B624CDA864E86EE
:10488200025BB25921616F307033014A8149854B15
:04489200154CE1B729
:10489600011122CC4AC84EC606CE26CAAE89B285BA
:1048A6003686B76620408344650003294501230305
:1048B6000500232A0500938626FB2A84253D1C44F1
:1048C6009DEB8355640199C98357440181EB0854D4
:1048D6000146EF3050260854EF30D003835644018A
:1048E60003566401CE852285B3349000C135230377
:1048F6009400232A2401F2406244D2444249B24938
:044906000561828045
:10490A00411122C426C206C6034755008547AA8418
:10491A002E846319F7005C512E86894583D6A70138
:10492A00913508C810440C482244B2402685924466
:08493A009306B004410199BF8E
:10494200411122C44AC006C626C203475500854704
:104952002A892E846317F700B2862E869D45393543
:1049620008CC044C50444A85A685930630041D3772
:10497200B240224403D5640102499244410182803B
:10498200411122C42A84085506C6EF30300E8357DF
:10499200C40158508507C20783566702C183231E8C
:1049A200F40063F4F6002313F702B24022444101FB
:0249B200828001
:1049B4008357C501FD17231EF50008556F30100FEE
:1049C40081C9184193F73500D98F99E39C411CC1E3
:0249D4008280DF
:1049D6001C459DE7411122C42A843795224026C2F0
:1049E600130585D3AE84B28506C6EF80803708C42A
:1049F6001305C4002244B240A68592444101C1B7C2
:024A06008280AC
:0A4A080037862240130646D0D9B7C6
:104A120003C74500411122C406C626C2A5472A84FF
:104A2200631BF70283548501C167FD176398F40085
:104A3200378622401306C6B92285693F0356C40150
:104A42008357E40108542244B240A68592441D8E45
:0C4A520041016F3080798354A501F9B751
:104A5E005851035887019377280085C33786224023
:104A6E00130646CF11A837862240130646CF22449E
:104A7E00B24092440249410181BF411106C622C48F
:104A8E0026C24AC093F7F50089486394170593D759
:104A9E0045008346650099C68356E7018506231FA8
:104AAE00D70031A08356C7018506231ED7000549BE
:104ABE00A5CF2E84AA84BE8501463A85913E8347B2
:104ACE000500B1CF37862240130686CFA2852685F4
:104ADE0079BF83C745006395C7009C45918355BF39
:104AEE006397D70283476500BDFF85472303F50013
:104AFE009C459DCB1368480093F6F700231C0701D5
:104B0E006395160191830D4965B79C47E5BF9C459A
:104B1E0013682800231C07019183154951BF8D4747
:104B2E002300F500A3002501B2402244924402491D
:044B3E00410182802F
:0A4B42009306E0041306D00411BF2F
:0A4B4C00930660041306500429B715
:104B5600411122C42A840841814506C6EF3060759A
:104B66000840B945EF30604808402244B2408545C8
:064B760041016F30B00C9C
:104B7C00411122C42A840855014606C6EF30A059BB
:104B8C000854814601468145EF30500713058402D5
:084B9C002244B240410155BF63
:104BA400AA8703C657000547AE8648516314E6003A
:104BB4000546A5B42A868857B7852240938585D5AE
:044BC4006F205055B9
:104BC800AA875051034555000547AE866315E50091
:104BD80032856F2030518857B7852240938505D696
:044BE8006F201053D7
:104BEC005C51411122C403D6A70106C62A84A13305
:0C4BFC00AA8522852244B2404101C9B7BD
:104C0800AA875051034555000547AE866315E50050
:104C180032856F20304D8857B7852240938505D55A
:044C28006F20104F9A
:104C2C00D5C9011122CC26CA06CE93F71500AA8449
:104C3C002E8491CB08558585EF30E03EF2406244DE
:104C4C00D2440561828093F73500BDC313F4F5009F
:104C5C00194793D74500630BE4002947630DE40023
:104C6C000947631FE402BE85053FC9BF0855BE85D1
:104C7C00EF308046E1B78346550011476387E60065
:104C8C0008559945EF30C04555BF6C003E85EFC0C7
:104C9C000FA1B2458054EFB01067AA852285DDB70D
:104CAC001147E38DE7F80855BE85EF30A03379B78F
:104CBC008C410855EF30801F83474400A285268520
:104CCC0013972700B7872240938747BDBA979C4319
:064CDC008297ADB7828053
:104CE200011122CC5AC006CE26CA4AC84EC652C4A8
:104CF20056C213F735002A84328B1DCF13F7F50005
:104D02008946631CD704918119C2631DE60022857E
:104D12006244F240D2444249B249224A924A024B88
:104D2200056155B56244F240D2444249B249224A31
:104D3200924A024B0561B5B503A845009306C0022D
:104D42001377F80F6304D71463EEE6009946630302
:104D5200D7029306B0026307D702378622401306B2
:104D620046B611AA9306D0026308D7149306B00977
:104D7200E315D7FEE3130BFE9386850013568800D6
:104D820081458DAA89472E8A6304F6008C45713DC0
:104D92000329CA00630C090C93773900E1EB8324E1
:104DA20049009307C008CA8913F7F40F6310F7028A
:104DB200A1808947FD146307FB00930A890081499A
:104DC20063CF99028A04CA9483A9840003C7490065
:104DD200930700036319F70489476319FB02085418
:104DE200EF30A03A854508546244F240D244424929
:104DF200B249224A924A024B05616F30803983A53B
:104E02000A00228585091535910A5DBF83A58900AF
:104E12002285213D854708548545E317FBFCEF3089
:104E220040328145C9B7930710036311F7048547E0
:104E320008546314FB02EF30403083A58900014619
:104E420008546244F240D2444249B249224A924A48
:104E5200024B918105616F30403089476314FB003A
:104E6200EF30202F83A589000546D9BF378622401F
:104E7200130646B6D28522856244F240D2444249A4
:104E8200B249224A924A024B0561A9B69845E30605
:104E920007ECBA87E31306ECD447B5CA13F736001A
:104EA2003DE7D042130530091377F60F6316A704C6
:104EB200814601468C473DA8E31106EA984511EF69
:104EC200814681456244F240D2444249B249224A73
:104ED200924A024B05616F0000049377370081EB21
:104EE2000346470093060009BA87E307D6FA8146CC
:104EF2000146BA852285F9B7130540096315A70053
:104F0200A106218245BF9306B00AE308D7E493863F
:064F120087000946B5B559
:104F1800797122D426D24AD04ECE56CA5AC806D65D
:104F280052CC5EC662C466C2AA842E89B28936840F
:104F3800333BB000FD5A99CD93F7350081EF03C795
:104F48004500930710026317F70008558145814A09
:104F5800EF30C043014A930B10027D5C938CF9FF3C
:104F6800631D3A03FD576394FA088854B3053B015F
:104F7800EF302041631709088A09A299631634099A
:104F8800B250225492540259F249624AD24A424BD0
:104F9800B24B224C924C4561828093172A00A2970B
:104FA8008C4395C193F7350099EF83C74500639CFF
:104FB8007701639C8A018854B30A6A0133864C419D
:104FC800D685EF30A03C050A61BF2254B250025981
:104FD800F249624AD24A424BB24B224C924C268545
:104FE800925437862240130606B74561CDB2E305D1
:104FF80009F863980A008325890001462685F13956
:10500800A5BF0146CA85DDBF0C40014663135B019D
:0C5018008C452685D9311104050B8DB79D
:10502400797122D426D24ECE52CC56CA5AC85EC604
:1050340006D64AD062C4AA892E84B284368AF54A36
:10504400794BFD4B2285EFE01FD619C1B9E431A09D
:105054002285EFE03FD715C1A9C0225403A58902D8
:10506400B25092540259F249D24A424BB24B224CAA
:10507400D285624A45616F30801469C093773400E9
:10508400D5EF5C4013D9870093F7F70F6393570567
:10509400A1C40A09229963172403B25022549254DA
:1050A4000259F249624AD24A424BB24B224C456100
:1050B400828083A50B00D68662864E859537050BC4
:1050C400910B3DA00C44D28626864E85913F110457
:1050D400D9B763986705D5DC83AA0901930B8400CB
:1050E400014B93871A0023A8F9007D1913CC1400EF
:1050F400E3412BFD0A094A940C444E85D286268648
:105104000537225403A58902B25092540259F24938
:10511400624A424BB24B224CD685D24A45616F203B
:1051240030676396770193C41400004421BF1307CA
:10513400C0026395E7001C4485F309BFA2854E8530
:10514400E534225403A58902B2500259F249D24AE5
:10515400424BB24B224C5286A685624A9254456118
:045164006F30800622
:1051680001114AC80329050106CE22CC930729005C
:1051780026CA4EC652C456C25AC01CC92A840855EB
:10518800AE84CA85328AB689EF2050600854130B62
:105198001900DA85EF30A0128C4401462285353E8D
:1051A8008448930AC00AB1E8D2852285A53C5C50A0
:1051B80008548C439947639CF5028145EF30E027FA
:1051C8000854EF2030780854CA85EF20107F08541F
:1051D800DA85EF20B05B08546244F240D244424979
:1051E800B249224A924A024B05616F30E00D13968C
:1051F80029001506EF302016F9B783C744006399D4
:1052080057018C44CA8601462285093DC44461BFC2
:10521800CC442285013C08548545EF3060099386CB
:0C52280019005286A6852285253F71BF23
:10523400011122CC4AC84EC606CE26CA52C42E89B3
:10524400A302C5002A842322250323280500085528
:10525400B2854A86EF20F001834954008547639460
:10526400F900232209028324C9008DC093F7340076
:1052740091EF03C744009307C0036319F7008C44FC
:1052840022855D320854EF30C018A9A08327090095
:1052940089EBA6852285493A0854B945EF20105573
:1052A400D5B71D476392E7048547639EF90023033E
:1052B4000400CC44B75620409386C6B41306300489
:1052C4002285EFF04FC3CC482285B93A0854EF2029
:1052D400302179D108546244F240D2444249B2495F
:1052E400224A05616F20501409476392E7048C40F9
:1052F4000854EF20303C034754008547631EF700F1
:10530400230304008C44B7562040938626B4130626
:10531400B0042285EFF02FBECC442285313283576E
:105324008901858BA5D30854EF201062B5B7F51712
:105334000D476369F708854703AAC4006399F90018
:1053440048500D468545EFF04FAD231E39018C4082
:105354000854EF203036832709000D470546638A39
:10536400E700114709466386E70015476397E7009E
:105374000D4608548145EF20307C032709009947E6
:105384006319F7020854EF2010598545228509381E
:105394000854EF2050580854EF20F05790448146A9
:1053A400D2852285C133032709009947E31CF7EC12
:1053B400E5B522858545EFF0AFFE08548545EF201D
:1053C400706FE9BF85476397F9000D46A9454A8583
:1053D400EFF0AFA4DD452285EFF08FFCD94522859F
:1053E400EFF04FFE8C4408549181EF20704FE94553
:1053F4002285EFF02FFD8C4822853D30A9454A8552
:10540400EFF08F9F834605000D47AA8708546394E5
:10541400E600B94561B503D627008146A945EF20CA
:0454240030188DB5FA
:10542800411122C42E84CC4526C206C6AA84EFF0B8
:105438006FFF0C442244B2402685924441016FF02C
:025448006FFEF5
:10544A0003C74500411122C426C206C6930730038A
:10545A002A84AE84631FF7008C45EFF08FFCC444A6
:10546A00844489EC0854B945EF20F0371146894540
:10547A0015A80855B945EF201037DDB793F7340062
:10548A00A1E783C74400130780096394E70208541D
:10549A00B945EF2050358C44F1D92285EFF06FF8E9
:1054AA0011468D4508542244B240924441016F206E
:1054BA005068130790096399E7008C442285EFF03E
:1054CA004FF6DC448C47C9BFA6852285EFF06FF5FD
:0254DA0071BFA0
:1054DC008C45411122C406C62A84EFF06FF408549F
:0C54EC002244B240814541016F20104A6B
:1054F800011122CC26CA52C406CE4AC84EC62A8AF0
:105508003284814481C5EFF0EFF1854411C8032945
:105518004400814921041359890063C02903CA94AE
:10552800624403258A02F2404249B249224AA685CA
:10553800D244014605616F20F05F0C405285850911
:08554800EFF04FEE1104D1BF9A
:065550002E86814555B7CF
:1055560001114AC80329050122CC26CA52C456C2E3
:105566005AC006CE4EC6930729001CC98357C501EB
:10557600130A1900032B8501835AE5012A84231C8B
:105586002501231D4501231FF5008845AE84EFE064
:105596007F811DED83290401938719001CC8884467
:1055A600EFE03F8209E50854D285EF2030410854E8
:1055B600CE85EF20D01DCC442285EFF0CFE60854EF
:1055C600D285EF20D01C8C44CE8605462285813CB0
:1055D6008C48232C6401231F54012285EFF0AFE48D
:1055E60008546244F240D244B249224A924A024BDB
:0A55F600CA85424905616F20901933
:105600008C45411122C406C62A84EFF02FE20854CB
:0A5610002244B24041016F207033C4
:10561A00011126CA844522CC06CE4AC84EC62A841F
:10562A0091EC0855B945EF20101C08546244F24029
:10563A00D2444249B24905616F20505D93F7340064
:10564A00B9E303C74400E947631FF70203290501C9
:10565A0083A9C4000146930719001CC983A58900C0
:10566A00CA86653A8C442285EFF0AFDB0854EF20F6
:10567A00F0590854CA85EF20501183A5C900228524
:0A568A00EFF02FDA5DB7A685DDBF53
:10569400797122D426D24ECE52CC56CA5AC85EC68E
:1056A40062C406D64AD0AA842E848949130AB00259
:1056B400930AC002130B3009930B4009130CB00A70
:1056C4009377F40063923703935544002254B25005
:1056D4000259F249624AD24A424BB24B224C2685C5
:1056E400925445616FF00FD263090412937734002A
:1056F40063950712834744006399470B0C4426853E
:10570400EFF08FD28329C4006389091093F739001D
:105714006395071003A949001307C008CE87937641
:10572400F90F639EE60013598900938A8900014AA0
:105734007D19634F2A030A094E998327890003C7F9
:10574400470093060003631DD7028C472685EFF0BC
:10575400AFCD22548854B25092540259F249624A4D
:10576400D24A424BB24B224C894545616F205022AC
:1057740083A50A002685050AEFF00FCB910A55BFD1
:1057840093061003631BD7088C4722548854B250E5
:1057940092540259F249624AD24A424BB24B224CC9
:1057A4000946918145616F20301B63985707004477
:1057B4002DC40329C400630D090493773900A9EBB0
:1057C4008327490013F7F70F631467010044CDBD25
:1057D400631E77030C44268593D9870021094D3D28
:1057E4000144634E3401B250225492540259F24996
:1057F400624AD24A424BB24B224C45618280832595
:1058040009002685050469351109E1BF630787018D
:105814000C442685B53D404465B5A2852254B2505A
:105824000259F249624AD24A424BB24B224C268573
:10583400925437862240130686B745616FF06F99FC
:1058440001114AC803A9450022CC26CA4EC652C437
:1058540006CE2A8AAE8413598900938985000144AF
:10586400634A2401F2406244D2444249B249224A82
:105874000561828083A5090052859109EFF0CFBAB2
:1058840083278A0099CF0A0426940C446244F24088
:10589400D2444249B2491305CA00224A05616FF055
:0658A4002F92050475BF00
:1058AA00411122C406C62A84493F08542244B24000
:0A58BA009305200241016F20B02287
:1058C40079714AD00329050122D426D206D64ECEB8
:1058D40052CC56CA5AC8930719001CC92A84884551
:1058E400AE84EFE04FCC21E58329040101462285F3
:1058F400938719001CC88C44CE86EFF06FF2CC4419
:105904002285EFF06FB28844EFE0CFCB21E19C48D1
:1059140099E3DC4889CB0854EF20803C09E508541E
:10592400CA85EF20D0090854CE85EF206066700048
:105934009305000713850401EFE08FFF2A8B81494B
:1059440063946903CC482285EFF00FAE0854CA85EE
:10595400EF200064B250225492540259F249624A30
:10596400D24A424B45618280324793972900BA97C5
:1059740003AA070003258A00EFE0EFC239E1832A76
