:0200000480007A
:10000000370100801301C117E70001000100000063
:1000100000000000000000000000000000000000E0
:10002000232E11FE232C51FE232A61FE232871FE6C
:100030002326A1FE2324B1FE2322C1FE2320D1FECC
:10004000232EE1FC232CF1FC232A01FD232811FDA2
:100050002326C1FD2324D1FD2322E1FD2320F1FD30
:100060003971732F2034AD4F630EFF058D4F630937
:10007000FF019D4F63F1EF09B70F008063E1EF03CC
:10008000B76F0080938F8F9D23A0EF01732F1034E3
:10009000B76F0080938FCF9D23A0EF0171A8B76F3A
:1000A0000080938F0F9E23A0EF01732F1034B76F42
:1000B0000080938F4F9E23A0EF0197200000E780E0
:1000C000A07D9DA8B76F0080938F0F9D23A0EF01A7
:1000D000732F1034B76F0080938F4F9D23A0EF01D3
:1000E00097300000E780408C2AD6732F1034110F10
:1000F00073101F3491A0B76F0080938F0F9D23A0C2
:10010000EF01732F1034B76F0080938F4F9D23A0A2
:10011000EF01370F01F0130F0F00930FA002232000
:10012000FF01930F20042320FF01370F0080130FDE
:10013000CF1773101F3409A0F250E2525253C2532A
:100140003255A255125682567247E2475248C2486B
:10015000324EA24E124F824F21617300203005654E
:1001600001150F5005706DFD8280411106C622C435
:1001700073000000B24022444101828017C1000098
:10018000130141DC178500001305C5E797950000B2
:100190009385859A6306B500232005001105DDBF10
:1001A00017650000130505287111976500009385F8
:1001B00065276308B500144111052AC082960245DF
:1001C000EDB7110137150000130505887310453090
:1001D0003725000013058580731005309730000027
:1001E000E780E0BD01A0000000000000000000006A
:1001F00000000000000000000000000000000000FF
:020200000000FC
:10020400130605001305000093F615006384060029
:100214003305C50093D5150013161600E39605FEA5
:10022400678000006340050663C605061386050063
:10023400930505001305F0FF630C060293061000F6
:10024400637AB6006358C00013161600939616001E
:10025400E36AB6FE1305000063E6C500B385C54036
:100264003365D50093D6160013561600E39606FEA2
:100274006780000093820000EFF05FFB13850500A8
:10028400678002003305A04063D80500B305B04081
:100294006FF0DFF9B305B04093820000EFF01FF96F
:1002A4003305A040678002009382000063CA050002
:1002B400634C0500EFF09FF713850500678002008B
:1002C400B305B040E35805FE3305A040EFF01FF638
:0802D4003305B0406780020011
:0602DC00484161818280AF
:0E02E2005C41C18393F7F70FE5DF0CC182800A
:1002F0005C41E18389C708411375F50F82807D5504
:020300008280F9
:10030200B70701F01307500398C71D47D8C782806B
:020312008280E7
:020314008280E5
:0C031600370501F017030000670063FDCD
:10032200370701F05C43C18393F7F70FE5DF08C39A
:04033200014582807F
:10033600411122C406C62A840345040009E5B240D9
:1003460022444101828097000000E78060FD19E1A8
:0A0356000504DDB71305F00FDDB755
:10036000370701F05C43C18393F7F70FE5DF828025
:10037000B7070040B7C60B4093870764938606E42F
:100380001387079C1107232E07FEE31DF7FE930733
:080390000764E397D7FE8280A9
:0C039800232005001C41898BF5FF8280AA
:1003A4004111370503F006C622C497000000E78018
:1003B400A0FE370403F0B7550080130504041306A8
:1003C40000029385054597400000E780207AB7B77F
:1003D4000B009387F77F5CC0B70700401CC48547B8
:0A03E4001CC0B24022444101828097
:1003EE00B70705F003A7470883A607081E07369729
:1003FE00138616000A07B70604F0369723A0C7081F
:10040E0008C383A60708130730066379D70003A72E
:0E041E004708050723A2E70823A007088280ED
:10042C00411126C2AA841305B00506C622C4970042
:10043C000000E78040FB376400801304849E93D750
:10044C004400A29703C50700BD88269497000000BE
:10045C00E78060F90345040097000000E780A0F8EE
:10046C002244B24092441305D00541011703000009
:04047C00670063F7BB
:10048000372704F0B70704F0130707E023A007009D
:100490009107E39DE7FEB70705F023A2070823A015
:0404A0000708828047
:1004A400370704F0130707398146130600709307D2
:1004B40007E78C43910723AEB7DEE39CE7FE938600
:1004C400060813870720E394C6FEB72704F01387B2
:1004D40007C0938707D9232007001107E31DF7FE00
:0204E400828014
:1004E6003787008083264700411122C406C6854708
:1004F6002A846380F60209466381C606A94663120A
:10050600D514370705F08327470885072322F70800
:1005160021A89307F004630DF5029307B005631B4A
:10052600F50289472322F700370405F0032744081C
:10053600B94763FBE70097000000E78080F6832752
:100546004408FD172322F408B24022444101828068
:100556009147C9BF23220700C1BF930705FD232288
:10056600070093F7F70F25466363F6023786008088
:10057600832506002322D70093972500AE9786078A
:10058600938707FD3384A7002320860071BF930756
:10059600F5FB93F7F70FE3F9F6F893074004631BAF
:1005A600F502B787008083A6070089EA370705F0BA
:1005B60083270708FD172320F708BDB7B70705F0FF
:1005C60003A7070863F4E60803A70708158F23A007
:1005D600E70899BF9307A5FB93F7D70FB1D7930702
:1005E600B0046318F502B70705F003A707089306DA
:1005F6003006370605F0B70504F0E3C7E6F28327B1
:1006060046089E07BA978A07AE9723A007000507F4
:10061600EDB71305A00297000000E78020DD130563
:10062600500497000000E78060DC1305B0059700D2
:100636000000E780A0DB228597000000E780E0DE6F
:10064600E5B5B5466317D500B70705F023A007083B
:10065600E1BDA146631CD500B70705F003A707084F
:10066600E30407EC03A707087D1795B7ED46631764
:10067600D500B786008023A006006DB5FD47E3FDD3
:10068600A7FAB70705F003A7470883A607081E07BA
:1006960036970A07B70604F0369708C303A7070874
:1006A600050723A0E70883A6070813073006E37D9E
:0E06B600D7E603A74708050723A2E70841BFC0
:1006C400411122C426C206C62A8493040510034598
:1006D400040001C9050497000000E780C0E0E318A6
:0C06E40094FEB240224492444101828006
:0C06F000B70705F0B8477D1575FD828046
:1006FC00370705F03C438D46214693F7D70F3CC393
:10070C0013080002B70705F00347050063EEB604B3
:10071C00F8C70505B0CBB84B7DFFFD15F5F582800C
:10072C000347050063FBB60283483500A307E100CD
:10073C002306110183482500A306110183481500E7
:10074C00230711013247F8C723A80705B84B7DFFD3
:10075C001105F115F1F541018280F8C70505B0CB03
:0C076C00B84B7DFFFD15FDB741117DBFAE
:10077800B70705F01307F00FF8C78D462146130891
:10078800000263F9B60223A80705B84B7DFFF847B6
:10079800F115110593588701230E15FF935807018A
:1007A800A30E15FF93588700230F15FFA30FE5FE2F
:1007B800E9F98280B0CBB84B7DFFF847FD150505F8
:0607C800A30FE5FEF5B7EA
:1007CE00011122CC316426CA06CE130404359304DB
:1007DE00F00F85451305F10097000000E78020F922
:1007EE008347F1006389970029457D149700000027
:1007FE00E78060EF79FC33358000F2406244D244EA
:04080E00056182807E
:10081200370705F03C43011106CE93E78700130525
:10082200F1003CC3854597000000E78000F5F240E7
:04083200056182805A
:10083600370705F03C43797106D693F7770F3CC32B
:1008460085451305F10197000000E780C0F2970087
:100856000000E780A0F72AC609E997000000E780B4
:0E08660020FB3245B250456182800545E5BF5A
:10087400797122D4616426D24AD04ECE06D6AA8497
:100884002E891304046A9309F00F854568009700C4
:100894000000E78060EE8347C10063993701054596
:1008A4007D1497000000E780A0E465F00347C100D1
:1008B4009307E00F0145631FF700CA85268597005B
:1008C4000000E78060EB6800894597000000E7803E
:1008D400A0EA0545B250225492540259F2494561A6
:0208E400828010
:1008E60001119317850122CC26CA06CEE1872A84F8
:1008F600AE8463DF0700814513057003970000008F
:10090600E78040FE0547AA876363A70A1374F407C6
:10091600B1476313F408936704042304F10093D7E3
:100926008401A304F10093D704012305F10093D7B2
:100936008400A305F100230691009307500919C40A
:10094600214785476314E4009307700899452800FA
:10095600A306F10097000000E78020DAB14763198B
:10096600F40085451305710097000000E780A0E0BC
:10097600294485451305710097000000E780A0DF34
:1009860083477100139787016187635207027D14BD
:100996001374F40F79FC21A897000000E78040E764
:1009A60097000000E78000E99307F00F2DF5F2406D
:0A09B6006244D2443E850561828050
:1009C00011E5B767008003C5873E828005458280B8
:1009D000011122CC06CE26CA4AC80D44631505145F
:1009E00009651305057197000000E780A0D0B707DF
:1009F00005F0F843294413678700F8C3B843136729
:100A00008700B8C3F84313674700F8C3B8431377A8
:100A1000B70FB8C3F84313672700F8C37D148545A3
:100A200068001374F40F97000000E78020D57DF470
:100A30008145014597000000E78020EB85472A8427
:100A4000631FF5049305A01A214597000000E78075
:100A5000C0E9AA84631785049145680097000000E7
:100A6000E780C0D18347E100639B97020347F10011
:100A70009307A00A6315F7021304803EB7050040F0
:100A80001305900A97000000E78020E631C913059E
:100A9000803E7D1497000000E780C0C565F00144EA
:100AA000ADA081451305900A97000000E780E0E3C0
:100AB00005496365A4001309900A09449304803E24
:100AC00081454A8597000000E78020E225C513058F
:100AD000803EFD1497000000E780C0C1F5F0C1B76B
:100AE00081451305A00397000000E78000E045F969
:100AF0009145680097000000E78040C88347C10027
:100B0000314493F7070491E31144B78700802384AD
:100B1000870013341400B76700802384873E970052
:100B20000000E78040CF2285F2406244D24442492F
:100B30000561828093050020414597000000E78011
:060B4000C0DA31FDD9B757
:100B4600B767008083C7873E858B5D8D3DE9B78794
:100B5600008083C78700411122C44AC006C626C248
:100B6600A18B2E89368491E326068544B3B484008E
:100B7600C504B285268597000000E780A0D615E556
:100B8600930500204A8597000000E78080CE09C5BE
:100B96007D14130909206DF4C9476398F400814553
:100BA600314597000000E780E0D397000000E7801A
:100BB60020C633358000B2402244924402494101A6
:060BC60082800D458280D3
:100BCC008347350003472500A207D98F034715003B
:0E0BDC00A20703450500D98FA2075D8D828018
:100BEA00AA872A968507850503C5F7FF03C7F5FF78
:0A0BFA00198D6383C7007DD582804A
:100C04005C45F915F91763F2F502411122C42A84EF
:100C14000355A50006C697F0FFFFE780A05E1C50B1
:0E0C2400B24022443E9541018280014582800B
:100C32001C418DC33E87930500021306A0030507DE
:100C42008346F7FF63F2D502E39BC6FE9386270035
:100C52006304D700FD5711A803C6070093060003DB
:0E0C6200FD576314D60018C181473E8582807D
:100C700001ED814725459CC1828025458147F24091
:100C800062449CC1056182801C41011122CC06CEC8
:100C90002A84E5D703C707006DD38356450003D7E1
:100CA0006700E39CE6FC03C517002EC69700000012
:0E0CB000E78040D10589B24569F11C40C9B703
:100CBE0083C7B50103C7A501A207D98F0D47631AD4
:100CCE00E50003C7550183C645012207558F42072C
:060CDE00D98F3E858280E3
:100CE400011122CC06CE404D014781471305000275
:100CF4001548A1481303E0022D46B306E40083C659
:100D040006006382A602639406019306500E6317DD
:100D14001701338EF500A3046E008507338EF500AA
:100D2400A304DE0085070507E319C7FCAE97A38477
:100D340007008347B4001305C4012EC62384F500BD
:100D440097000000E78080E8B245F24088C18347FD
:100D5400740103476401A207D98F2393F5008347E5
:100D64009401034784016244A207D98F2392F500BA
:040D74000561828013
:100D78005C51638DB702411122C426C206C62E8675
:100D88002A84AE849305850203451500854697009D
:100D98000000E78000DB814719C18547FD5444D036
:100DA800B240224492443E854101828081473E857B
:020DB800828037
:100DBA00411122C406C6FD575CD1A30105002A844D
:100DCA0097000000E780E0FA91473DE50347742267
:100DDA0083476422ED7622075D8F42074187938617
:100DEA0056A58D47631AD704834784021307B00EAA
:100DFA006389E700E10713F7F70F8546894763ED33
:100E0A00E602B75500800D46938505471305E405AC
:100E1A0097000000E78000DD814719CDB7550080B3
:100E2A001546938545471305A40797000000E780F8
:100E3A0060DBB337A0008607B24022443E854101F9
:020E4A008280A4
:100E4C00854763F7B70E5845011122CC06CE26CA4A
:100E5C004AC84EC62A8463FAE50203470500894650
:100E6C00AE84630CD7068D46630ED708631FF7005C
:100E7C0013D915001C4D2E9993559900BE959700CA
:100E8C000000E780E0EE11C9FD57F2406244D24405
:100E9C004249B2493E85056182801C4C9309190078
:100EAC0093D599001379F91F2299BE952285034990
:100EBC00890297000000E780A0EB79F593F9F91F00
:100ECC004E94834784028588A207B3E7270199C013
:100EDC00918365BFD207D1834DBF1C4DA181BE95B7
:100EEC0097000000E780C0E845F1860413048402F3
:100EFC0093F4E41F26948347140003470400A207CD
:100F0C00D98F61B71C4D9D81BE9597000000E7807D
:100F1C0020E63DF913952400130484021375C51FB4
:100F2C00229597000000E780E0C9931745004DB764
:060F3C0085473E8582801E
:100F420001114AC80329050122CC26CA06CE4EC683
:100F520013090902B70720002A8404416364F900D7
:100F6200232C0500184C114515C39379F91F63957D
:100F720009064C48050718CC8DE103D78400935726
:100F8200590063EBE704232C04001145F24062444C
:100F9200D2444249B2490561828083D7A4001357E3
:100FA2009900FD17F98F8DEB268597000000E780E9
:100FB20000EAAA8505470945E37AB7FC7D5705454E
:100FC200E386E5FCDC44E3F0F5FC4CC8268597009B
:100FD2000000E78040C308CC93848402CE94232887
:080FE200240144CC01455DB778
:100FEA005D7186C6A2C4A6C2CAC04EDE52DC56DAFB
:100FFA005AD85ED662D466D223A005002EC69700C0
:10100A000000E780A0C2AD47634F05023787008022
:10101A009317250013070701BA978043AA84B1479B
:10102A001DC0B24580C18347040085EF13F5F40F54
:10103A0023000400A300A40097000000E780E098C2
:10104A0005898D470DC9B640264496440649F2598A
:10105A00625AD25A425BB25B225C925C3E85616103
:10106A0082800345140097000000E78000950589F7
:10107A0081474DFDC9BF8145228597000000E78061
:10108A0060D389476318F50404081309E41E130A98
:10109A00E422A6894A8597000000E780C0B223A00F
:1010AA00A90041099109E3172AFF13890401854917
:1010BA008C400D4581C9228597000000E78080CFCA
:1010CA0063F2A9029104E31599FE11478547631952
:1010DA00E50095BF11478547E307E5F663F4A700E6
:1010EA00B54795B78347440303473403A207D98F0B
:1010FA00C207C18713070020E394E7FE0349F403FC
:10110A008347E40322093369F900631909001305C7
:10111A00C40497000000E78000AB2A89034C8403CB
:10112A002328240105479307FCFF2301840193F731
:10113A00F70F832A4402E365F7FA034B5403931724
:10114A000B01C1832315F400C1DF9307FBFFB3F73B
:10115A006701D9F78349A40383479403A209B3E932
:10116A00F900C20993D90941139A0901135A0A01CC
:10117A00231444019377FA00A5F78344C4038347F1
:10118A00B403A204DD8C81E81305840497000000EF
:10119A00E78060A3AA84834B740383476403A20B8A
:1011AA00B3EBFB00E38E0BF26285CA85135C4A003F
:1011BA0097F0FFFFE780A0045E9C2A9CAA8CE3E1DB
:1011CA0084F3B3848441DA85268597F0FFFFE780AC
:1011DA00C005E3E764F1B7070010D517E3E2A7F00B
:1011EA00C167D51763FAA7080D4BD69B9304250050
:1011FA00232A5401E29A44C4232C74012320540361
:10120A008D47631CFB048347340503472405A20763
:10121A00D98FB3E9F900C20993D90941E39209ECDC
:10122A001305440597000000E780E09948CC139520
:10123A0024001305F51F2581E364A9EA3787008096
:10124A008357C700230064018507C207C183231699
:10125A00F7002313F4008147FDB3E3030AE8E69B92
:10126A00232E7401894713951400E304FBFC269589
:10127A0005818588269575BF056B551B333BAB00E9
:04128A00050BA5B7F4
:10128E0001114AC80329850022CC26CA06CE4EC6B5
:10129E0052C423280500AA840041631109040347A0
:1012AE000400894763F4E7005C4C85EB83578400A8
:1012BE0091EB0945F2406244D2444249B249224A76
:1012CE00056182805C4C9CCC9C4C23AA2401F5D3F6
:1012DE0013048402C0CC0145F1BF3E898357A4009C
:1012EE00FD59054A85E38840CA8597000000E780CE
:1012FE0040B52A8963003503E37DAAFA5C44E364B2
:10130E00F5FE45BFCA85228597000000E780E08E76
:08131E0088CC5DBF054579BFD5
:10132600797152CC032A050022D44AD006D626D299
:101336004ECE56CA5AC85EC662C466C22A842E8972
:101346009306F0021307C005834709006386D7108A
:101356006384E7102324040003470900FD4763FF65
:10136600E70E93090402130CB402930AF002130B5E
:10137600C005B75B0080CE87130700028507A38FE1
:10138600E7FEE31DFCFE01478145214613050002E9
:101396001308E002AD4813030008654E930EF009EA
:1013A600130FF003930FE0079302C007F143B3074F
:1013B600B90083C7070093861500637EF500638432
:1013C60057016394670D3306D90003460600630C84
:1013D600560B630A660B3699630C071083460402A4
:1013E6001307500E6395E60015472300E4029306A3
:1013F6000002114763F3F6000147A305E4022285C4
:10140600832C040097000000E78040E8AA84631656
:1014160005100C4C668597000000E780C095AA84ED
:101426006DED484C83470500E5CB8347B50093F740
:10143600F7032303F4008347B500A18B81EB2D4608
:10144600CE8597F0FFFFE780207A61C92285970055
:101456000000E780E0AE5DBF0509FDB5930700F823
:10146600A305F40222852254B25092540259F2493D
:10147600624AD24A424BB24B224C924C4561170308
:1014860000006700A3E085063DBF6384070F637114
:10149600C7066371F30663F8FE009384070293F4AC
:1014A600F40F63E99304CA969384250083C5060066
:1014B6006370BF0463F6BF0093C6050863EAD202F1
:1014C6009306F6FF6376D70293061700B38CE900FE
:1014D6002380FC00B387D90009072380B700A686BE
:1014E600B685F1B5850583C4050081C8E39C97FEE2
:1014F600994425A89385CB47FDB79385F7F993F5CE
:10150600F50F6365BE00811793F7F70FB385E90002
:101516002380F5000507E9B791448347B40285C4E3
:1015260011476394E400918BB9C3B25022542685C7
:1015360002599254F249624AD24A424BB24B224C69
:10154600924C45618280918BEDF383476400C18B99
:1015560099CF1C4803450A0093058A0293F7F71FA3
:10156600BE9597F0FFFFE780607508C429B59544DE
:0C1576006DBFE30F16F721472D469DB70F
:101582001841E546930717001CC1834707001386DD
:10159200F7F963E5C60081173E858280930600084D
:1015A200E3FCF6FE9306F00963F9F6009386070260
:1015B20093F6F60F7146E361D6FE834617001306D3
:1015C200F0036374D6021306E0076378D60093C66D
:1015D20006081306C007636AD6009306270014C1E3
:0E15E20003451700A207C98F45BF814775B7A3
:1015F00039714AD84ED606DE22DC26DA52D456D2CB
:101600002A892EC6B68901EA8347090085EB6387DC
:101610000902054519A8680032C497000000E78058
:1016200080F622467D1665F10145F2506254D2548F
:101630004259B259225A925A216182809304F0038E
:10164000130AA002B2474ACC3ECEE24783C7070046
:10165000638497006397470581460146E2471385F7
:1016600017002ACC03C70700631B9702050683C730
:101670001700E38597FEE38347FFF24597000000DC
:10168000E78040F759F5F24703C407006800970068
:101690000000E78040EFE38909F84DF471B7854613
:1016A000F9B7280897000000E780E0EDAA8A6808EB
:1016B00097000000E78020ED2A84E399AAFCE396D6
:0416C0000AF881BFE4
:1016C40079712AC6680806D62EC432C22ECE97F087
:1016D400FFFFE780005663400504B7870080138747
:1016E40007010A052A97184393870701124619C36D
:1016F40023000700324719C323000700AA9798C3A1
:10170400014519C66C00280097000000E780E08DB1
:0A171400B250456182802D45E5BF0B
:10171E005971A6D286D6A2D4CAD0CECED2CC2EC6DF
:10172E00A54435CD2A846C086800328997000000E4
:10173E00E780008BAA8435EDF247B24508103ED003
:10174E0097000000E78080BDAA8425E58307B104D9
:10175E0063C0070683476102C18BB9EFF249725A23
:10176E001379190003C50900D28597F0FFFFE780B2
:10177E00605408C41305CA0197F0FFFFE780604468
:10178E0083D7690048C4232034012312F4002308B0
:10179E002401A3080400232E0400232A0400B650BB
:1017AE002654268506599654F649664A6561828006
:0C17BE00994423200400E5B79144E5BFE6
:1017CA001D71A2CCD2C4D6C26AD886CEA6CACAC84D
:1017DA00CEC6DAC05EDE62DC66DA6ED62E8A23A058
:1017EA0006006C082A8432C6B68A97F0FFFFE780A3
:1017FA00C0472A8D3DE1034D140163100D0683474E
:10180A000401858B638007140329C4005C483246AF
:10181A003309F940637326013289930B0020130BB5
:10182A000402130CF01FFD5C630909025C4813F7FC
:10183A00F71F75E372478359A70013D79700FD195D
:10184A00B3F9E900639A09048DEB0844854763ED0F
:10185A00A7028947A308F400094DF64066446A8541
:10186A00D6444649B649264A964A064BF25B625C1A
:10187A00D25C425DB25D256182800C4C084097F0D3
:10188A00FFFFE780405CD9B7631795018547A30836
:10189A00F400054DD9B708CCF2470C4C3E853EC63C
:1018AA0097F0FFFFE780A0354DD5B38DA900B24769
:1018BA0063742C0503D7A70093549900B386990043
:1018CA006374D700B304374103C51700A6866E8632
:1018DA00D28597F0FFFFE780A0264DF993969400F2
:1018EA0083A70A003309D940369AB69723A0FA008B
:1018FA005C48BE9654C80DBF584C630CB70103C56B
:10190A00170085466E86DA8597F0FFFFE780402349
:10191A0035FD232EB4015848CA861377F71FB387BB
:10192A00EB4063F32701BE8681473306F7005A96D8
:10193A00834506003306FA0085072300B600E396BE
:08194A00F6FE79BF1D4D11BF2F
:1019520001116C0022CC06CE2A8497F0FFFFE780AB
:10196200403119E123200400F24062440561828083
:10197200797106D622D42EC62DC92A846C08680035
:1019820097F0FFFFE78080661DE1F247B2452285AE
:101992001CC097000000E780209931E98307B40258
:1019A20063C3070283476400C18B89E7154523207F
:1019B200040005A8F2474C4C03C5070097F0FFFF4F
:1019C200E780003008C4F247228583D767002312DC
:1019D200F40097000000E780A08B9147E308F5FC34
:1019E20079F5B2502254456182802545DDBF914789
:0619F200E30EF5FA6DBFE3
:1019F80001116C0022CC06CE2A8497F0FFFFE78005
:101A0800E02619E123200400F24062440561828047
:101A180039714AD82E896C0022DC26DA06DE4ED6C9
:101A280052D456D25AD05ECE2A8497F0FFFFE78070
:101A3800E023AA8421E963190900228597000000A0
:101A4800E780A084AA843DA8832904001145130ACD
:101A5800500E930AE0023D4BA14B0C4CA1E13DED29
:101A6800A30409001C4C99C7CA85228597F0FFFF7B
:101A7800E7800027228597F0FFFFE780404C9147D9
:101A8800E312F5FCF250625426854259D254B259F9
:101A9800225A925A025BF24B216182804E8597F05E
:101AA800FFFFE780202D1DE95C4C03C707000DCF21
:101AB80083C7B70093F7F7032303F400630A4701CA
:101AC800630857016386670193F7F7FDE39A77F98F
:101AD800228597F0FFFFE780804641D1232C040040
:0C1AE8009147E311F5F6ADBF1145CDBFED
:101AF400011122CC4AC84EC606CE26CA2A892E8493
:101B040093899500A2854A8597000000E780C0F07C
:101B1400AA8419ED11CC8347940099CB0325C902FB
:101B240081460146CE8597000000E78060AC79D9F4
:101B3400F240624426854249D244B249056182801A
:101B4400411122C426C206C6AE8454D5B2852A8465
:101B540097000000E780E0E119E922852244B240C1
:101B6400A68592444101170300006700A3F8B24020
:081B74002244924441018280E9
:0A1B7C00B767008003A3073F028350
:101B8600B767008003A5C73E171300006700E31D73
:101B9600411106C6370501F097E0FFFFE780207583
:0E1BA600E34A05FEB2401375F50F410182803F
:0C1BB400370501F017E3FFFF67004372E4
:101BC0003755008039711305C54822DC26DA4AD81A
:101BD0004ED652D456D25AD05ECE06DE62CC66CAFB
:101BE0006AC897100000E780A018B767008003ABB1
:101BF000074083AB4740B767008003AA874083AAAA
:101C0000C740B767008003A9074183A94741B76769
:101C1000008003A4874183A4C74197000000E780A8
:101C2000A0F915C16254F250D2544259B259225A05
:101C3000925A025BF24B624CD24C424D2161170327
:101C40000000670083F5370705F08327C70A032CD8
:101C5000470A0327870A930680073EC6E3FFF6FA82
:101C60008566930C0CF5138606E9E36896FB13056D
:101C700007EB3AC4938646E1E3E1A6FA9720000019
:101C8000E780C0485A86DE8697200000E78040CA79
:101C90005286D68697100000E780403997200000D2
:101CA000E780403F2A8D668597200000E780004648
:101CB0004A86CE8697200000E78080C72286A686C7
:101CC00097100000E780803697200000E780803C76
:101CD000B2472247AA8537550080E2866A861305F7
:0C1CE000854997100000E780A00805BFB0
:101CEC00B547631AF500B787008023A8072C171394
:101CFC0000006700A309FD47E3FBA7FE37870080C0
:0C1D0C008327072D85072328F72CD5B767
:101D18004111354506C697000000E780E0FCB24057
:0C1D2800294541011713000067008306E5
:101D3400411106C697000000E78000FEB24013057B
:0C1D4400F003410117030000670043FAA0
:101D50001D7186CEA2CCA6CA97000000E78000FCC9
:101D600037540080378500809305444E01461305A3
:101D7000850597000000E7802095B7560080130680
:101D8000444E9386464B2C00081097000000E780D5
:101D9000A0DB37540080B754008001E58347110170
:101DA00099EB081097000000E78040C5F6406644B4
:101DB000D644256182808347010193051101138573
:101DC000844BC18B99E31305444C97100000E780C6
:101DD00020FA2C00081097000000E780E0D175BFC2
:101DE0004111214506C697100000E780E0FA13056F
:101DF000000297000000E780A0EFB24021454101BA
:081E000017130000670043F90D
:101E0800B78700803971938607283787008026DADC
:101E18004AD84ED652D456D25AD05ECE62CC66CA72
:101E280006DE22DC6AC86EC6232AD70481441389D9
:101E3800072893890728294AFD4A094BB54B614C65
:101E4800A14C97000000E780C0D42A8463004507AE
:101E5800636FAA0263049505E3F58AFE97200000E4
:101E6800E780C03E229583471500228D8D8B6394B1
:101E78006701130D04FE2300A901930D19002285A3
:101E8800850497000000E78020E66E895DBF630F38
:101E98007501E31385FD85EC4E8965B7DDD07D19A5
:101EA800FD1497000000E78060F361BF230009007C
:101EB800F2506254D2544259B259225A925A025B91
:101EC800F24B624CD24C424DB24D21618280970058
:0A1ED8000000E780A0F0FD147DBFBC
:101EE200930705FD93F7F70F25476364F7003E85D7
:101EF2008280130795FC1305F5FB9377F50F954642
:0E1F02001377F70F7D5563E3F6003A85828072
:101F1000011122CC4AC84EC606CE26CA01443789D2
:101F20000080FD598324490503C504009700000083
:101F3000E78060FB631A35012285F2406244D24497
:101F40004249B24905618280120485042A94232AF9
:041F50009904C9BF68
:101F5400B787008083A74705411106C603C507005C
:101F640097000000E780E0F7FD576308F500B240F2
:101F74004101170300006700A3F9B2400145410184
:021F8400828059
:101F8600011126CA4EC6B784008006CE22CC4AC8A6
:101F960097000000E780E0FB83A74405138717003E
:101FA60023AAE40483C907009307C002639FF902CA
:101FB6002A8497000000E780C0F983A744052A8990
:101FC6001387170023AAE40483C70700639F37011A
:101FD60097000000E780E0F783A7440583C7070062
:101FE60089E7A287050963992701F2406244D24432
:101FF6004249B249056182802380A7008507E5B77B
:10200600B787008083A7470583C7070089CB1307D7
:10201600C0026386E70017030000670083F382802F
:1020260025479377F50F636AA7009387070313F590
:10203600F70F17030000670043CB93877703C5BFED
:10204600411122C42A8411813D8906C697000000E9
:10205600E78040FD1375F4002244B24041011703A6
:062066000000670023FCEE
:10206C00411122C42A84618106C697000000E780D2
:10207C0000FD135504011375F50F97000000E78060
:10208C0000FC135584001375F50F97000000E780D2
:10209C0000FB1375F40F2244B240410117030000FA
:0420AC006700E3F9ED
:1020B00001114AC8378900800325492D22CC06CE5C
:1020C00026CA4EC652C456C25AC097000000E780C6
:1020D000C0F39357C5012A8489E7B707008033040A
:1020E000F500B784008083A7440503C707000DEB04
:1020F0001305F40797000000E78020F19357C5010E
:10210000AA89B9C383A7440583C7070085E7930A53
:102110000401130BE00563FE8902232A892C19A808
:102120001387170023AAE40403C707009307C0021C
:10213000E300F7FCF2406244D2444249B249224AE9
:10214000924A024B05618280B7070080B309F5000F
:1021500055BF97000000E78020A611CD6244F240F1
:10216000D2444249B249224A924A024B05611703BE
:102170000000670083A297000000E78020BA228554
:1021800097000000E780C0EE1305A0039700000051
:10219000E78000B61305000297000000E78040B515
:1021A000A284850403C5F4FF97000000E780E0E9FE
:1021B0001305000297000000E78080B3E39354FF0B
:1021C0001305000297000000E78080B213050002AB
:1021D00097000000E780C0B1228A03450A009307F8
:1021E00005FE93F7F70F6374FB001305E002050A81
:1021F00097000000E780C0AFE39144FF4104C10AAB
:0222000019BF04
:10220200B787008003A5472D797106D622D426D23E
:102212004AD04ECE52CC97000000E780E0DE9357C2
:10222200C50181E7B70700803E95B787008003A705
:102232004705BE842A840347070059E7378900808F
:102242009309E002130AE00597000000E780E0AC82
:10225200228597000000E78080E1130500029700C5
:102262000000E780C0A81305000297000000E78085
:1022720000A80345040097000000E780E0DC130596
:10228200000297000000E78080A697000000E78028
:10229200C0B7034709286309370363074701930758
:1022A200140011E73E844DB79307F4FFE5BF3EC625
:1022B20097000000E78020CA2300A40003A744057A
:1022C200B2470347070079DFB250225492540259B1
:0822D200F249624A4561828075
:1022DA00411106C697000000E780808B9700000036
:1022EA00E780C0BF1375F50FBD4763F3A70001452B
:0622FA00B24041018280A8
:10230000411106C622C497000000E78040FD120577
:102310001374F50F97000000E78060FC378700809A
:102320008347872D22951375F50FB2402244AA9753
:08233000230CF72C410182800F
:10233800411106C622C497000000E78020FC2A84C9
:10234800220497000000E78060FB418DB2402244E0
:04235800410182803D
:10235C00797122D44ECE52CC56CA5AC85EC662C4CB
:10236C0006D626D24AD037040080130AA003B789B8
:10237C000080914A154BB76B0080375C008097004A
:10238C000000E780C080E31C45FF238C092C9700DC
:10239C000000E78060F62A8955C997000000E780A5
:1023AC0020F9AA8497000000E78000F529C9631D75
:1023BC00550197000000E780A0F713140501970062
:1023CC000000E78060F365BF6312650997000000A9
:1023DC00E78000F61314050197000000E78040F534
:1023EC00498C97000000E78020F1A28513050C4D65
:1023FC0023A88B3E97100000E780C09649B7A294A3
:10240C0097000000E78040EF2380A4007D1985042D
:10241C00E31809FE97000000E78000EE83C7892DC2
:10242C00B9DF97000000E780A08E2254B25092547E
:10243C000259F249624AD24A424BB24B224C130522
:10244C00F0034561170300006700C389B2502254A2
:10245C0092540259F249624AD24A424BB24B224C34
:04246C0045618280C4
:102470003787008083274705411106C693861700DA
:10248000232AD70403C5070097000000E780A0A512
:102490001375F50FBD4763F3A7000145B240410135
:0224A000828038
:1024A200411106C622C497000000E78080FC120595
:1024B2001374F50F97000000E780A0FB37870080B8
:1024C2008347872D22951375F50FB2402244AA97B0
:0824D200230CF72C410182806C
:1024DA00411106C622C497000000E78020FC2A8426
:1024EA00220497000000E78060FB418DB24022443D
:0424FA00410182809A
:1024FE00130101DA232E1124232C8124232A912463
:10250E002328212523263125232441252322512525
:10251E0023206125232E7123232C8123232A91230B
:10252E002328A12397F0FFFFE780607EB755008038
:10253E003785008001469385454E1305850597F036
:10254E00FFFFE78080173784008005469305142827
:10255E00080897F0FFFFE780E01B31C53755008074
:10256E00930514281305854E97000000E780607FC1
:10257E008320C12503248125832441250329012598
:10258E008329C124032A8124832A4124032B012475
:10259E00832BC123032C8123832C4123032D012361
:1025AE00130101268280B78A0080B78B0080014A12
:1025BE00370400805E8CD68C13890A28378B0080F6
:1025CE00376D008093870A2823AAFB049304000228
:1025DE0074000546CA85080897F0FFFFE780401E85
:1025EE00324785476312F71083C70C28E3F2F4FED7
:1025FE0074000946CA850808232A2C0597F0FFFFA8
:10260E00E780001C324789476310F70E230C0B2C12
:10261E0097000000E78040E81307F5FF930770026C
:10262E00AA8463E3E70C93094500860974004E867D
:10263E00CA850808232A2C0597F0FFFFE78040186B
:10264E00B2476393F90A97000000E78060E8AA8911
:10265E0097000000E78040E429CD9147631DF50007
:10266E0097000000E780C0E61314050197000000F4
:10267E00E78080E281BF95476318F506970000005A
:10268E00E78000E51314050197000000E78040E4A1
:10269E00498C97000000E78020E037550080A28526
:1026AE001305C54F23288D3E97000000E780606B11
:1026BE0011BF269AA29997000000E780E0DD2380E3
:1026CE00A900FD148509E5F897000000E780C0DC3D
:1026DE0083478B2DE38807EE375500801305055190
:1026EE0097000000E780E067080897F0FFFFE7809B
:0E26FE00A02537550080D28513050552B5B5CD
:10270C0001113755008022CC26CA3784008013056E
:10271C000553B78400804AC84EC652C456C25AC02C
:10272C0006CE03298401B759008097000000E7808A
:10273C006063378A0080B78A008093841428376BD3
:10274C000080832584011385C954B38525419700E6
:10275C000000E780206197F0FFFFE780606A834606
:10276C000A2881E603298401E9BF23AA9A04930766
:10277C00CB9F03C7070019C36397E600DC4303290B
:0A278C00840182977DBFA107EDB71D
:0A279600B787008023A0A72E8280E1
:1027A000B787008083A7072E056713070780BE86BB
:1027B0003E9723800600C106E39DE6FE0567BA97B3
:0627C00023A607808280C1
:1027C6000111B787008022CC03A4072E26CA856490
:1027D600938404804EC606CE4AC8AA89A29483472B
:1027E6000400228989CB3146CE85228597200000B8
:1027F600E780205A09C54104E31394FE0149F240DB
:0E28060062444A85D2444249B249056182804B
:10281400011122CC4EC652C406CE26CA4AC82A8A00
:10282400AE8997000000E78000FA2A8431ED5285D2
:1028340097200000E780404DB1472A8663F3A70044
:102844003146B787008003A7072E81443E893305AC
:1028540097008347050085E7D28597200000E7802D
:1028640060620324092E2694232634012285F24033
:102874006244D2444249B249224A05618280C10479
:1028840093870480E9F7DDB7232635010144F9BFB6
:10289400B767008003A7079DB7870080411123A66F
:1028A400E72EB767008003A7479DB787008022C43F
:1028B40023AAE72E370405F00327C40A26C20325FA
:1028C400440A8324840A06C693078007814663FE6C
:1028D400E70885671307F5F41386E7E86367E608F6
:1028E4001387F4EA938727E163E1E708130505F505
:1028F40097200000E7804081B767008003A6074166
:1029040083A6474197100000E7804002B767008024
:1029140003A6874183A6C74197000000E780C070E3
:1029240097100000E780C07608C8138504EB971061
:102934000000E780607DB767008003A6074083A698
:10294400474097100000E78060FEB767008083A6C9
:10295400C74003A6874097000000E780E06C97100B
:102964000000E780E07208CC8546B70705F094D3F1
:1029740023A0070A3787008083278701B2402244B7
:102984008507232CF700B70702F0944B37870080A4
:1029940092442320D7300327073098CB410182800B
:1029A400B787008023A8A72EB787008023A2B72E5D
:1029B400B787008023A4C72EB767008003A7079DAD
:1029C400B7870080B786008023ACE72EB767008006
:1029D40083A7479D37870080232EF72E83A74601C0
:1029E400850723AAF6008567938707FA6317F5001E
:1029F400B787008003A5072E82808325C72F37550C
:102A0400008041111305456106C697000000E78068
:102A1400E035B24037C5ADDE1305F5EE41018280E5
:102A2400411122C406C6A9472A846317F500354517
:102A340097000000E78000FF378700808327C701E5
:102A440099CB93861700232ED70023808700B240AA
:102A5400224441018280B787008003A34730E30802
:0C2A640003FE22852244B240410102839F
:102A7000411122C406C62A840345040009E5B24078
:102A8000224441018280050497000000E780C0F9DC
:022A9000E5B7A8
:102A92005971D2CCE6C2EAC06EDE86D6A2D4A6D2E4
:102AA200CAD0CECED6CADAC8DEC6E2C42A87AE8D76
:102AB200930C0006130AF004130D000203450700ED
:102AC200630605289307500293041700631DF5144B
:102AD2008347170093060003639ED70683472700A8
:102AE2009304370005441307A0026394E70A03A97D
:102AF2000D0013874D006355090033092041094435
:102B020083C70400BA8D850413F7F70D9306C0043A
:102B12006317D70083C704001364440085046387E6
:102B220007223E8763F6FC00138707FE1377F70F31
:102B3200630147116362EA0693063004630BD70C04
:102B420093064004630ED71C93062004631CD70C23
:102B5200094CCDA09306D0026386D70093042700C8
:102B6200014451B793043700834727000944A5BFA6
:102B7200131529002A99060985043E9983C7F4FF93
:102B8200130909FD138707FD1377F70FE3F2E6FE3A
:102B9200A5BF0149A546FDB7930650056302D718A4
:102BA200930680056300D71893063005631CD70689
:102BB20093894D0083AA0D00814D3387BA010347E3
:102BC200070093861D0005E7137B240013841D0074
:102BD20063150B0063EF2D01A28D5685970000004F
:102BE200E78020E963EF2D01CE8D2687C1BDB68D2A
:102BF200E9B71305000297000000E780C0E2A28D4A
:102C0200F1B71305000297000000E780C0E1850DCF
:102C1200D1BF03C50D0093894D0097000000E780E6
:102C220080E0D9B73E8597000000E780C0DFEE89DB
:102C320065BF214C9376440093894D00F5C603A5E8
:102C42000D00930640046318D70063560500330550
:102C5200A0401364040193058007AA8B1D47639467
:102C6200B70013077002930801011373F70F814A2B
:102C7200C68DE2855E8546C61AC497D0FFFFE780FF
:102C8200C05F1377F50F2A8BE2855E853AC297D033
:102C9200FFFFE780005A254E12472243B248637570
:102CA2006E011A971377F70F130707032380E800C3
:102CB200138B1A0063E78B018508AA8B631BAB0792
:102CC200FD4A1377040109CB1C18DA971307D002C7
:102CD2002380E7FE138B2A001377140013060003E8
:102CE20019E313060002DA8A098893861A0001E4BE
:102CF20063E32A05B68A7D1BB3866D0103C5060010
:102D020097000000E78020D2E3170BFEE3FE2AEDD6
:102D12001305000297000000E780E0D0850AFDB7A6
:102D2200294C09BF414C39B79306400403A50D0055
:102D320019BFDA8A3DBF328536C432C2970000001D
:102D4200E78060CEA2461246B68A45B7B6502654F0
:102D520096540659F649664AD64A464BB64B264C15
:0A2D6200964C064DF25D656182801B
:102D6C0039712ED24C1006CE32D436D63AD83EDA41
:102D7C0042DC46DE2EC697000000E78000D1F24010
:042D8C0021618280BF
:042D90007D5582806B
:102D9400411122C4AA852A84370501F006C697D0BA
:102DA400FFFFE780005422852244B240410117D33B
:062DB400FFFF67004373FE
:102DBA00411106C622C497D0FFFFE7802054B70707
:102DCA0000F03D4798C7D8C3B70702F0414798C3F8
:102DDA0041670507B8C3316713070735F8C30547C5
:102DEA00D8CB97D0FFFFE780805B97D0FFFFE780C3
:102DFA00C05797D0FFFFE7804068B7370080378514
:102E0A00008037870080938747D9130585302322AE
:102E1A00F73097000000E780A09797000000E7804E
:102E2A00C097B7450080375500809385C52713059D
:102E3A00456297000000E780809DB73500803755CE
:102E4A0000809385C5D61305C56297000000E78008
:102E5A00009CB70500803755008093850548130507
:102E6A00456397000000E780809AB70500803755D0
:102E7A0000809385454A1305456497000000E78062
:102E8A000099B7050080375500809385654E130574
:102E9A00456597000000E7808097B70500803755A1
:102EAA0000809385456C1305456697000000E7800E
:102EBA0000963704008037550080930524311305A6
:102ECA00456797000000E7808094B7350080375542
:102EDA000080938505D91305C56797000000E78030
:102EEA0000933755008093052431130585689700B0
:102EFA000000E780C091B7050080375500809385B0
:102F0A0045311305056997000000E7804090B70531
:102F1A000080375500809385253013058569970011
:102F2A000000E780C08EB705008037550080938582
:102F3A0065311305456A97000000E780408DB705A3
:102F4A00008037550080938525321305056B97005D
:102F5A000000E780C08BB705008037550080938555
:102F6A0065331305C56B97000000E780408AB705F3
:102F7A00008037550080938505361305856C9700C8
:102F8A000000E780C088B767008083A5479D375552
:102F9A0000801305456D97000000E780C0DCB76725
:102FAA00008083A5079D375500801305856E97001D
:102FBA000000E78040DBB767008083A5C79D3755CF
:102FCA0000801305C56F97000000E780C0D9B76776
:102FDA00008083A5879D37550080130505719700EA
:102FEA000000E78040D80564130504FA97D0FFFF74
:102FFA00E78040172A8637550080930504FA13059F
:10300A00457297000000E78000D697F0FFFFE7803F
:0C301A00806FB2402244014541018280D9
:10302800130101FB13D745012324810423229104B2
:10303800232A51031394C5002326110423202105B4
:10304800232E3103232C41032328610323267103F4
:1030580023248103232291032320A103232EB101DA
:103068001377F77F930405001354C40093DAF5012E
:10307800630607189307F07F6302F71E135BD501F9
:103088001314340033648B00370B8000336B6401F6
:10309800931B3500130917C013040000130C00001C
:1030A80013D746019399C6001377F77F13080600D4
:1030B80093D9C90013DAF6016308070E9307F07F66
:1030C8006308F7049354D60193993900B3E934019E
:1030D800130717C0B707800013183600B3E4F900C8
:1030E8003309E940130600009307F000B3C94A0109
:1030F80063EC8726972700009387C763131424007F
:103108003304F400032704003307F70067000700BF
:10311800B3E4C90013091980639E041813642400DA
:1031280013080000130620006FF01FFC1306F07F41
:1031380093070000130700009397C7008320C1047A
:10314800032481041316460193D7C7009399F90104
:10315800B3E7C700B3E73701832441040329010417
:103168008329C103032A8103832A4103032B010313
:10317800832BC102032C8102832C4102032D0102FF
:10318800832DC1011305070093850700130101056D
:1031980067800000930900001306F07FB707080056
:1031A800130700006FF05FF9B3E4C900638C040EE5
:1031B80063820954138509002324C1009710000075
:1031C800E78080FF0326810093060500930455FFDE
:1031D8009307D001138786FFB3879740B399E90017
:1031E800B357F600B3E437013318E60033872601F6
:1031F8001309373F130600006FF01FEF336BA4006D
:1032080063080B082326D1002324C100630C044A59
:103218001305040097100000E78000FA03268100D8
:103228008326C10013090500130755FF130BD001AE
:10323800930B89FF330BEB403314740133DB6401C8
:10324800336B8B00B39B74011307D0C0330927413C
:1032580013040000130C00006FF09FE4336BA4000C
:10326800631C0B0013048000930B00001309F07F0C
:10327800130C20006FF0DFE2130B0400930B050022
:103288001304C0001309F07F130C30006FF05FE1E6
:1032980013044000930B000013090000130C1000E6
:1032A8006FF01FE0136414001308000013061000E9
:1032B8006FF09FE313643400938409001306300011
:1032C8006FF09FE26302045093071000B3878740B2
:1032D800130780036352F756130600009307000094
:1032E800130700006FF05FE593060A0093072000BC
:1032F8006308F66093073000E30EF6E893071000C2
:1033080093890600E30AF6FC1304F93FE35C80FAAC
:1033180093777800639C0746135838009397740096
:1033280063DA0700B70700FF9387F7FFB3F4F400E9
:10333800130409409307E07FE3CA87DE1397D4019B
:10334800939794003367070193D7C7001376F47FE8
:103358006FF09FDE93860A0093040B0013880B001E
:1033680013060C006FF09FF863E8643F63049B3E0C
:103378001309F9FF138A0B00930D0000939784003B
:10338800135D8801336DFD00935A0D0193850A0082
:10339800931C0D0113050B00131C880093DC0C0112
:1033A80097D0FFFFE78080E89305050093040500A8
:1033B80013850C0097D0FFFFE78080E4930B05008E
:1033C80093850A0013050B0097D0FFFFE78080EA7A
:1033D8001315050113570A013365A700637E7501AC
:1033E8003305A5019387F4FF6364A54563727545AA
:1033F8009384E4FF3305A5013304754193850A00DE
:103408001305040097D0FFFFE78040E2930505000D
:10341800130B050013850C0097D0FFFFE78040DEF3
:10342800930B050093850A001305040097D0FFFF4E
:10343800E78040E4131A0A0113150501135A0A011B
:103448003365AA00637E75013305A5019307FBFF69
:10345800636CA53D637A753D130BEBFF3305A5013E
:10346800370E010093940401B3E46401130BFEFFCB
:1034780033F86401337B6C01B30B754113D7040136
:1034880093570C011305080093050B0097D0FFFF15
:10349800E78000D793080500938507001305080007
:1034A80097D0FFFFE780C0D51308050093050B00F0
:1034B8001305070097D0FFFFE78080D413030500AA
:1034C800938507001305070097D0FFFFE78040D3D7
:1034D80013D70801330868003307070163746700CE
:1034E8003305C501370601001306F6FF9356070199
:1034F800337AC700131A0A0133F7C8003385A600C8
:10350800330AEA0063E4AB226380AB22338A4D417D
:103518003385AB40B3BB4D012324F100B30B754198
:103528001304F93F63067D2993850A0013850B0070
:1035380097D0FFFFE78080CF93050500930D050026
:1035480013850C0097D0FFFFE78080CB2326A100CE
:1035580093850A0013850B0097D0FFFFE78080D181
:103568000327C1001315050193560A0133E5A60088
:1035780083278100637EE5003305A5019386FDFF5F
:10358800636EA533637CE532938DEDFF3305A501AA
:10359800B30BE54093850A0013850B002326F10041
:1035A80097D0FFFFE78080C8930505002324A1007A
:1035B80013850C0097D0FFFFE78080C4930C0500AB
:1035C80093850A0013850B0097D0FFFFE78080CA18
:1035D800131A0A0113150501135A0A01336AAA00BE
:1035E800032881008327C100637E9A01330AAA0158
:1035F8001307F8FF6368AA2D63769A2D1308E8FF6E
:10360800330AAA0113970D0133680701131708013C
:1036180013570701330A9A41135E0801130507007F
:1036280093050B0097D0FFFFE78080BD9308050046
:10363800938507001305070097D0FFFFE78040BC7C
:103648001307050093050B0013050E0097D0FFFF25
:10365800E78000BB130305009385070013050E00E0
:1036680097D0FFFFE780C0B993D7080133076700F9
:10367800B387E70063F66700370701003305E50005
:10368800B70601009386F6FF13D70701B3F7D700F3
:1036980093970701B3F8D8003305A700B38717013C
:1036A8006378AA0C330A4D011307F8FF6364AA254F
:1036B800636EAA206300AA2613080700136818007F
:1036C8006FF0DFC497100000E78000AF13075501C3
:1036D8009305C00113090502032681008326C10052
:1036E800E3D6E5B4130485FF339B8400930B0000F5
:1036F8006FF09FB5130506002324C1009710000042
:10370800E78080AB930455019307C0019306050237
:1037180003268100E3DE97AA930785FFB314F6001A
:10372800130800006FF09FACE3F24DDFB38D8D01FD
:1037380033B78D013307A701B38BEB001387F4FF71
:10374800637E7D0363E0AB16630C75159304070075
:103758006FF0DFDBE3EE0BC1131AFB0193D71B00FD
:10376800135B1B00336AFA00939DFB016FF01FC1C6
:10377800E316AAF4E38C07B86FF0DFF2E3187DFDD7
:10378800E3F28DFD930407006FF05FD89377F8009C
:1037980013074000E382E7B89337C8FF13084800CF
:1037A80093C7170013583800B384F4006FF01FB79D
:1037B8001308000093071000E34880FE1308F0FF89
:1037C800E31404B0130910C0930710001307E9416C
:1037D800B396E4003356F8003318E8003338000194
:1037E80033E7C6003367070193767700B3D4F40054
:1037F800638006029377F70093064000638AD70038
:103808009307470033B7E700B384E4001387070042
:103818009397840063D807061306100093070000E7
:10382800130700006FF05F91138B07006FF05FC301
:10383800938407006FF05FBC1307F001E358F7F8B3
:10384800130610FE330686401307000233D6C40061
:103858006388E7009307E943B397F4003368F800F7
:10386800333700013367C70093747700930700006C
:10387800638004029377F7009306400093040000E6
:10388800E390D7F89397940093D7C7009394D40103
:103898001357370033679700130600006FF0DF896E
:1038A800E3F64DEBB38D8D0133B78D013307A701D7
:1038B8009384E4FFB38BEB006FF05FC5938D060034
:1038C8006FF01FCD130807006FF0DFD313171C002C
:1038D800333C8701330DAC01330AAA011308E8FF12
:1038E800130C0700E31CAADCE38287A31368180003
:1038F8006FF0DFA113080700E308AAFE6FF01FDCD2
:10390800938906001306F07F930700001307000051
:103918006FF09F82E36CFCFA13080700E39887FDB9
:043928006FF0DF9EBF
:10392C00130101FC2328210313D94501232631035C
:10393C0023244103232251039399C500232E110202
:10394C00232C8102232A910223206103232E71014F
:10395C001379F97F130A050093D9C90093DAF5019D
:10396C00630E09149307F07F6300F9221354D501F9
:10397C0093993900B36934013704800033E489002A
:10398C0093143500130919C093090000930B000020
:10399C0093D74601139AC60093F7F77F9305060059
:1039AC00135ACA0013DBF601638607181307F07F5E
:1039BC00638CE7041357D601131A3A00336A470194
:1039CC00938717C0370780003367EA0093153600DA
:1039DC003309F9001305000033C86A019307F0009E
:1039EC00130608009308190063E437239726000098
:1039FC00938606D893992900B389D90083A7090027
:103A0C00B387D700678007003367CA001309F97FB3
:103A1C006318071C93E92900930500001305200087
:103A2C006FF09FFB130800009307F07F370408002A
:103A3C00930400001314C400939747011354C4005B
:103A4C001318F8013364F400336404019305040083
:103A5C008320C1030324810313850400032901037C
:103A6C00832441038329C102032A8102832A410250
:103A7C00032B0102832BC101130101046780000099
:103A8C0013060B001304070093840500930B050029
:103A9C00930720006384FB1693073000E384FBF844
:103AAC009307100013080600639AFB5C9307000051
:103ABC0013040000930400006FF0DFF733E4A90057
:103ACC00630604102326D1002324C100638C09480B
:103ADC001385090097000000E780C06D0326810064
:103AEC008326C10093070500130755FF1304D0016B
:103AFC00938487FF3304E440B399990033548A00CC
:103B0C0033643401B3149A001309D0C03309F9405B
:103B1C0093D74601139AC60093F7F77F93090000D9
:103B2C00930B000093050600135ACA0013DBF60131
:103B3C00E39E07E63367CA0063060706630A0A3E7C
:103B4C0013050A002324C10097000000E78080665B
:103B5C000326810093070500930655FF1307D00138
:103B6C00938587FF3307D740331ABA003357E600E3
:103B7C0033674701B315B6003309F9401309D9C0AF
:103B8C00130500006FF05FE533E4A9006314040231
:103B9C0093098000930400001309F07F930B20001D
:103BAC006FF01FDF93E91900930500001305100057
:103BBC006FF09FE213840900930405009309C00081
:103BCC001309F07F930B30006FF09FDC93094000DA
:103BDC009304000013090000930B10006FF05FDBDF
:103BEC0093E9390013070A00130530006FF0DFDE8C
:103BFC009307200013860A00E390FBEA13080600E3
:103C0C009307F07F13040000930400006FF09FE211
:103C1C00B7090100138EF9FF33FFC40133FEC50150
:103C2C0093DF050113D3040113050F0093050E0058
:103C3C0097C0FFFFE780805C930E050093850F0013
:103C4C0013050F0097C0FFFFE780405B930705004B
:103C5C0093050E001305030097C0FFFFE780005A81
:103C6C009303050093850F001305030097C0FFFF16
:103C7C00E780C05893D60E01B3877700B386F60061
:103C8C009302050063F47600B3023501B709010015
:103C9C00138AF9FFB3F4460193970401B3F44E0170
:103CAC00337A470193DE0601B3849700135707015B
:103CBC0013050F0093050A0097C0FFFFE78000541F
:103CCC00930305009305070013050F0097C0FFFF32
:103CDC00E780C052130F050093050A00130503007B
:103CEC0097C0FFFFE7808051930A050093050700FA
:103CFC001305030097C0FFFFE780405093D70301E3
:103D0C00330F5F01B387E70163F4570133053501C6
:103D1C00B70A01009386FAFF33F3D700131303019C
:103D2C00B3F3D300B309730093D707013373D400F3
:103D3C00338FA700B38E3E01135404011305030007
:103D4C0093050E0097C0FFFFE780404B93070500DB
:103D5C0093850F001305030097C0FFFFE780004A0F
:103D6C009303050093050E001305040097C0FFFF95
:103D7C00E780C048130E050093850F00130504005F
:103D8C0097C0FFFFE780804713D60701B383C301B9
:103D9C00330676006374C60133055501B70A01007A
:103DAC009383FAFFB37676009396060113560601B9
:103DBC00B3F77700B30FA600B383F6001305030027
:103DCC0093050A0097C0FFFFE7804043130E0500E0
:103DDC00930507001305030097C0FFFFE78000421F
:103DEC009307050093050A001305040097C0FFFF15
:103DFC00E780C0401303050093050700130504007A
:103E0C0097C0FFFFE780803F93550E01B387670093
:103E1C00B385F50063F465003305550137070100E0
:103E2C001307F7FFB3F7E500337EEE009397070116
:103E3C0033875E00B387C70133333701B387E7019C
:103E4C0033077700338E6700B33677003306FE01F5
:103E5C00B30ED600B3B7E70133336E0033E467001B
:103E6C0093D505013336F601B3B6DE003304B40046
:103E7C00B366D600931797003304D4003304A40020
:103E8C00B3E497001314940013D57E01B33490005F
:103E9C001357770193979E00B3E4E4003364A400B6
:103EAC00B3E4F4009317740063D0070293D71400A3
:103EBC0093F414001317F401B3E49700B3E4E40093
:103ECC0013541400138908009307F93F6354F00C42
:103EDC0013F774006300070213F7F4009306400015
:103EEC00630AD70013874400B3349700330494005B
:103EFC009304070013177400635A0700B70700FFF9
:103F0C009387F7FF3374F400930709401307E07F9E
:103F1C00634EF71413D734009314D4011314940084
:103F2C00B3E4E4001354C40093F7F77F6FF09FB031
:103F3C00130506002324C10097000000E7808027AA
:103F4C00930655011307C001930705020326810050
:103F5C00E356D7C0130585FF3317A6009305000061
:103F6C006FF09FC197000000E780C0241307550134
:103F7C009305C00193070502032681008326C10027
:103F8C00E3D6E5B6130585FF3314AA0093040000AD
:103F9C006FF09FB7130710003307F74063900706C5
:103FAC001309E941B3972401B3D4E4003319240174
:103FBC00B337F000B3649900B3E4F40093F77400E2
:103FCC003357E4006380070293F7F4009306400034
:103FDC00638AD70093874400B3B4970033079700E4
:103FEC00938407009317870063D407069307100088
:103FFC0013040000930400006FF0DFA3930680030A
:10400C00E3C6E6AA9306F001E3DCE6F8930610FE9D
:10401C00B387F64013060002B356F4006308C700DA
:10402C001309E943B3172401B3E4F400B33490004B
:10403C00B3E4D40013F77400130400006300070208
:10404C0093F7F4009306400013070000E394D7F8AD
:10405C00131497001354C4001317D70193D43400CE
:10406C00B3E4E400930700006FF0DF9C9307F07F4C
:10407C0013040000930400006FF0DF9B1389080009
:04408C006FF09FE44E
:1040900093D74501B70610001387F6FF93F7F77F14
:1040A0001306E03F130805003377B700130500003F
:1040B00093D5F5016356F60063860500678000001E
:1040C000678000001306E0411305F0FFE348F6FEA9
:1040D000130530433305F5401306F0013367D7006D
:1040E000634CA6009387D7BE3317F7003355A8005B
:1040F0003365A7006780000013053041B307F54022
:084100003355F7006780000051
:1041080063060506130101FF2324810023261100FD
:104118001304050097000000E780000A9306E041B9
:10412800B386A6409307A00093F6F67F63D4A7064C
:10413800130555FFB317A4009397C70093D7C7007B
:10414800130700008320C100032481009397C70050
:104158009396460193D7C700B3E7D7001305070026
:104168009385070013010101678000009307000091
:10417800930600009397C7009396460193D7C7000C
:1041880013070000B3E7D70013050700938507005E
:10419800678000001307B0003307A740B357E40057
:1041A8009397C700130755013317E40093D7C70047
:0441B8006FF05FF94C
:1041BC00B70701006374F5049307F00F13070002AF
:1041CC0063EEA700971700009387875EB387A7005D
:1041DC0003C507003305A740678000001355850011
:1041EC00971700009387C75CB387A70003C5070028
:1041FC00130780013305A74067800000B707000153
:10420C006362F50213558501971700009387475A8F
:10421C00B387A70003C50700130780003305A74029
:10422C0067800000135505019717000093874758C6
:10423C00B387A70003C50700130700013305A74088
:04424C006780000087
:10425000972700009387C71A83A7070083A7470300
:104260006386070003A5C70E67800000971700004C
:0C4270009387077E03A5C70E678000003F
:10427C0097270000938707189305050003A50700EF
:08428C00170300006700830026
:10429400130101FD2322910223202103232611026D
:1042A40023248102232E3101232C4101232A51018D
:1042B40023286101232671012324810123229101F2
:1042C4009384B500930760011309050063EA970618
:1042D4009307000163E4B72497100000E780C09AB5
:1042E400930400019307800113062000972900001E
:1042F4009389898CB387F90003A44700138787FF48
:104304006306E426832744008326C400032684002E
:1043140093F7C7FFB307F40003A747002326D6008B
:1043240023A4C600136717001305090023A2E7009E
:1043340097100000E7804096130584006F00C01EAC
:1043440093F484FF63CC041C63EAB41C971000004C
:10435400E78080939307701F63F2974E93D794007E
:10436400638E071E130740006364F74693D7640007
:104374001386970313858703931636009729000045
:1043840093898983B386D90003A44600938686FF64
:10439400638C8602832744009305F00093F7C7FFDC
:1043A4003387974063C0E502635E073A0324C40081
:1043B400638C86008327440093F7C7FF33879740B5
:1043C400E3D4E5FE1306050003A409011718000051
:1043D4001308087F630A041B832544001307F000B5
:1043E40093F5C5FFB38795406342F748171700005C
:1043F400232E077D171700002328077D63D6074463
:104404009307F01F63E6B73693D5350093871500FD
:104414009397370003A54900B387F90083A60700E3
:1044240093D52540130710003317B7003367A7004F
:10443400938587FF2326B4002324D4009715000016
:1044440023AEE57623A0870023A686009357264053
:1044540093061000B396F6006362D714B3F7E60030
:1044640063940702939616001376C6FFB3F7E6002B
:1044740013064600639A070093961600B3F7E60006
:1044840013064600E38A07FE1305F000931836006E
:10449400B3881901938508001303060003A4C5001B
:1044A400639A85006F000035635007360324C40007
:1044B400638285348327440093F7C7FF338797408B
:1044C400E354E5FE8326C4000326840093E5140028
:1044D4002322B4002326D60023A4C600B3049400E8
:1044E4009716000023A4966E9716000023AE966CD0
:1044F4009366170023A6040123A4040123A2D40075
:10450400B307F4001305090023A0E7009700000097
:10451400E7808078130584006F0000019307C000D2
:104524002320F900130500008320C1020324810223
:1045340083244102032901028329C101032A810141
:10454400832A4101032B0101832BC100032C810029
:10455400832C4100130101036780000093060020AF
:10456400130600041305F0036FF05FE103A4C70012
:1045740013062600E39887D803A40901171800003E
:1045840013080864E31A04E503A749009357264077
:1045940093061000B396F600E372D7EC03A48900E7
:1045A400832A440093FBCAFF63E89B00B3879B40C4
:1045B4001307F0006340F718974700009387C7A6D6
:1045C400172C0000130C0CE383AA070003270C002C
:1045D4009307F0FF330A7401B38A54016304F73874
:1045E400B71700009387F700B38AFA00B7F7FFFF05
:1045F400B3FAFA0093850A00130509009700000036
:10460400E780806A9307F0FF130B05006300F52C25
:10461400636C452B974C0000938C4CA183A70C0032
:10462400B387FA00174700002322F7A01387070077
:104634006304AA3E83260C009307F0FF638CF63EC6
:10464400B3074B41B387E700174700002320F79EC9
:10465400137C7B00630C0C32330B8B41B7170000C7
:10466400130B8B00138AF7FFB30A5B019387870050
:1046740033F74A01B3878741B387E74033FA4701E9
:1046840093050A001305090097000000E780C06144
:104694009307F0FF630CF53E33056541B30A45010A
:1046A40083A70C0017170000232C675193EA1A0004
:1046B400B307FA0017470000232AF79623225B0169
:1046C400630034391306F00063707639832644009E
:1046D40013874BFF137787FF93F61600B3E6E600C4
:1046E4002322D40093055000B306E40023A2B600AD
:1046F40023A4B6006366E63A832A4B0013040B0036
:10470400174700001307C791032707006376F700D4
:10471400174700002326F7901747000013078790D8
:10472400032707006378F71A17470000232CF78E36
:104734006F00401A13E714002322E400B30494002A
:1047440017170000232E974693E717001305090057
:1047540023A2F40097000000E780005413058400AE
:104764006FF09FDC8326C400032684006FF09FBA99
:1047740093D7950013074000637EF7121307400197
:104784006362F7249386C7051387B70593963600AB
:10479400B386D90083A70600938686FF6388F61C38
:1047A40003A747001377C7FF63F6E50083A78700D5
:1047B400E398F6FE83A6C70003A749002326D40086
:1047C4002324F40023A4860023A687006FF01FC8C7
:1047D400130740016374F712130740056362F7205F
:1047E40093D7C4001386F7061385E706931636009D
:1047F4006FF0DFB8130313009377330093858500BC
:10480400E39E07C86F004011B307F40003A74700F5
:104814008326C400032684001367170023A2E7003D
:104824002326D6001305090023A4C6009700000020
:10483400E7808046130584006FF01FCF13D6340041
:10484400938784006FF09FAAB305B40083A7450043
:104854001305090093E7170023A2F5009700000051
:10486400E7808043130584006FF01FCC13E7140026
:104874002322E400B304940017170000232897347C
:10488400171700002322973413E7170023A6040107
:1048940023A4040123A2E400B305B4001305090012
:1048A40023A0F50097000000E780003F1305840073
:1048B4006FF09FC793D76500938697031387870389
:1048C400939636006FF0DFEC630A341303A4890077
:1048D400832A440093FACAFFB3879A4063E69A0096
:1048E4001307F000E348F7E41305090097000000FC
:1048F400E780803A130500006FF01FC31386C705D5
:104904001385B705931636006FF05FA783A7880059
:104914001306F6FF6392171F93773600938888FF78
:10492400E39607FE03A7490093C7F6FFB3F7E70032
:10493400171700002324F72893961600E3E0D7C640
:10494400E38E06C433F7F600631A07009396160045
:1049540033F7F60013034300E30A07FE13060300CC
:104964006FF0DFB2938A0A016FF0DFC803A5490034
:1049740093552740130710003317B7003367A70078
:104984009715000023ACE5226FF05FE3B717000032
:104994001387F7FF330A5B01337AEA00B387474191
:1049A40033FAE70093050A00130509009700000095
:1049B400E780802F9307F0FFE310F5CE130A000081
:1049C4006FF01FCE130740056366F70893D7C50041
:1049D4009386F7061387E706939636006FF05FDB3E
:1049E400130740156366F70893D7F4001386870707
:1049F40013857707931636006FF05F98973C000095
:104A0400938CCC6283A70C003387FA00973700009D
:104A140023AEE7606FF01FC293164A01E39C06C001
:104A240003A48900B38A5B0193EA1A002322540188
:104A34006FF01FCD9727000023AE679B6FF05FC117
:104A440013040B006FF0DFCB930710002322FB004D
:104A54006FF09FE9130740156364F70693D7F500D9
:104A64009386870713877707939636006FF05FD294
:104A7400130740556364F70693D724011386D707B9
:104A84001385C707931636006FF05F8F130C8CFFE6
:104A9400B38A8A01B38A6A41130A00006FF05FC0C7
:104AA400930584001305090097000000E7808062E5
:104AB40003A4890083A70C00832A44006FF05FC419
:104AC400130740556364F70293D725019386D707EC
:104AD4001387C707939636006FF09FCB9306803FEA
:104AE4001306F0071305E0076FF05F899306803F14
:104AF4001307E0076FF0DFC983A749006FF0DFE316
:104B04006380050263020604638806048347060083
:104B140023A0F500034506003335A000678000009C
:104B2400130101FF9305C10063040602638A0602B0
:104B34008347060023A0F500034506003335A00093
:104B44001301010167800000130500006780000065
:104B5400130500006FF0DFFE1305E0FF678000001F
:084B64001305E0FF6FF0DFFD17
:104B6C00B3C7A50093F73700B308C50063920706D7
:104B7C009307300063FEC7049377350013070500D5
:104B8C006398070613F6C8FF930706FE636CF708D5
:104B9C00637CC702938605009307070003A80600F1
:104BAC00938747009386460023AE07FFE3E8C7FED2
:104BBC009307F6FFB387E74093F7C7FF9387470048
:104BCC003307F700B385F5006368170167800000B1
:104BDC0013070500E37C15FF83C7050013071700B7
:104BEC0093851500A30FF7FEE36817FF678000009D
:104BFC0083C605001307170093773700A30FD7FE62
:104C0C0093851500E38007F883C60500130717008A
:104C1C0093773700A30FD7FE93851500E39A07FC13
:104C2C006FF05FF683A6050083A2450083AF850075
:104C3C0003AFC50083AE050103AE450103A3850197
:104C4C0003A8C501938545022320D70083A6C5FF81
:104C5C00232257002324F7012326E7012328D70119
:104C6C00232AC701232C6700232E070113074702B1
:0C4C7C00232ED7FEE368F7FA6FF09FF1DB
:104C880017450000130505E917030000670043777F
:104C980017450000130505E8170300006700837631
:104CA800130101FF23248100130405001385050067
:104CB8009747000023AA07E6232611009700000063
:104CC800E78080749307F0FF630AF5008320C10032
:104CD8000324810013010101678000009747000049
:104CE800938787E483A70700E38207FE2320F40065
:104CF8008320C100032481001301010167800000A3
:104D08009377350013070500639C0704B7867F7FF8
:104D18009386F6F79305F0FF130747000326C7FFAE
:104D2800B377D600B387D700B3E7C700B3E7D70098
:104D3800E384B7FE8346C7FFB307A7400346D7FF00
:104D48000345E7FF63800604630A06023335A000C3
:104D58003305F5001305E5FF67800000E38806FAD0
:104D6800834707001307170093763700E39807FE79
:104D78003307A7401305F7FF678000001385D7FFA7
:0C4D8800678000001385C7FF67800000F3
:104D9400630A060CB367B50093F7370063900708FE
:104DA4009307300063FCC7068327050003A70500AB
:104DB400639EE70A1306C6FF6306060A3703FFFE6F
:104DC4001303F3EF33876700B788808093C7F7FF37
:104DD400B377F70093880808B3F7170163940708BB
:104DE400130E30006F00C0020327050083A60500E0
:104DF400B30767001348F7FFB3F70701B3F71701C9
:104E04006316D7061306C6FF630E0604639C0704E5
:104E14001305450093854500E368CEFC0347050070
:104E240083C605001306F6FF639AE602630C0602C6
:104E3400630A0702930715003306C5006F000001DB
:104E44006302F60293871700630E0700938515002B
:104E540003C7070083C60500E304D7FE3305D74024
:104E64006780000013050000678000000347050009
:104E740083C605001306F6FFE38CE6FA6FF01FFE07
:104E8400B3E7A50093F73700639A0706930730004A
:104E94001307050063E8C7066300060603C8050098
:104EA4009306F6FF93851500230007019307170067
:104EB400630808023306C700B306D7006F00400139
:104EC40003C7F5FF93871700A38FE7FE630C070062
:104ED400938515003388F640E394C7FE678000008D
:104EE40013880600338707016300080693871700B9
:104EF400A38F07FEE39CE7FE67800000130705000D
:104F04006FF09FF93703FFFEB78880801303F3EF38
:104F140093880808130E300083A60500B387660043
:104F240013C8F6FFB3F70701B3F71701E39807F6C1
:104F3400130747001306C6FF232ED7FE93854500AB
:0C4F4400E36CCEFC6FF05FF567800000AE
:104F5000638405029307F00F63E8C7002380C50050
:104F600013051000678000009307A0082320F500B8
:104F70001305F0FF67800000130500006780000044
:104F8000130101FE232C8100232A910023282101F3
:104F90002326310113840500232E110097190000E8
:104FA0009389C9C11309050097000000E78000CE6E
:104FB00083A68900371700009307F7FE83A44600F5
:104FC0003384874093F4C4FF330494001354C40023
:104FD0001304F4FF1314C4006340E40293050000BB
:104FE0001305090097000000E78040CC83A78900E3
:104FF000B38797006308F5021305090097000000C6
:10500000E780C0C98320C1010324810183244101B9
:10501000032901018329C1001305000013010102C6
:1050200067800000B3058040130509009700000069
:10503000E780C0C79307F0FF630CF50497370000C3
:10504000938707FF83A7070003A78900B3848440E1
:1050500093E414003384874013050900232297004A
:105060009737000023A687FC97000000E78000C365
:105070008320C1010324810183244101032901010B
:105080008329C1001305100013010102678000008D
:10509000930500001305090097000000E78000C198
:1050A00003A789009306F000B307E540E3D6F6F4C2
:1050B000971600009386463483A6060093E71700F0
:1050C0002322F7003305D5409737000023A2A7F627
:0450D0006FF09FF2EC
:1050D40063820514130101FF23248100232291001C
:1050E4001384050093040500232611009700000093
:1050F400E78080B98325C4FF130784FF17150000D8
:10510400130585AB93F7E5FF3306F70083264600C6
:105114000328850093F6C6FF6308C81A2322D60025
:1051240093F515003308D6006396050A032384FF1C
:105134008325480097180000938888A833076740A0
:1051440003288700B387670093F5150063081815D3
:105154000323C7002326680023240301638A051E52
:1051640093E617002322D7002320F6009306F01FAE
:1051740063EEF60A93D737009386170093963600AA
:10518400832545003305D5000326050093D6274023
:1051940093071000B397D700B3E7B700930685FFD2
:1051A4002326D7002324C7009716000023A8F6A0BF
:1051B4002320E5002326E600032481008320C10088
:1051C4001385040083244100130101011703000027
:1051D400670083AC8325480093F51500639E0502A0
:1051E400B387D700971800009388889D832686008C
:1051F40013E81700B305F700638816170326C600E3
:1052040023A6C6002324D6002322070123A0F500E9
:105214006FF0DFF56780000093E61700232ED4FEBD
:105224002320F6009306F01FE3F6F6F493D69700D6
:1052340013064000636CD60E93D6670093859603DD
:105244001386860393953500B305B50083A6050040
:10525400938585FF638CD51203A646001376C6FF9B
:1052640063F6C70083A68600E398D5FE83A5C6002F
:105274002326B7002324D7000324810023A4E500B8
:105284008320C100138504008324410023A6E60083
:105294001301010117030000670003A0639A0514BA
:1052A400832586000326C600B387F60093E617001D
:1052B40023A6C5002324B6002322D7003307F70012
:1052C4002320F7006FF05FEF93F51500B387D70045
:1052D40063900502832584FF3307B7408326C70004
:1052E40003268700B387B7002326D60023A4C6006D
:1052F400971600009386461013E6170083A606004F
:105304002322C70017160000232CE68AE3E6D7EA17
:1053140097370000938747D183A5070013850400BE
:1053240097000000E780C0C56FF01FE91306400135
:105334006374D60213064005636AD60693D6C70083
:105344009385F6061386E606939535006FF0DFEF36
:10535400B387D7006FF09FE99385C6051386B6051A
:10536400939535006FF05FEE9716000023A0E68654
:105374009716000023AAE684232617012324170185
:105384002322070123A0F5006FF01FE30325450046
:1053940093071000135626403396C7003366A600C1
:1053A4009717000023ACC7806FF09FEC13064015DD
:1053B400636CD60093D6F700938586071386760729
:1053C400939535006FF05FE813064055636CD60083
:1053D40093D627019385D6071386C6079395350080
:1053E4006FF09FE69305803F1306E0076FF0DFE55B
:1053F40093E617002322D7002320F6006FF0DFDBAB
:0454040067800000BD
:0454080067800000B9
:10540C00973700009387477283A70700638C0700C8
:10541C003385A700173700002328A77013850700D2
:10542C006780000097B70FC0938707BD3385A7002F
:10543C0017370000232AA76E13850700678000002A
:105450003D000000A9030000770000009703000052
:10546000050000000D020000230000000302000000
:10547000464154004641543332000000222A2B2C6E
:105480003A3B3C3D3E3F5B5D7C7F00000A54502030
:10549000544553540A0000002825642C2564292013
:1054A000203A20253034582C253034582C253034DF
:1054B000580A00002A0000003C4449523E202025A2
:1054C000730A00003C46494C453E2025730A000003
:1054D000456E74727920466F756E64203A202530CF
:1054E00038580D0A000000002573203A204E6F74D2
:1054F00020466F756E64200A00000000456E7472CD
:105500007920466F756E64203A20253038580A009D
:1055100053756D20496E76616C69642E0A00000037
:10552000256420427974657320726561642E0A00D7
:105530002A2A2A205665785269736376204D6F6E49
:1055400069746F72202A2A2A000000000A25642844
:105550006D73293E00000000443A44756D702020B0
:105560002020202D204428426567696E292C28457B
:105570006E64290A463A46696C6C20202020202D52
:10558000204628426567696E292C28456E64292CBF
:105590002856616C290A473A476F20202020202096
:1055A000202D20473C5354415254454E5452593AB1
:1055B00066726F6D696865783E0A523A5265616439
:1055C00020496E74656C204865780A533A536574B7
:1055D0002020202020202D20532841646472290A95
:1055E0003D3A5344204449522020202D203D0A2199
:1055F0003A5344204948455820202D202128466907
:105600006C656E616D65290A543A545020544553B7
:10561000540A00006563616C6C20402025303858C6
:105620000A0000006D616C6C6F6300007870726935
:105630006E746600636F6E736F6C655F636C65613B
:1056400072000000636F6E736F6C655F7363726FDF
:105650006C6C0000636F6E736F6C655F7075746364
:1056600000000000636F6E736F6C655F707574731C
:1056700000000000706F6C6C6B6579006B65795F82
:105680006765746300000000706F6C6C72780000D6
:10569000706F6C6C74780000756172745F696E690C
:1056A00074000000756172745F67657463000000C8
:1056B000756172745F707574630000007561727457
:1056C0005F707574730000005F756172745F77615D
:1056D000697400007379735F6D657063203D2025E8
:1056E0003038580A000000007379735F6D6361758C
:1056F0007365203D20253038580A00007379735FA8
:1057000075657063203D20253038580A0000000080
:105710007379735F756361757365203D202530383B
:10572000580A000053595343414C4C282564292002
:105730003D20253038580A0038DCFFFFFCD9FFFF38
:10574000A8DBFFFFB8DBFFFFA8DBFFFF64DAFFFF8A
:10575000A8DBFFFFB8DBFFFFFCD9FFFFFCD9FFFF91
:1057600064DAFFFFB8DBFFFF24DCFFFF24DCFFFF70
:1057700024DCFFFF64DAFFFFA4E4FFFF18E3FFFF70
:1057800018E3FFFF14E3FFFF24E3FFFF24E3FFFF21
:10579000B8E2FFFF14E3FFFF24E3FFFFB8E2FFFFDF
:1057A00024E3FFFF14E3FFFF84E4FFFF84E4FFFF33
:1057B00084E4FFFFB8E2FFFF0001020203030303DA
:1057C0000404040404040404050505050505050591
:1057D0000505050505050505060606060606060671
:1057E0000606060606060606060606060606060659
:1057F0000606060606060606070707070707070741
:105800000707070707070707070707070707070728
:105810000707070707070707070707070707070718
:105820000707070707070707070707070707070708
:1058300007070707070707070808080808080808F0
:1058400008080808080808080808080808080808D8
:1058500008080808080808080808080808080808C8
:1058600008080808080808080808080808080808B8
:1058700008080808080808080808080808080808A8
:105880000808080808080808080808080808080898
:105890000808080808080808080808080808080888
:1058A0000808080808080808080808080808080878
:1058B000080808080808080843000000504F53492A
:1058C000580000002E000000002020202020202072
:1058D00020202828282828202020202020202020A0
:1058E00020202020202020202088101010101010B0
:1058F00010101010101010101004040404040404FC
:105900000404041010101010101041414141414195
:105910000101010101010101010101010101010177
:105920000101010110101010101042424242424287
:105930000202020202020202020202020202020247
:1059400002020202101010102000000000000000EF
:105950000000000000000000000000000000000047
:105960000000000000000000000000000000000037
:105970000000000000000000000000000000000027
:105980000000000000000000000000000000000017
:105990000000000000000000000000000000000007
:1059A00000000000000000000000000000000000F7
:1059B00000000000000000000000000000000000E7
:1059C00000000000000000000000000000000000D7
:1059D00000000000000000000000000000000000C7
:1059E000000000000000000030313233343536371B
:1059F000383941424344454600000000440000005D
